:020000040800F2
:1000000008100020C9160008911600089316000871
:1000100095160008971600089916000800000000C1
:10002000000000000000000000000000ED160008C5
:100030009B16000800000000F11600089D1600083D
:10004000F5160008F9160008FD160008011700084B
:1000500005170008091700080D17000811170008F8
:1000600015170008191700081D17000821170008A8
:1000700025170008291700082D1700083117000858
:1000800035170008391700083D1700084117000808
:1000900045170008491700084D17000851170008B8
:1000A00055170008591700085D1700086117000868
:1000B00065170008691700086D1700087117000818
:1000C00075170008791700087D17000881170008C8
:1000D00085170008891700088D1700089117000878
:1000E00095170008991700089D170008A117000828
:1000F000A5170008A9170008AD170008B1170008D8
:10010000B5170008B9170008BD170008C117000887
:10011000C5170008C9170008CD170008D117000837
:10012000D5170008D9170008DD170008E1170008E7
:1001300038B5040000252078C00740F10D81DFF8B4
:10014000E40B006810F00C0004280BD0DFF8D40B8F
:10015000006810F00C0008282AD1DFF8C80B0068EE
:10016000C00325D54FF48040B0FA80F050F0200055
:10017000C0B24009C0B2012803D1DFF8AC0B00685F
:1001800006E04FF48040B0FA80F0DFF8A00B006882
:100190004FF48041B1FA81F111F01F01C840C0074E
:1001A00040F1DA806068002840F0D6800120A6E3A4
:1001B000DFF8740B006830F48030DFF86C1B0860E7
:1001C000DFF8640B006830F48020DFF85C1B086007
:1001D00000F0F1FD05004FF48040B0FA80F050F0DF
:1001E0002000C0B24009C0B2012803D1DFF8380BAB
:1001F000006806E04FF48040B0FA80F0DFF82C0B86
:1002000000684FF48041B1FA81F111F01F01C8403C
:10021000C00706D500F0CFFD401B6528DBD30320C7
:100220006DE36068B0F5803F08D1DFF8FC0A006834
:1002300050F48030DFF8F01A086038E06068002879
:1002400010D1DFF8E40A006830F48030DFF8D81A03
:100250000860DFF8D40A006830F48020DFF8C81A9C
:10026000086024E06068B0F5A02F10D1DFF8B80A6C
:10027000006850F48020DFF8B01A0860DFF8A80AA0
:10028000006850F48030DFF8A01A08600FE0DFF853
:10029000980A006830F48030DFF88C1A0860DFF8C4
:1002A000880A006830F48020DFF87C1A08606068F3
:1002B000002828D000F07FFD05004FF48040B0FA00
:1002C00080F050F02000C0B24009C0B2012803D134
:1002D000DFF8540A006806E04FF48040B0FA80F07E
:1002E000DFF8480A00684FF48041B1FA81F111F05B
:1002F0001F01C840C0072FD400F05DFD401B6528DA
:10030000DBD30320FBE200F056FD05004FF48040F4
:10031000B0FA80F050F02000C0B24009C0B201280D
:1003200003D1DFF8040A006806E04FF48040B0FA19
:1003300080F0DFF8F80900684FF48041B1FA81F1EC
:1003400011F01F01C840C00706D500F034FD401B66
:100350006528DBD30320D2E22078800740F1BF80FC
:10036000DFF8C009006810F00C0F0BD0DFF8B409FB
:10037000006810F00C00082839D1DFF8A8090068DF
:10038000C00334D45FF08040B0FA80F050F0200019
:10039000C0B24009C0B2012803D1DFF88C0900685F
:1003A00006E05FF08040B0FA80F0DFF88009006876
:1003B0005FF08041B1FA81F111F01F01C840C00720
:1003C00004D52069012801D0012098E2DFF85809FE
:1003D00000685FF0F851B1FA81F130F0F80062691D
:1003E00012FA01F10843DFF84019086077E020694C
:1003F000002842D001205FF00041B1FA81F1DFF81E
:10040000302942F8210000F0D6FC05005FF0804062
:10041000B0FA80F050F02000C0B24009C0B201280C
:1004200003D1DFF80409006806E05FF08040B0FA0D
:1004300080F0DFF8F80800685FF08041B1FA81F1E0
:1004400011F01F01C840C00706D400F0B4FC401BE7
:100450000328DBD3032052E2DFF8CC0800685FF00A
:10046000F851B1FA81F130F0F800626912FA01F145
:100470000843DFF8B418086031E000205FF0004165
:10048000B1FA81F1DFF8A82842F8210000F093FCCE
:1004900005005FF08040B0FA80F050F02000C0B25C
:1004A0004009C0B2012803D1DFF87C08006806E0EB
:1004B0005FF08040B0FA80F0DFF8700800685FF00D
:1004C0008041B1FA81F111F01F01C840C00706D583
:1004D00000F071FC401B0328DBD303200FE22078DF
:1004E000000754D5A06900282AD001205FF0004100
:1004F000B1FA81F1DFF83C2842F8210000F05BFC02
:1005000005005FF08040B0FA80F05FF08040B0FA04
:1005100080F0DFF8180800685FF08041B1FA81F1DF
:1005200011F01F01C840C00706D400F044FC401B76
:100530000328E6D30320E2E1012000F03FFC26E09F
:1005400000205FF00041B1FA81F1DFF8E82742F8BE
:10055000210000F030FC05005FF08040B0FA80F030
:100560005FF08040B0FA80F0DFF8C00700685FF00D
:100570008041B1FA81F111F01F01C840C00706D5D2
:1005800000F019FC401B0328E6D30320B7E12078D4
:10059000400740F1FE80DFF8A007006850F080506F
:1005A000DFF894170860DFF89007006810F08050BB
:1005B00000900098DFF88407006850F48070DFF83E
:1005C0007C17086000F0F7FB0500DFF87007006893
:1005D000C00506D400F0EFFB401B6528F5D30320CF
:1005E0008DE1DFF85C07006840084000DFF8501735
:1005F0000860DFF84C07006830F00400DFF84017AF
:10060000086000F0D8FB05005FF08040B0FA80F091
:100610005FF08040B0FA80F050F04000C0B2400976
:10062000C0B2022803D1DFF81807006802E0DFF843
:10063000FC0600685FF08041B1FA81F111F01F0102
:10064000C840C00708D500F0B6FB401B41F2893115
:100650008842D9D3032052E1E068012808D1DFF8AD
:10066000E006006850F00100DFF8D416086037E0BB
:10067000E068002810D1DFF8C80600684008400094
:10068000DFF8BC160860DFF8B806006830F0040038
:10069000DFF8AC16086023E0E068052810D1DFF829
:1006A000A006006850F00400DFF894160860DFF838
:1006B0009006006850F00100DFF8841608600FE033
:1006C000DFF87C06006840084000DFF87416086018
:1006D000DFF86C06006830F00400DFF8641608608C
:1006E000E06800282AD000F066FB05005FF080403B
:1006F000B0FA80F05FF08040B0FA80F050F0400037
:10070000C0B24009C0B2022803D1DFF83406006845
:1007100002E0DFF8180600685FF08041B1FA81F16D
:1007200011F01F01C840C00733D400F044FB401B48
:1007300041F289318842D9D30320E0E000F03BFB4D
:1007400005005FF08040B0FA80F05FF08040B0FAC2
:1007500080F050F04000C0B24009C0B2022803D17E
:10076000DFF8DC05006802E0DFF8C00500685FF034
:100770008041B1FA81F111F01F01C840C00708D5CE
:1007800000F019FB401B41F289318842D9D3032084
:10079000B5E0E069002800F0B180DFF88805006866
:1007A00010F00C00082800F0A780E069022875D13D
:1007B00000208021B1FA81F1DFF8742542F8210090
:1007C00000F0F9FA05004020B0FA80F050F0200067
:1007D000C0B24009C0B2012803D1DFF84C0500685F
:1007E00005E04020B0FA80F0DFF8400500684021C5
:1007F000B1FA81F111F01F01C840C00706D500F021
:10080000DAFA401B0328DED3032078E0206AB0F533
:10081000803F09D1DFF80C05006830F40030A16892
:100820000843DFF800150860DFF8F804006830F4CA
:100830007410216A0843616A0843DFF8E81408600D
:1008400001208021B1FA81F1DFF8E42442F821008F
:1008500000F0B1FA05004020B0FA80F050F020001E
:10086000C0B24009C0B2012803D1DFF8BC0400685F
:1008700005E04020B0FA80F0DFF8B00400684021C5
:10088000B1FA81F111F01F01C840C00736D400F061
:1008900092FA401B0328DED3032030E000208021A1
:1008A000B1FA81F1DFF8882442F8210000F083FAE0
:1008B00005004020B0FA80F050F02000C0B240099E
:1008C000C0B2012803D1DFF86004006805E04020D1
:1008D000B0FA80F0DFF8540400684021B1FA81F1E9
:1008E00011F01F01C840C00708D500F064FA401B92
:1008F0000328DED3032002E0012000E0002032BD07
:1009000070B504000D000026DFF83804006810F010
:100910000700A84280F0CE80DFF828040068C008F5
:10092000C0002843DFF81C140860DFF818040068D2
:1009300010F00700A84201D0012099E1207880073B
:1009400009D5DFF80404006830F0F000A16808431E
:10095000DFF8F41308602078C00740F16E8160680A
:10096000012820D14FF48040B0FA80F050F02000F0
:10097000C0B24009C0B2012803D1DFF8AC0300685F
:1009800006E04FF48040B0FA80F0DFF8A003006882
:100990004FF48041B1FA81F111F01F01C840C00746
:1009A00043D4012064E1606802281DD14020B0FAE0
:1009B00080F050F02000C0B24009C0B2012803D13D
:1009C000DFF86403006805E04020B0FA80F0DFF84B
:1009D0005C0300684021B1FA81F111F01F01C840A9
:1009E000C00722D4012043E15FF08040B0FA80F0DC
:1009F00050F02000C0B24009C0B2012803D1DFF896
:100A00002803006806E05FF08040B0FA80F0DFF86D
:100A10001C0300685FF08041B1FA81F111F01F0101
:100A2000C840C00701D4012022E1DFF81C030068A0
:100A30008008800061680843DFF80C13086000F04C
:100A4000BAF906006068012810D1DFF8FC020068DE
:100A500010F00C00042800F0F08000F0ACF9801BCE
:100A600041F289318842F0D3032001E16068022815
:100A700010D1DFF8D402006810F00C00082800F054
:100A8000DC8000F098F9801B41F289318842F0D374
:100A90000320EDE0DFF8B002006810F00C0F00F06A
:100AA000CC8000F088F9801B41F289318842F1D373
:100AB0000320DDE02078800709D5DFF88C0200688C
:100AC00030F0F000A1680843DFF87C12086020785D
:100AD000C00740F1A380606801281FD14FF4804017
:100AE000B0FA80F050F02000C0B24009C0B2012836
:100AF00002D18D48006806E04FF48040B0FA80F0E3
:100B0000DFF8280200684FF48041B1FA81F111F05A
:100B10001F01C840C00741D40120A9E06068022835
:100B20001CD14020B0FA80F050F02000C0B2400943
:100B3000C0B2012802D17C48006805E04020B0FA2C
:100B400080F0DFF8E80100684021B1FA81F111F08E
:100B50001F01C840C00721D4012089E05FF0804018
:100B6000B0FA80F050F02000C0B24009C0B20128B5
:100B700002D16D48006806E05FF08040B0FA80F076
:100B8000DFF8A80100685FF08041B1FA81F111F04F
:100B90001F01C840C00701D4012069E0DFF8A801A7
:100BA00000688008800061680843DFF89C110860D5
:100BB00000F001F90600606801280FD1DFF8880114
:100BC000006810F00C00042828D000F0F4F8801B16
:100BD00041F289318842F1D3032049E0606802285C
:100BE0000ED15948006810F00C00082816D000F00B
:100BF000E2F8801B41F289318842F2D3032037E0CA
:100C00005148006810F00C0F08D000F0D4F8801B99
:100C100041F289318842F3D3032029E04948006832
:100C2000C008C0002843474908604648006810F0E3
:100C30000700A84201D001201AE02078400707D51C
:100C40004148006830F4E060E16808433E490860CC
:100C50002078000708D53C48006830F460502169CE
:100C600050EAC10038490860002000F08CF80020EC
:100C700070BDF0B585B001A83449102200F0B0F87D
:100C800033480088ADF80000002100220023002432
:100C90000020244D2D68290011F00C05042D02D0F0
:100CA000082D03D026E02B4D280025E001AD11F4DE
:100CB00070164FF47057B7FA87F7FE40755D2C0039
:100CC000CD0311D5174D2D686E4615F400354FF440
:100CD0008047B7FA87F7FD40AD5D2A001D4DB5FB93
:100CE000F2F565432B0003E01B4D05FB04F52B00DB
:100CF000180001E0174D280005B0F0BD80B5FFF7E2
:100D0000B8FF084909685FF07062B2FA82F2134BCB
:100D100011F0F001D140C95CC84011490860104889
:100D2000006802BD0410024000100240241002407E
:100D300000004242800442421C1002400070004009
:100D4000201002400020024004100240A8160008B3
:100D5000360E000800127A0000093D00B81600089F
:100D60000000002080B51C48006850F010001A49AF
:100D70000860032000F0BEF8002000F004F800F046
:100D8000FDF8002002BD10B50400FFF7B7FF4FF4D7
:100D90007A71B0FBF1F000F0C6F8002221005FF09C
:100DA000FF3000F0ADF8002010BD0C480068401C7A
:100DB0000A490860704709480068704711B581B05A
:100DC0000024FFF7F8FF0400FFF7F5FF001B01996F
:100DD0008842F9D313BD0000002002400400002027
:100DE000103A07D330B4B1E83810103AA0E8381000
:100DF000F9D230BC530724BFB1E80810A0E80810AE
:100E000044BF51F8043B40F8043BD20724BF31F8FB
:100E1000022B20F8022B44BF0B7803707047083A6E
:100E200007D3B1E80810083A40F8043B40F804CB77
:100E3000F7D25307E4E7010210F00702454B1B68A5
:100E400019004FF6FF031940434B53EA022319439D
:100E5000404B196070473F480068C0F3022070475C
:100E600010B440B2002808D50A013C4B40B210F043
:100E70000F04E31803F8042C03E00A01384B40B2D6
:100E8000C25410BC704770B4030013F00704D4F1CF
:100E90000706052E01D3042001E0D4F10700261D2A
:100EA000072E01D2002500E0E51E012616FA00F00B
:100EB000401E0840A8400121A940491E1140084396
:100EC00070BC704710B50400601EB0F1807F01D384
:100ED00001200EE0601E234908600F215FF0FF3003
:100EE000FFF7BEFF00202049086007201F49086067
:100EF000002010BD10B504002000FFF79DFF10BDBD
:100F0000F8B504000D0016000027FFF7A4FF070046
:100F1000320029003800FFF7B6FF0100200040B280
:100F2000FFF79EFFF1BD10B504002000FFF7CAFFD8
:100F300010BD042806D10D49096851F004010B4A7F
:100F4000116005E00949096831F00401074A1160A0
:100F5000704700000CED00E00000FA0518ED00E01D
:100F600000E400E014E000E018E000E010E000E041
:100F700080B500F001F801BD7047000080B517484A
:100F8000006850F00100154908601448006810F02E
:100F90000100009000980320FFF7ACFF0022002121
:100FA0007FF00B00FFF7ACFF002200217FF00A006A
:100FB000FFF7A6FF002200217FF00900FFF7A0FF46
:100FC000002200217FF00300FFF79AFF002200219A
:100FD0005FF0FF30FFF794FF01BD00BF1810024023
:100FE0002DE9F84100230024002500265FF0000EC3
:100FF0005FF0000C6246102A80F05B815FF0010C0C
:101000001CFA02FC6346D1F800C013EA0C0C6446DB
:101010009C4240F04C81D1F804C0BCF1000F3DD09F
:10102000BCF1010F24D0BCF1020F2BD0BCF1030F97
:101030004CD0BCF1110F1FD0BCF1120F28D0DFF83B
:101040009482C4452AD0DFF89082C44526D0DFF8C8
:101050008C82C44522D0DFF88882C4451ED0DFF8D8
:101060008482C4451AD0DFF88082C44516D031E0AE
:10107000D1F80CC066462DE0D1F80CC01CF1040C70
:10108000664627E0D1F80CC01CF1080C664621E04A
:10109000D1F80CC01CF10C0C66461BE0D1F808C05E
:1010A000BCF1000F03D15FF0040C66460DE0D1F8EF
:1010B00008C0BCF1010F04D15FF0080C6646036163
:1010C00003E05FF0080C6646436103E05FF0000C4C
:1010D0006646FFE7FF2C01D8070000E0071DFF2C44
:1010E00002D85FEA820E03E0B2F1080C5FEA8C0ED0
:1010F000D7F800C05FF00F0818FA0EF83CEA080CA9
:1011000016FA0EF858EA0C0CC7F800C0D1F804C063
:101110005FEACC0C40F1CB80DFF8D0C1DCF800C036
:101120005CF0010CDFF8C481C8F800C0DFF8BCC176
:10113000DCF800C01CF00108CDF80080DDF800C02C
:10114000DFF8ACC15FEA92085CF828C065465FF042
:101150000F0C12F003085FFA88F85FEA88081CFA9F
:1011600008FC35EA0C05DFF88CC1604502D15FF060
:10117000000C24E0DFF880C1604502D15FF0010C73
:101180001DE0DFF878C1604502D15FF0020C16E087
:10119000DFF86CC1604502D15FF0030C0FE0DFF8AF
:1011A00064C1604502D15FF0040C08E0DFF858C16B
:1011B000604502D15FF0050C01E05FF0060C12F013
:1011C00003085FFA88F85FEA88081CFA08FC5CEA02
:1011D0000505DFF81CC15FEA92084CF82850D1F8E9
:1011E00004C05FEACC3C0AD5DFF820C1DCF800C0BF
:1011F00054EA0C0CDFF81481C8F800C009E0DFF8ED
:101200000CC1DCF800C03CEA040CDFF80081C8F82F
:1012100000C0D1F804C05FEA8C3C0AD5DFF8F0C00A
:10122000DCF800C054EA0C0CDFF8E480C8F800C019
:1012300009E0DFF8DCC0DCF800C03CEA040CDFF8B1
:10124000D080C8F800C0D1F804C05FEACC2C0AD521
:10125000DFF8C0C0DCF800C054EA0C0CDFF8B48042
:10126000C8F800C009E0DFF8ACC0DCF800C03CEA18
:10127000040CDFF8A080C8F800C0D1F804C05FEA11
:101280008C2C0AD5DFF890C0DCF800C054EA0C0CB6
:10129000DFF88480C8F800C009E0DFF87CC0DCF823
:1012A00000C03CEA040CDFF87080C8F800C0521C93
:1012B000A1E6BDE8F18152B2002A02D089B20161F3
:1012C00002E089B20B0403617047C26889B24A40E8
:1012D000C2607047000011100000121000002110C1
:1012E00000002210000031100000321018100240DF
:1012F0000800014000080140000C014000100140BE
:101300000014014000180140001C0140000401408D
:1013100004040140080401400C04014000B585B0FC
:101320004A48006850F0080048490860474800688B
:1013300010F00800009000984448006850F4807055
:10134000424908604148006810F48070009000989D
:101350003E48006850F480703C4908603B48006893
:1013600010F4807000900098012201213848FFF7A6
:10137000A2FF0122C0213748FFF79DFF0120019005
:10138000012002900220049001A93148FFF728FEB5
:1013900040200190012002900220049001A92D48D4
:1013A000FFF71EFE80200190012002900220049091
:1013B00001A92848FFF714FE05B000BD38B50400A8
:1013C0000D006DB2002D15D1E00704D500220121DA
:1013D0001F48FFF770FFA00704D5002240211D48D9
:1013E000FFF769FF600730D5002280211948FFF719
:1013F00062FF2AE06DB2012D15D1E00704D501226C
:1014000001211348FFF757FFA00704D5012240210F
:101410001048FFF750FF600717D5012280210D48C3
:10142000FFF749FF11E0E00703D501210848FFF766
:101430004CFFA00703D540210648FFF746FF600791
:1014400003D580210348FFF740FF31BD181002404B
:10145000000C01400020014010B50024FFF782FC81
:1014600000F054F800F088F8FFF758FFE4B2002CC1
:1014700009D0022C11D00BD3042C1ED016D3062C6D
:1014800029D021D330E000210720FFF797FF2BE080
:1014900001210120FFF792FF26E000210120FFF744
:1014A0008DFF01210220FFF789FF1DE04020144934
:1014B000086080201349086016E080201049086009
:1014C0004020104908600FE040200D4908600120CD
:1014D0000D49086008E001200B49086040200949D7
:1014E00008608020074908604FF47A70FFF766FCB7
:1014F000641CE4B2072CB9D100200400B6E7000058
:101500001420014010200140100C014000B58FB0A4
:10151000012005905FF480300690002007900220A3
:101520000C905FF480300D905FF4E0100E9005A8F1
:10153000FEF7FEFD0F200090022001900020029097
:101540004FF4806003900020049002216846FFF76A
:10155000D7F9FFF7D3FB4FF47A71B0FBF1F0FFF747
:10156000E2FC0420FFF7E5FC002200215FF0FF30E1
:10157000FFF7C6FC0FB000BD7047000013480068BD
:1015800050F00100114908601148006811490840F5
:101590000F4908600D4800680F4908400B49086072
:1015A0000A48006830F4802008490860084800684C
:1015B00030F4FE00064908605FF41F000749086028
:1015C0005FF00060064908607047000000100240AC
:1015D000041002400000FFF8FFFFF6FE0810024072
:1015E00008ED00E010B450F8041B79B102684368BC
:1015F00012180830DC0744BFA9F10104E31852F8BF
:10160000044B43F8044B091FF9D1ECE710BC7047B9
:1016100010B5074979441831064C7C44163404E06F
:101620000A68081D511888470146A142F8D110BD2B
:101630000800000018000000ADFFFFFF08000000D8
:10164000A4000000000000200000000000F00BF8E3
:10165000002801D0FFF7DCFF0020C046C046FFF79E
:10166000FBFE00F002F80120704700F001B8000016
:101670000746384600F002F8FBE7000080B5C04698
:10168000C046024A11001820ABBEFBE7260002004C
:101690007047FEE7FEE7FEE7FEE7FEE780B5FFF7EF
:1016A00084FBFFF765FC01BD02030405060708097A
:1016B0000A0B0C0D0E0F10100000000001020304B5
:1016C0000102030406070809014880470148004752
:1016D0007D150008D9160008C046C046C046C04661
:1016E000FFF7B4FF00A24A0400000000FFF7FEBFAE
:1016F000FFF7FEBFFFF7FEBFFFF7FEBFFFF7FEBF1E
:10170000FFF7FEBFFFF7FEBFFFF7FEBFFFF7FEBF0D
:10171000FFF7FEBFFFF7FEBFFFF7FEBFFFF7FEBFFD
:10172000FFF7FEBFFFF7FEBFFFF7FEBFFFF7FEBFED
:10173000FFF7FEBFFFF7FEBFFFF7FEBFFFF7FEBFDD
:10174000FFF7FEBFFFF7FEBFFFF7FEBFFFF7FEBFCD
:10175000FFF7FEBFFFF7FEBFFFF7FEBFFFF7FEBFBD
:10176000FFF7FEBFFFF7FEBFFFF7FEBFFFF7FEBFAD
:10177000FFF7FEBFFFF7FEBFFFF7FEBFFFF7FEBF9D
:10178000FFF7FEBFFFF7FEBFFFF7FEBFFFF7FEBF8D
:10179000FFF7FEBFFFF7FEBFFFF7FEBFFFF7FEBF7D
:1017A000FFF7FEBFFFF7FEBFFFF7FEBFFFF7FEBF6D
:1017B000FFF7FEBFFFF7FEBFFFF7FEBFFFF7FEBF5D
:1017C000FFF7FEBFFFF7FEBFFFF7FEBFFFF7FEBF4D
:1017D000FFF7FEBFFFF7FEBFFFF7FEBFFFF7FEBF3D
:0417E000FFF7FEBF52
:04000005080016D900
:00000001FF
