:020000040800F2
:10000000800C00204D010008DF1700088F15000844
:10001000DD170008E1010008F91C000800000000DD
:100020000000000000000000000000005F01000868
:10003000E301000800000000630100082319000824
:1000400067010008670100086701000867010008F0
:1000500067010008670100086701000867010008E0
:1000600067010008670100086701000867010008D0
:1000700067010008670100086701000867010008C0
:1000800067010008670100086701000867010008B0
:1000900067010008670100086701000867010008A0
:1000A0006701000867010008670100086701000890
:1000B0006701000867010008670100086701000880
:1000C0006701000867010008670100086701000870
:1000D00067010008ED1C00086701000867010008BF
:1000E0006701000867010008670100086701000850
:1000F0006701000867010008670100086701000840
:10010000670100086701000867010008670100082F
:10011000670100086701000867010008670100081F
:10012000670100086701000867010008670100080F
:10013000DFF80CD000F042F800480047A91E000884
:10014000800C002080F30888704700000648804734
:1001500006480047FEE7FEE7FEE7FEE7FEE7FEE7AC
:10016000FEE7FEE7FEE7FEE78D1900083101000813
:10017000202A04DB203A21FA02F00021704721FAFC
:1001800002F3D040C2F12002914008431946704763
:1001900030B50B46014600202022012409E021FA57
:1001A00002F59D4205D303FA02F5491B04FA02F554
:1001B0002844151EA2F10102F1DC30BD064C074DAA
:1001C00006E0E06840F0010394E807009847103427
:1001D000AC42F6D3FFF7B0FF04200008242000084B
:1001E000FEE7FEE706490020C8610648016941F0C4
:1001F00004010161016941F04001016170470000A3
:100200001000002000200240064A0021D16106496A
:100210000A6942F002020A614861086940F0400040
:10022000086170471000002000200240044B0022AB
:10023000DA61044A136943F00103136101807047D6
:1002400010000020002002400E49C868C2060E4877
:1002500003D5C26942F00202C261CA68520703D5DF
:10026000C26942F00102C261CA69D20707D0C269FD
:1002700042F00402C261C86920F00100C861142084
:10028000C8607047002002401000002070B504468E
:1002900000F0FEF90546114E09E0601C07D024B1BC
:1002A00000F0F6F9401BA04201D9032070BDF068B0
:1002B000C007F2D1F068800601D52020F060F06818
:1002C000C00605D4F069C00702D1F068400703D525
:1002D000FFF7BAFF012070BD002070BD0020024072
:1002E00031B500F0D5F9044600F0D2F90099001BB1
:1002F0008842F9D338BD00002DE9F04705460F4686
:100300004FF0010ADFF8908098F8180001280DD00E
:10031000012088F818002868204E4CF25039022835
:1003200007D04846FFF7B2FF98B12FE00220BDE8A2
:10033000F0874846FFF7AAFFF8B90120FFF752FF00
:100340004846FFF7A3FF8246306920F00400306181
:100350001CE04FF0FF303860AC6811E02046FFF73A
:1003600053FF4846FFF792FF8246306920F00200B3
:1003700030615FEA0A0001D03C6007E004F50064E8
:10038000D5E9020100EBC120A042E7D8002088F89F
:1003900018005046CBE7000010000020002002406B
:1003A0000348016941F080010161002070470000AD
:1003B000002002402DE9F05F0746884615461E469C
:1003C0000024DFF8749099F81800012809D0012062
:1003D00089F818004CF2503B5846FFF757FF18B108
:1003E00026E00220BDE8F09F012F05D0022F05D0A6
:1003F0000427DFF848A019E00127FAE70227F8E709
:10040000220128463146FFF7B3FE81B208EB4400D3
:10041000FFF70CFF5846FFF739FFDAF8101021F00C
:100420000101CAF8101018B9641CE4B2BC42E7D349
:10043000002189F81810D5E71000002000200240A4
:1004400005480169090605D5044941600449416030
:1004500000207047012070470020024023016745BB
:10046000AB89EFCD2DE9F84F00230024DFF8DC91B4
:100470004FF00F0809F1040A0AF1040B0BF1040E06
:100480000127A7400A683A40BA4275D1DFF8C0C1D7
:100490004D68A5EB0C0665452BD00DDC032D34D043
:1004A00005DC35B3012D19D0022D2FD11BE0112D04
:1004B00016D0122D2AD119E0B6F5881F19D006DC06
:1004C000B6F5803F15D0B6F5801F1FD111E0B6F507
:1004D000001F0ED0B6F5041F18D10AE0CB6815E056
:1004E000CB681B1D12E0CB6808330FE0CB680C33E0
:1004F0000CE08B6823B1012B04D00823476105E091
:10050000042303E00823076100E00023FF2A01D849
:10051000054601E000F1040502D84FEA840603E035
:10052000A4F108064FEA86062F6808FA06FC27EAB7
:100530000C0703FA06F647EA06072F604D68ED0040
:100540007ED5444DAE6946F00106AE61AD6905F059
:1005500001050095404D24F003067719BE68A507F4
:100560002D0F08FA05FC26EA0C06DFF8F0C06045FE
:1005700003D14FF0000C25E062E0DFF8E4C06045F5
:1005800002D14FF0010C1DE0DFF8D8C0604502D168
:100590004FF0020C16E0DFF8D0C0604502D14FF0FA
:1005A000030C0FE0DFF8C4C0604502D14FF0040C2B
:1005B00008E0DFF8BCC0604502D14FF0050C01E057
:1005C0004FF0060C0CFA05FC4CEA060CC7F808C004
:1005D0004D68ED0305D5D9F800501543C9F8005012
:1005E00004E0D9F800509543C9F800504D68AD03B8
:1005F00005D5DAF800501543CAF8005004E0DAF8DF
:1006000000509543CAF800504D68ED0205D5DBF85F
:1006100000501543CBF8005004E0DBF80050954340
:10062000CBF800504D68AD0205D5DEF800501543FB
:10063000CEF8005004E0DEF800509543CEF80050AC
:10064000641C102CFFF41CAFBDE8F88F00040140BF
:10065000000011100010024000000140000801409D
:10066000000C01400010014000140140001801403E
:10067000001C01408068084201D001207047002022
:100680007047002A01D00161704709040161704779
:10069000014800687047000004000020024801681B
:1006A000491C0160704700000400002010B5074895
:1006B000016841F010010160032000F075F800208E
:1006C00000F006F800F016F8002010BD00200240EF
:1006D00010B5044600F0D6F94FF47A72B0FBF2F090
:1006E00000F0C1FD00222146501E00F03DF8002020
:1006F00010BD000008B51548816941F00101816114
:10070000806900F001000090052000F04DF8002203
:1007100011466FF00B0000F027F8002211466FF031
:100720000A0000F021F8002211466FF0090000F0E5
:100730001BF800221146101F00F016F80022BDE839
:1007400008401146501E00F00FB800000010024093
:1007500000F01F02012191404009800000F1E020DB
:10076000C0F8001170470000F0B40D460D4B1B6837
:10077000C3F30223C3F10704042C00D90424191D78
:10078000072901D2002300E0DB1E012606FA04F14E
:10079000491E294099409E40761E16403143F0BCC8
:1007A00001F01EB80CED00E000F00701054A1068EA
:1007B0004FF6FF03184040EA012003490843106048
:1007C000704700000CED00E00000FA052DE9F0474D
:1007D00004460F46DFF8A492D9F80000A84D00F0B7
:1007E00007010120430446064FF0020C41F288380D
:1007F000B9426FD2D9F8001021F007013943C9F886
:100800000010D9F8001001F00701B94201D0BDE88D
:10081000F0872178890705D56968A26821F0F00181
:10082000114369602178C90761D0616801290BD043
:1008300002291FD09CFAACF2B2FA82F242F02002F6
:1008400052092DD02A682CE093FAA3F2B2FA82F270
:1008500042F02002520901D02A6800E06A6A93FA45
:10086000A3F3B3FA83F303F01F039840024223D1AA
:100870000120CCE796FAA6F2B2FA82F242F0200208
:10088000520901D02A6800E06A6A96FAA6F3B3FA20
:1008900083F303F01F03984002420DD10120B6E715
:1008A0006A6A9CFAACF3B3FA83F303F01F0398402F
:1008B000024201D10120AAE7686820F00300084342
:1008C0006860FFF7E5FE0646606801280AD0022846
:1008D00015D021E025E0FFF7DBFE801B404501D964
:1008E000032094E76868C0F381000128F3D1ADE0EC
:1008F000FFF7CEFE801B404501D9032087E76868DB
:10090000C0F381000228F3D1A0E0FFF7C1FE801BF5
:10091000404501D903207AE7686810F00C0FF4D144
:1009200094E02178890705D56968A26821F0F00173
:10093000114369602178C90779D0616801290BD01A
:1009400002291FD09CFAACF2B2FA82F242F02002E5
:1009500052092DD02A682CE093FAA3F2B2FA82F25F
:1009600042F02002520901D02A6800E06A6A93FA34
:10097000A3F3B3FA83F303F01F039840024223D199
:10098000012044E796FAA6F2B2FA82F242F020027F
:10099000520901D02A6800E06A6A96FAA6F3B3FA0F
:1009A00083F303F01F03984002420DD101202EE78C
:1009B0006A6A9CFAACF3B3FA83F303F01F0398401E
:1009C000024201D1012022E7686820F003000843B9
:1009D0006860FFF75DFE06466068012809D00228BE
:1009E00014D020E0FFF754FE801B404501D90320BE
:1009F0000DE76868C0F381000128F3D117E0FFF725
:100A000047FE801B404501D9032000E76868C0F31A
:100A100081000228F3D10AE0FFF73AFE801B40452F
:100A200001D90320F3E6686810F00C0FF4D1D9F86F
:100A3000000020F007003843C9F80000D9F8000092
:100A400000F00700B84201D00120E0E6207840071E
:100A500005D56868E16820F4E060084368602078A4
:100A6000000706D56868216920F4605040EAC1009B
:100A700068600020FFF72CFE0020C8E6002002403E
:100A80000010024000B500F043F808494968F02220
:100A900092FAA2F201F0F001B2FA82F2D140044AD5
:100AA000515CC8400349086000BD000000100240CE
:100AB000981F00080000002000B5FFF7E3FF07497A
:100AC00049684FF4E06292FAA2F201F4E061B2FAEE
:100AD00082F2D140024A515CC84000BD0010024081
:100AE000981F000800B5FFF7CDFF074949684FF48C
:100AF000605292FAA2F201F46051B2FA82F2D1404D
:100B0000024A515CC84000BD00100240981F000816
:100B100010B585B01AA0D0E90031D0E90220CDE9A6
:100B20000131CDE903201AA000680090194B5968E3
:100B3000194801F00C02042A1DD0082A1BD14FF4D9
:100B4000701494FAA4F401F47012B4FA84F4E2403C
:100B500001ACA25CC90310D559684FF4003393FA75
:100B6000A3F301F40031B3FA83F3D9401DF8011067
:100B7000B0FBF1F0504305B010BD08485043FAE710
:100B800002030405060708090A0B0C0D0E0F1010CE
:100B9000010200000010024000127A0000093D002E
:100BA0002DE9F84F0446F94D20784FF00106C007B3
:100BB00075D068687704C0F38100012807D06868A1
:100BC000C0F3810002281DD16868C0031AD597FAC6
:100BD000A7F0B0FA80F040F02000400901D028686A
:100BE00000E0686A97FAA7F1B1FA81F101F01F02FB
:100BF00006FA02F1084252D0606800284FD1012065
:100C0000BDE8F88F286820F480302860286820F438
:100C100080202860FFF73CFD804607E0FFF738FDA5
:100C2000A0EB0800642801D90320E9E797FAA7F0B0
:100C3000B0FA80F040F02000400901D0286800E0C0
:100C4000686A97FAA7F1B1FA81F101F01F0106FA7B
:100C500001F10842E2D16068B0F5803F11D0A8B13F
:100C6000B0F5A02F1CD0286820F4803028602868B8
:100C700020F4802028606068C8B3FFF709FD804633
:100C80001FE0286840F480302860F4E7286820F4EA
:100C900080302860286820F480202860EBE748E056
:100CA000286840F480202860286840F4803028605C
:100CB000E1E7FFF7EDFCA0EB0800642801D9032071
:100CC0009EE797FAA7F0B0FA80F040F020004009C4
:100CD00001D0286800E0686A97FAA7F1B1FA81F1BB
:100CE00001F01F0106FA01F10842E2D021E0FFE71E
:100CF000FFF7CEFC804607E0FFF7CAFCA0EB080038
:100D0000642801D903207BE797FAA7F0B0FA80F0B6
:100D100040F02000400901D0286800E0686A97FA96
:100D2000A7F1B1FA81F101F01F0106FA01F10842C1
:100D3000E2D12078DFF8588280074FF0000B4FF0A7
:100D4000020732D568684FF0F80A10F00C0F07D090
:100D50006868C0F38100022828D16868C00325D4E0
:100D600097FAA7F0B0FA80F040F02000400901D0D7
:100D7000286800E0686A97FAA7F1B1FA81F101F0FA
:100D80001F0106FA01F1084204D02069012801D0B0
:100D9000012035E728689AFAAAF26169B2FA82F26C
:100DA00020F0F8009140084328605CE0206990B38F
:100DB00096FAA6F0B0FA80F048F82060FFF768FCD9
:100DC000814607E0FFF764FCA0EB0900022801D987
:100DD000032015E797FAA7F0B0FA80F040F0200062
:100DE000400901D0286800E0686A97FAA7F1B1FAD3
:100DF00081F101F01F0106FA01F10842E2D02868F2
:100E00009AFAAAF26169B2FA82F220F0F8009140EF
:100E10000843286027E0FFE796FAA6F0B0FA80F0D2
:100E200048F820B0FFF734FC814607E0FFF730FCBC
:100E3000A0EB0900022801D90320E1E697FAA7F008
:100E4000B0FA80F040F02000400901D0286800E0AE
:100E5000686A97FAA7F1B1FA81F101F01F0106FA69
:100E600001F10842E2D12078000770D5A069C0B333
:100E700096FAA6F0B0FA80F008EB8000C0F8806423
:100E8000FFF706FC814607E0FFF702FCA0EB090034
:100E9000022801D90320B3E697FAA7F0B0FA80F050
:100EA00040F06000B6EB501F01D128680BE097FAC4
:100EB000A7F0B0FA80F040F06000B7EB501F01D10E
:100EC000286A00E0686A97FAA7F1B1FA81F101F0A7
:100ED0001F0206FA02F10842D6D00120FFF700FAFD
:100EE00035E0FFE796FAA6F0B0FA80F008EB800054
:100EF000C0F880B4FFF7CCFB814607E0FFF7C8FBE2
:100F0000A0EB0900022801D9032079E697FAA7F09F
:100F1000B0FA80F040F06000B6EB501F01D12868B5
:100F20000BE097FAA7F0B0FA80F040F06000B7EB62
:100F3000501F01D1286A00E0686A97FAA7F1B1FA58
:100F400081F101F01F0206FA02F10842D6D12078A1
:100F5000400770D5E86940F08050E861E86900F02A
:100F600080500090DFF82CA0DAF8000040F4807088
:100F7000CAF80000FFF78CFB81460DE0FFF788FB05
:100F8000A0EB0900642807D9032039E600100240CD
:100F90000000424200700040DAF80000C005EDD5C4
:100FA000286A20F001002862286A20F004002862E4
:100FB000FFF76EFB814641F2883A07E0FFF768FBD6
:100FC000A0EB0900504501D9032019E697FAA7F0D4
:100FD000B0FA80F040F04000B6EB501F01D1286815
:100FE0000BE097FAA7F0B0FA80F040F04000B7EBC2
:100FF000501F01D1286A00E0686A97FAA7F1B1FA98
:1010000081F101F01F0106FA01F10842D6D1E06832
:10101000012811D0A8B105281CD0286A20F00100B1
:101020002862286A20F004002862E068C8B3FFF74D
:101030002FFB81461FE06EE0286A40F00100286225
:10104000F3E7286A20F001002862286A20F00400F3
:101050002862EAE7286A40F004002862286A40F023
:1010600001002862E1E7FFF713FBA0EB0900504500
:1010700001D90320C4E597FAA7F0B0FA80F040F058
:101080004000B6EB501F01D128680CE097FAA7F09A
:10109000B0FA80F040F04000B7EB501F02D1286A50
:1010A00001E00BE0686A97FAA7F1B1FA81F101F06B
:1010B0001F0206FA02F10842D5D02CE0FFF7E8FA49
:1010C000814607E0FFF7E4FAA0EB0900504501D99B
:1010D000032095E597FAA7F0B0FA80F040F04000C1
:1010E000B6EB501F01D128680BE097FAA7F0B0FAD1
:1010F00080F040F04000B7EB501F01D1286A00E0BB
:10110000686A97FAA7F1B1FA81F101F01F0206FAB5
:1011100002F10842D6D1E06980B36968C1F3810168
:10112000022970D04FF080794FF00077022809D063
:1011300099FAA9F0B0FA80F048F820B0FFF7A8FAC1
:10114000044668E099FAA9F0B0FA80F048F820B0B7
:10115000FFF79EFA824607E0FFF79AFAA0EB0A0033
:10116000022801D903204BE597FAA7F0B0FA80F0E6
:1011700040F02000400902D0286801E060E0686A81
:1011800097FAA7F1B1FA81F101F01F0106FA01F116
:101190000842E1D1206AB0F5803F05D16868A168B6
:1011A00020F4003008436860D4E908010843696806
:1011B00021F474110843686099FAA9F0B0FA80F03C
:1011C00048F82060FFF764FA044606E0FFF760FA8B
:1011D000001B022801D9032012E597FAA7F0B0FA04
:1011E00080F040F02000400901D0296800E0696AE1
:1011F00097FAA7F0B0FA80F000F01F0006FA00F0AE
:101200000142E3D01CE01DE0FFF742FA001B022878
:1012100001D90320F4E497FAA7F0B0FA80F040F087
:101220002000400901D0296800E0696A97FAA7F018
:10123000B0FA80F000F01F0006FA00F00142E3D19E
:101240000020DDE40120DBE44FF0E021042804D09D
:10125000086920F0040008617047086940F0040044
:1012600008617047704710B5401EB0F1807F01D310
:10127000012010BD4FF0E02460610F21601700F0E5
:10128000AFFA0020A06107202061002010BD10B53A
:10129000FFF7E8FF10BD704738B5044620680168C5
:1012A000C1F30001C26802F48072002904D01AB1AF
:1012B000E16B41F00101E1630168C1F34002416962
:1012C00001F0010122B119B1E26B42F00402E263C4
:1012D0000268C2F3800222B119B1E26B42F002024D
:1012E000E2630268C2F3C00222B119B1E16B41F0BE
:1012F0000801E1630168C1F34011C06800F02000FB
:1013000019B110B1204600F07AFB20680168C1F3E2
:10131000C011C06800F0800019B110B1204600F083
:101320004DFC20680168C1F38011C06800F04000E6
:1013300019B110B1204600F04DFBE06B002809D038
:101340002068016840680090012084F83900204638
:10135000FFF7A1FF38BD70B50446002C04D094F807
:101360003900002510B106E0012070BD84F8385026
:10137000204600F021F8022084F839002068C16876
:1013800021F40051C160204600F092FB2068016901
:1013900021F4904101612068416921F02A014161F5
:1013A0002068C16841F40051C160E563012084F800
:1013B0003900002070BD000010B586B000681149EA
:1013C00088421DD11048816941F480418161806962
:1013D00000F4804001904FF40070029002200390CE
:1013E00003200590094C02A92046FFF73BF8211580
:1013F000029100210391049102A92046FFF732F8DF
:1014000006B010BD00380140001002400008014045
:1014100090F83930012B03D0122B01D002207047F5
:1014200031B32AB390F83830012B23D0012380F850
:10143000383081628285C2850021C16390F83920ED
:10144000122A19D0222280F8392080F83810016839
:10145000CA6842F48072CA6001684A6942F00102B7
:101460004A610068C16841F02001C16000207047F6
:101470000120704702207047322280F83920E4E7CB
:101480000949B1F8000CB0F55C4F07D2074A137850
:10149000421CA1F8002CA1F550410B540122034934
:1014A0000348FFF7B5BF000000E00020080000205F
:1014B000300000202DE9F04104460D46984694F88E
:1014C0003900012804D0222802D00220BDE8F08192
:1014D0009DB192B194F83800012810D0012684F80B
:1014E00038600027E76394F83900222809D01220D9
:1014F00084F83900A284E2842EE00120E6E702208D
:10150000E4E7322084F83900F4E7401EE084A06864
:10151000B0F5805F08D0434600228021204600F0CD
:1015200082FBA8B10320D1E7434600228021204658
:1015300000F079FB08B10320C8E728882168C0F3D0
:1015400008004860206908B16D1C05E0AD1C03E08F
:10155000216815F8010B4860E08C0028D5D143467E
:1015600000224021204600F05EFB08B10320ADE7D9
:1015700094F83900322805D084F8396084F838703E
:101580000020A3E7222084F83900F7E77047FEE740
:1015900010B50168064A1140B1F1005F07D14468F7
:1015A0000068FEF7CFFDA446BDE81040604710BDBF
:1015B0000000FE2F2DE9F04707460D469046002417
:1015C00000264FF48069DFF84CA015E0687800022F
:1015D00015F8021B08442146641CA4B22AF8110025
:1015E0004A46944206D100240A49384600F01AF9C6
:1015F00007F50067B61CB6B24645E7D3002C06D007
:1016000022463846BDE8F047024900F00BB9BDE874
:10161000F087000002EC002010B50D4C012120469F
:10162000FFF728F8012808D10A20FEF759FE01210A
:101630002046FFF71FF8012801D0002010BD01212E
:101640002046FFF717F80128F9D0012010BD00004F
:101650000008014070B50D4D4FF400542146284656
:10166000FFF708F838B90A20FEF73AFE2146284667
:10167000FFF700F808B1002070BD21462846FEF7AC
:10168000F9FF0028F9D0012070BD000000100140D2
:1016900030B585B01248816941F0040181618169EA
:1016A00001F004010091816941F0100181618069BC
:1016B00000F0100000900124019400250295022002
:1016C000039001A90748FEF7CDFE60030190029543
:1016D000039401A90448FEF7C5FE05B030BD000023
:1016E000001002400008014000100140F0B585B034
:1016F0002248816941F008018161816901F0080196
:101700000091816941F480718161816901F4807186
:101710000091816941F480718161806900F4807079
:101720000090174F002201213846FEF7AAFF154E00
:10173000002240213046FEF7A4FF002280213046DF
:10174000FEF79FFF0124019402940225049501A94C
:101750003846FEF787FE402001900294049501A9C7
:101760003046FEF77FFE802001900294049501A987
:101770003046FEF777FE05B0F0BD000000100240D5
:10178000000C01400020014008B51148816941F07A
:1017900004018161806900F0040000900E480D4949
:1017A00001604FF4E131416000218160C16001615D
:1017B0000C2242618161C161FFF7CDFD0022012150
:1017C0002520FEF7D1FFBDE808402520FEF7C0BF69
:1017D000001002400038014030000020FEE7704752
:1017E0000907090E002806DA00F00F0000F1E020DA
:1017F00080F8141D704700F1E02080F80014704755
:1018000010B50446002307E0204600F008F821F850
:101810001300A41C5B1C9BB29342F5D310BD00883F
:10182000704700002DE9F84F82460F46154600200C
:101830000090AAF10064B4F5002F3DD2FEF700FE3F
:101840004FEAD428C4F34906C6F58064A54200D8FF
:101850002C46DFF89CB03EE032183BF812208A425A
:1018600003D1401C80B2A042F6D3A0421BD2214833
:1018700000210160C0F808900121C1606946FEF7AF
:101880003BFD002006E0821937F810102BF81210EB
:10189000401C80B2A042F6D348464FF480621449FF
:1018A00000F02AF804E022463946504600F024F8B9
:1018B000A54203D1FEF774FDBDE8F88F08F10108D9
:1018C000002607EB4407A244281B85B24FF480642E
:1018D000A54200D82C464FF0006000EBC829421406
:1018E00003494846FFF78CFF00204FF6FF71BAE727
:1018F00070000020700800202DE9F04105460E46DA
:101900001746002409E036F8142000232946012058
:10191000FEF750FDAD1C641CA4B2BC42F3D3BDE87D
:10192000F08110B5FEF7BAFEBDE81040FFF7AFBC7E
:1019300030B58FB001200590000406900024079474
:1019400002250C950D904FF4E0100E9005A8FFF7BE
:1019500027F90F20009001950294680203900494E7
:1019600002216846FEF732FFFFF78CF84FF47A71D8
:10197000B0FBF1F0FFF777FC0420FFF765FC0022D5
:101980001146501EFEF7F0FE0FB030BD0D48016845
:1019900041F00101016041680B4A1140416001685A
:1019A0000A4A11400160016821F480210160416808
:1019B00021F4FE0141604FF41F0181600449C0031E
:1019C00008607047001002400000FFF8FFFFF6FEBD
:1019D00008ED00E010B50168CA6822F04002CA6054
:1019E00090F83910322906D0012180F83910FFF71C
:1019F000CDFD002010BD222180F83910F7E710B589
:101A000090F83910222903D0322901D0022010BDCC
:101A10008168B1F5805F11D0016919B30168496827
:101A200001F07F03816A4A1C82620B70C18D491EDE
:101A30000904090CC1851CD0002010BD816A02690F
:101A40003AB102685268D2B20A80816A491C816246
:101A5000ECE702685268C2F308020A80816A891CB6
:101A60008162E3E701684A68816A4B1C83620A70FD
:101A7000DCE70168CA6822F02002CA6090F83910D9
:101A8000322910D00168CA6822F48072CA600168E5
:101A90004A6922F001024A61012180F83910FFF7FA
:101AA000EFFC002010BD122180F83910F7E700008C
:101AB0002DE9F041044620680169E26821F44051B3
:101AC00011430161A16820690143606901432068F5
:101AD000C26841F20C639A430A43C26020684169BC
:101AE000A26921F4407111434161334920686425A2
:101AF0003226884230D1FEF7F5FF00EBC00101EB42
:101B0000001061688900B0FBF1F0B0FBF5F7FEF75B
:101B1000E9FF00EBC00101EB001061688900B0FB38
:101B2000F1F8FEF7DFFF00EBC00101EB0010616888
:101B30008900B0FBF1F0B0FBF5F06FF018014843FD
:101B400008EB800006EB0010B0FBF5F0216867F3AE
:101B50001F108860BDE8F081FEF7AEFF00EBC0010A
:101B600001EB001061688900B0FBF1F0B0FBF5F704
:101B7000FEF7A2FF00EBC00101EB001061688900D5
:101B8000B0FBF1F8FEF798FF00EBC00101EB00108D
:101B900061688900B0FBF1F0B0FBF5F06FF018015F
:101BA000484308EB800006EB0010B0FBF5F021681D
:101BB00067F31F108860CDE70038014090F83910B6
:101BC000122903D0322901D0022070478168B1F573
:101BD000805F0CD0016A4A1C026202680978516079
:101BE000C18C491E0904090CC18410D019E0016A96
:101BF00002680988C1F308015160016919B1016ADD
:101C0000491C0162ECE7016A891C0162E8E701688E
:101C1000CA6822F08002CA600068C16841F04001D1
:101C2000C160002070472DE9F04704460F469246F8
:101C30001D46FEF72DFD06464FF000084FF0010946
:101C4000BAF1000F23D04AE0681C20D025B1FEF77E
:101C50001FFD801BA8421AD92068C16821F08001AD
:101C6000C1602068C16821F02001C1602068C1689E
:101C700021F48071C1602068416921F00101416156
:101C800084F8399084F838800320BDE8F087206814
:101C9000006837EA0000D7D126E0681C1FD025B1C4
:101CA000FEF7F6FC801BA84219D92068C16821F014
:101CB0008001C1602068C16821F02001C1602068F6
:101CC000C16821F48071C1602068416921F001017F
:101CD000416184F8399084F838800320D5E7206882
:101CE000006837EA0000D8D00020CEE70148FFF7AF
:101CF000D3BA000030000020FEE700000FB4054B0F
:101D000010B503A9044A029800F018F810BC5DF859
:101D100014FB0000911E00080C00002002E008C81F
:101D2000121F08C1002AFAD170477047002001E055
:101D300001C1121F002AFBD1704700002DE9FF4F9F
:101D400089B09B460446002506E025280BD05A465C
:101D50000B999047641C6D1C20780028F5D10DB0BC
:101D60002846BDE8F08F0027B8460122474900E029
:101D7000074314F8013F203B02FA03F00842F7D171
:101D800020782E2819D114F8010F47F004072A28CB
:101D90000ED06FF02F022078A0F1300109290CD865
:101DA00008EB880102EB410100EB0108641CF2E73B
:101DB0000A98641C50F8048B0A9020780028CED032
:101DC000642808D0692806D075281ED05A460B9979
:101DD00090476D1C58E00A994FF00A0901C90A9111
:101DE000002802DA40422D2102E0390504D52B21DA
:101DF0008DF82010012103E0F90704D02021F7E736
:101E00008A4608AE0DE00021FAE70A994FF00A0968
:101E100001C90A91F7E74946FEF7BAF9303106F8E9
:101E2000011D0028F7D1ADEB060000F1200978076D
:101E300001D44FF00108C84502DDA8EB090000E01D
:101E400000208046002706E008A85A46C05D0B998E
:101E500090476D1C7F1C5745F6DB04E030205A4646
:101E60000B9990476D1CB8F10001A8F10108F5DC51
:101E700005E016F8010B5A460B9990476D1CB9F115
:101E80000001A9F10109F4DC641C65E709280100DF
:101E900013B54FF6FF73012269460248FFF70AFBAC
:101EA00000981CBD30000020FEF700FCFFF740FD4D
:101EB000FFF71CFCFFF7ECFBFFF766FC012216495D
:101EC0001648FFF7A5FA16A0FFF718FF1B48FFF703
:101ED00015FF1B4D1B4CFFF79FFB012810D1B4F8D9
:101EE000001C19A0FFF70AFF1CA0FFF707FFB4F8BA
:101EF000002C1E492846FFF75DFB1DA0FFF7FEFEE4
:101F0000FFF7A8FB0128E6D11FA0FFF7F7FE284640
:101F1000FFF73EFBDFE70000080000203000002054
:101F2000CFC2C3E6BDABC9D5D0B42041505020B517
:101F3000BD20464C4153480A00000000A81F00087D
:101F40000000010800E0002041505020B3A4B6C8B2
:101F5000A3BA2564D7D6BDDA0A000000BFAACABC5E
:101F6000B8FCD0C2204150500A00000000100020F0
:101F7000B5A5BBF7204B455932A3ACD6B4D0D02081
:101F80004150500A00000000BFAACABCD6B4D0D04D
:101F9000204150500A00000000000000010203042C
:101FA0000102030406070809C8E7B9FBD0E8D2AA72
:101FB000B8FCD0C220415050A3ACC7EBB7A2CBCDE8
:101FC0002041505020B9CCBCFEA3A82E62696ECE31
:101FD000C4BCFEA3A9A3ACCDEAB1CFBAF3C7EBB59D
:101FE000A5BBF7204B455931A1A3B7F1D4F2B5A554
:101FF000BBF7204B45593220D6B4D0D020415050A9
:10200000A1A30A0024200008000000201000000006
:102010001C1D00083420000810000020F4F300000C
:102020002C1D000800A24A0400000000000000006F
:0420300000000000AC
:0400000508000131BD
:00000001FF
