:020000040801F1
:1000000008040020450101089F100108670F01083E
:100010009D1001088D010108791101080000000000
:10002000000000000000000000000000570101086F
:100030008F010108000000005B010108C1100108E8
:100040005F0101085F0101085F0101085F0101080C
:100050005F0101085F0101085F0101085F010108FC
:100060005F0101085F0101085F0101085F010108EC
:100070005F0101085F0101085F0101085F010108DC
:100080005F0101085F0101085F0101085F010108CC
:100090005F0101085F0101085F0101085F010108BC
:1000A0005F0101085F0101085F0101085F010108AC
:1000B0005F0101085F0101085F0101085F0101089C
:1000C0005F0101085F0101085F0101085F0101088C
:1000D0005F0101085F0101085F0101085F0101087C
:1000E0005F0101085F0101085F0101085F0101086C
:1000F0005F0101085F0101085F0101085F0101085C
:100100005F0101085F0101085F0101085F0101084B
:100110005F0101085F0101085F0101085F0101083B
:100120005F0101085F0101085F0101085F0101082B
:10013000DFF80CD000F018F80048004799110108CA
:10014000080400200648804706480047FEE7FEE70F
:10015000FEE7FEE7FEE7FEE7FEE7FEE7FEE7FEE777
:100160002D11010831010108064C074D06E0E06839
:1001700040F0010394E8070098471034AC42F6D3EE
:10018000FFF7DAFF7012010890120108FEE7FEE7A0
:1001900031B500F01DF9044600F01AF90099001B72
:1001A0008842F9D338BD00002DE9F84F0023002420
:1001B000DFF8DC914FF00F0809F1040A0AF1040B93
:1001C0000BF1040E0127A7400A683A40BA4275D1E4
:1001D000DFF8C0C14D68A5EB0C0665452BD00DDCE2
:1001E000032D34D005DC35B3012D19D0022D2FD1CC
:1001F0001BE0112D16D0122D2AD119E0B6F5881F5B
:1002000019D006DCB6F5803F15D0B6F5801F1FD19A
:1002100011E0B6F5001F0ED0B6F5041F18D10AE0A4
:10022000CB6815E0CB681B1D12E0CB6808330FE0EC
:10023000CB680C330CE08B6823B1012B04D008236E
:10024000476105E0042303E00823076100E0002381
:10025000FF2A01D8054601E000F1040502D84FEA63
:10026000840603E0A4F108064FEA86062F6808FA20
:1002700006FC27EA0C0703FA06F647EA06072F6092
:100280004D68ED007ED5444DAE6946F00106AE6185
:10029000AD6905F001050095404D24F0030677197E
:1002A000BE68A5072D0F08FA05FC26EA0C06DFF844
:1002B000F0C0604503D14FF0000C25E062E0DFF8AC
:1002C000E4C0604502D14FF0010C1DE0DFF8D8C05A
:1002D000604502D14FF0020C16E0DFF8D0C0604557
:1002E00002D14FF0030C0FE0DFF8C4C0604502D12B
:1002F0004FF0040C08E0DFF8BCC0604502D14FF0BD
:10030000050C01E04FF0060C0CFA05FC4CEA060C5B
:10031000C7F808C04D68ED0305D5D9F8005015435E
:10032000C9F8005004E0D9F800509543C9F80050CE
:100330004D68AD0305D5DAF800501543CAF80050F2
:1003400004E0DAF800509543CAF800504D68ED0219
:1003500005D5DBF800501543CBF8005004E0DBF87E
:1003600000509543CBF800504D68AD0205D5DEF83E
:1003700000501543CEF8005004E0DEF800509543DD
:10038000CEF80050641C102CFFF41CAFBDE8F88FB1
:100390000004014000001110001002400000014064
:1003A00000080140000C0140001001400014014011
:1003B00000180140001C0140C2684A40C2607047FA
:1003C000002A01D0016170470904016170470000F3
:1003D00001480068704700000400002002480168DE
:1003E000491C0160704700000400002010B5074858
:1003F000016841F010010160032000F069F800205D
:1004000000F006F800F016F8002010BD00200240B1
:1004100010B5044600F0CAF94FF47A72B0FBF2F05E
:1004200000F089FD00222146501E00F031F8002026
:1004300010BD000008B51548816941F001018161D6
:10044000806900F001000090032000F041F80022D4
:1004500011466FF00B0000F01BF8002211466FF000
:100460000A0000F015F8002211466FF0090000F0B4
:100470000FF800221146101F00F00AF80022BDE814
:1004800008401146501E00F003B800000010024062
:10049000F0B40D460D4B1B68C3F30223C3F10704F0
:1004A000042C00D90424191D072901D2002300E0DF
:1004B000DB1E012606FA04F1491E294099409E40A0
:1004C000761E16403143F0BC00F0EABD0CED00E0B2
:1004D00000F00701054A10684FF6FF03184040EA94
:1004E0000120034908431060704700000CED00E054
:1004F0000000FA052DE9F04704460F46DFF8A49204
:10050000D9F80000A84D00F0070101204304460679
:100510004FF0020C41F28838B9426FD2D9F800107E
:1005200021F007013943C9F80010D9F8001001F093
:100530000701B94201D0BDE8F0872178890705D5C8
:100540006968A26821F0F001114369602178C90748
:1005500061D0616801290BD002291FD09CFAACF24E
:10056000B2FA82F242F0200252092DD02A682CE021
:1005700093FAA3F2B2FA82F242F02002520901D0B9
:100580002A6800E06A6A93FAA3F3B3FA83F303F0EC
:100590001F039840024223D10120CCE796FAA6F22D
:1005A000B2FA82F242F02002520901D02A6800E039
:1005B0006A6A96FAA6F3B3FA83F303F01F0398402E
:1005C00002420DD10120B6E76A6A9CFAACF3B3FA95
:1005D00083F303F01F039840024201D10120AAE7F0
:1005E000686820F0030008436860FFF7F1FE0646E4
:1005F000606801280AD0022815D021E025E0FFF725
:10060000E7FE801B404501D9032094E76868C0F3EA
:1006100081000128F3D1ADE0FFF7DAFE801B4045F1
:1006200001D9032087E76868C0F381000228F3D16D
:10063000A0E0FFF7CDFE801B404501D903207AE7FB
:10064000686810F00C0FF4D194E02178890705D583
:100650006968A26821F0F001114369602178C90737
:1006600079D0616801290BD002291FD09CFAACF225
:10067000B2FA82F242F0200252092DD02A682CE010
:1006800093FAA3F2B2FA82F242F02002520901D0A8
:100690002A6800E06A6A93FAA3F3B3FA83F303F0DB
:1006A0001F039840024223D1012044E796FAA6F2A4
:1006B000B2FA82F242F02002520901D02A6800E028
:1006C0006A6A96FAA6F3B3FA83F303F01F0398401D
:1006D00002420DD101202EE76A6A9CFAACF3B3FA0C
:1006E00083F303F01F039840024201D1012022E767
:1006F000686820F0030008436860FFF769FE06465B
:100700006068012809D0022814D020E0FFF760FEBD
:10071000801B404501D903200DE76868C0F38100C4
:100720000128F3D117E0FFF753FE801B404501D9A4
:10073000032000E76868C0F381000228F3D10AE0D3
:10074000FFF746FE801B404501D90320F3E66868A9
:1007500010F00C0FF4D1D9F8000020F00700384356
:10076000C9F80000D9F8000000F00700B84201D035
:100770000120E0E62078400705D56868E16820F4AC
:10078000E060084368602078000706D56868216942
:1007900020F4605040EAC10068600020FFF738FE96
:1007A0000020C8E6002002400010024000B500F022
:1007B00017F808494968F02292FAA2F201F0F00114
:1007C000B2FA82F2D140044A515CC8400349086041
:1007D00000BD00000010024060120108000000206F
:1007E00010B585B01AA0D0E90031D0E90220CDE9DA
:1007F0000131CDE903201AA000680090194B596817
:10080000194801F00C02042A1DD0082A1BD14FF40C
:10081000701494FAA4F401F47012B4FA84F4E2406F
:1008200001ACA25CC90310D559684FF4003393FAA8
:10083000A3F301F40031B3FA83F3D9401DF801109A
:10084000B0FBF1F0504305B010BD08485043FAE743
:1008500002030405060708090A0B0C0D0E0F101001
:10086000010200000010024000127A0000093D0061
:100870002DE9F84F0446F94D20784FF00106C007E6
:1008800075D068687704C0F38100012807D06868D4
:10089000C0F3810002281DD16868C0031AD597FAF9
:1008A000A7F0B0FA80F040F02000400901D028689D
:1008B00000E0686A97FAA7F1B1FA81F101F01F022E
:1008C00006FA02F1084252D0606800284FD1012098
:1008D000BDE8F88F286820F480302860286820F46C
:1008E00080202860FFF774FD804607E0FFF770FD69
:1008F000A0EB0800642801D90320E9E797FAA7F0E4
:10090000B0FA80F040F02000400901D0286800E0F3
:10091000686A97FAA7F1B1FA81F101F01F0106FAAE
:1009200001F10842E2D16068B0F5803F11D0A8B172
:10093000B0F5A02F1CD0286820F4803028602868EB
:1009400020F4802028606068C8B3FFF741FD80462E
:100950001FE0286840F480302860F4E7286820F41D
:1009600080302860286820F480202860EBE748E089
:10097000286840F480202860286840F4803028608F
:10098000E1E7FFF725FDA0EB0800642801D903206B
:100990009EE797FAA7F0B0FA80F040F020004009F7
:1009A00001D0286800E0686A97FAA7F1B1FA81F1EE
:1009B00001F01F0106FA01F10842E2D021E0FFE751
:1009C000FFF706FD804607E0FFF702FDA0EB0800F9
:1009D000642801D903207BE797FAA7F0B0FA80F0EA
:1009E00040F02000400901D0286800E0686A97FACA
:1009F000A7F1B1FA81F101F01F0106FA01F10842F5
:100A0000E2D12078DFF8588280074FF0000B4FF0DA
:100A1000020732D568684FF0F80A10F00C0F07D0C3
:100A20006868C0F38100022828D16868C00325D413
:100A300097FAA7F0B0FA80F040F02000400901D00A
:100A4000286800E0686A97FAA7F1B1FA81F101F02D
:100A50001F0106FA01F1084204D02069012801D0E3
:100A6000012035E728689AFAAAF26169B2FA82F29F
:100A700020F0F8009140084328605CE0206990B3C2
:100A800096FAA6F0B0FA80F048F82060FFF7A0FCD4
:100A9000814607E0FFF79CFCA0EB0900022801D982
:100AA000032015E797FAA7F0B0FA80F040F0200095
:100AB000400901D0286800E0686A97FAA7F1B1FA06
:100AC00081F101F01F0106FA01F10842E2D0286825
:100AD0009AFAAAF26169B2FA82F220F0F800914023
:100AE0000843286027E0FFE796FAA6F0B0FA80F006
:100AF00048F820B0FFF76CFC814607E0FFF768FC80
:100B0000A0EB0900022801D90320E1E697FAA7F03B
:100B1000B0FA80F040F02000400901D0286800E0E1
:100B2000686A97FAA7F1B1FA81F101F01F0106FA9C
:100B300001F10842E2D12078000770D5A069C0B366
:100B400096FAA6F0B0FA80F008EB8000C0F8806456
:100B5000FFF73EFC814607E0FFF73AFCA0EB0900F7
:100B6000022801D90320B3E697FAA7F0B0FA80F083
:100B700040F06000B6EB501F01D128680BE097FAF7
:100B8000A7F0B0FA80F040F06000B7EB501F01D141
:100B9000286A00E0686A97FAA7F1B1FA81F101F0DA
:100BA0001F0206FA02F10842D6D00120FFF7F0FA40
:100BB00035E0FFE796FAA6F0B0FA80F008EB800087
:100BC000C0F880B4FFF704FC814607E0FFF700FCA3
:100BD000A0EB0900022801D9032079E697FAA7F0D3
:100BE000B0FA80F040F06000B6EB501F01D12868E9
:100BF0000BE097FAA7F0B0FA80F040F06000B7EB96
:100C0000501F01D1286A00E0686A97FAA7F1B1FA8B
:100C100081F101F01F0206FA02F10842D6D12078D4
:100C2000400770D5E86940F08050E861E86900F05D
:100C300080500090DFF82CA0DAF8000040F48070BB
:100C4000CAF80000FFF7C4FB81460DE0FFF7C0FBC8
:100C5000A0EB0900642807D9032039E60010024000
:100C60000000424200700040DAF80000C005EDD5F7
:100C7000286A20F001002862286A20F00400286217
:100C8000FFF7A6FB814641F2883A07E0FFF7A0FB99
:100C9000A0EB0900504501D9032019E697FAA7F007
:100CA000B0FA80F040F04000B6EB501F01D1286848
:100CB0000BE097FAA7F0B0FA80F040F04000B7EBF5
:100CC000501F01D1286A00E0686A97FAA7F1B1FACB
:100CD00081F101F01F0106FA01F10842D6D1E06866
:100CE000012811D0A8B105281CD0286A20F00100E5
:100CF0002862286A20F004002862E068C8B3FFF781
:100D000067FB81461FE06EE0286A40F00100286220
:100D1000F3E7286A20F001002862286A20F0040026
:100D20002862EAE7286A40F004002862286A40F056
:100D300001002862E1E7FFF74BFBA0EB09005045FB
:100D400001D90320C4E597FAA7F0B0FA80F040F08B
:100D50004000B6EB501F01D128680CE097FAA7F0CD
:100D6000B0FA80F040F04000B7EB501F02D1286A83
:100D700001E00BE0686A97FAA7F1B1FA81F101F09E
:100D80001F0206FA02F10842D5D02CE0FFF720FB43
:100D9000814607E0FFF71CFBA0EB0900504501D995
:100DA000032095E597FAA7F0B0FA80F040F04000F4
:100DB000B6EB501F01D128680BE097FAA7F0B0FA04
:100DC00080F040F04000B7EB501F01D1286A00E0EE
:100DD000686A97FAA7F1B1FA81F101F01F0206FAE9
:100DE00002F10842D6D1E06980B36968C1F381019C
:100DF000022970D04FF080794FF00077022809D097
:100E000099FAA9F0B0FA80F048F820B0FFF7E0FABC
:100E1000044668E099FAA9F0B0FA80F048F820B0EA
:100E2000FFF7D6FA824607E0FFF7D2FAA0EB0A00F6
:100E3000022801D903204BE597FAA7F0B0FA80F019
:100E400040F02000400902D0286801E060E0686AB4
:100E500097FAA7F1B1FA81F101F01F0106FA01F149
:100E60000842E1D1206AB0F5803F05D16868A168E9
:100E700020F4003008436860D4E908010843696839
:100E800021F474110843686099FAA9F0B0FA80F06F
:100E900048F82060FFF79CFA044606E0FFF798FA4E
:100EA000001B022801D9032012E597FAA7F0B0FA37
:100EB00080F040F02000400901D0296800E0696A14
:100EC00097FAA7F0B0FA80F000F01F0006FA00F0E1
:100ED0000142E3D01CE01DE0FFF77AFA001B022874
:100EE00001D90320F4E497FAA7F0B0FA80F040F0BB
:100EF0002000400901D0296800E0696A97FAA7F04C
:100F0000B0FA80F000F01F0006FA00F00142E3D1D1
:100F10000020DDE40120DBE44FF0E021042804D0D0
:100F2000086920F0040008617047086940F0040077
:100F300008617047704710B5401EB0F1807F01D343
:100F4000012010BD4FF0E02460610F21601700F018
:100F5000A7F80020A06107202061002010BD10B577
:100F6000FFF7E8FF10BDFEE7F0B585B022488169C4
:100F700041F008018161816901F0080100918169F6
:100F800041F480718161816901F48071009181690E
:100F900041F480718161806900F480700090174F86
:100FA000002201213846FFF70BFA154E002240219E
:100FB0003046FFF705FA002280213046FFF700FA9D
:100FC0000124019402940225049501A93846FFF7F3
:100FD000EBF8402001900294049501A93046FFF7F8
:100FE000E3F8802001900294049501A93046FFF7B0
:100FF000DBF805B0F0BD000000100240000C01401D
:101000000020014070B504462248234D002914D029
:10101000012928D0E10702D00121FFF7CDF9A0076F
:1010200003D540212846FFF7C7F9600731D5284688
:10103000BDE870408021FFF7BFB9E10703D000226F
:101040000121FFF7BDF9A00704D500224021284661
:10105000FFF7B6F960071CD52846BDE870400022AE
:101060008021FFF7ADB9E10703D001221146FFF758
:10107000A7F9A00704D5012240212846FFF7A0F9CF
:10108000600706D52846BDE8704001228021FFF7A1
:1010900097B970BD000C014000200140FEE7704789
:1010A0000907090E002806DA00F00F0000F1E02021
:1010B00080F8141D704700F1E02080F8001470479C
:1010C00010B5FFF78BF9BDE81040FFF748BF30B50A
:1010D0008FB001200590000406900024079402259B
:1010E0000C950D904FF4E0100E9005A8FFF7C0FB93
:1010F0000F2000900195029468020390049402214D
:101100006846FFF7F7F9FFF751FB4FF47A71B0FB30
:10111000F1F0FFF710FF0420FFF7FEFE002211465A
:10112000501EFFF7B5F90FB030BD00000D48016843
:1011300041F00101016041680B4A114041600168C2
:101140000A4A11400160016821F480210160416870
:1011500021F4FE0141604FF41F01816005490448FC
:1011600008607047001002400000FFF8FFFFF6FE25
:101170000000012008ED00E0FEE702E008C8121FB1
:1011800008C1002AFAD170477047002001E001C170
:10119000121F002AFBD170470024FFF727F9FFF741
:1011A00096FFFFF7E1FE2C4D2C4E4FF4C877072C2D
:1011B00048D2DFE804F004090E17222D3800002180
:1011C0000720FFF71FFF3DE001210846FFF71AFF48
:1011D00038E000210120FFF715FF01210220FFF771
:1011E00011FF2FE0002240212846FFF7E9F80122F5
:1011F00080212846FFF7E4F824E0002280212846D9
:10120000FFF7DEF8012240212846FFF7D9F819E060
:10121000002240212846FFF7D3F80122114630462C
:10122000FFF7CEF80EE0012211463046FFF7C8F86E
:10123000012240212846FFF7C3F8012280212846D9
:10124000FFF7BEF83846FEF7A3FF641CE4B2072C94
:10125000ADD10024ABE7000000200140000C0140AC
:10126000000000000102030401020304060708094C
:101270009012010800000020080000007A11010807
:101280009812010808000020000400008A110108DB
:0812900000A24A040000000066
:0400000508010131BC
:00000001FF
