:020000040800F2
:10000000A8190020890100083D2700088F1D00085D
:1000100035260008E9060008E93200080000000063
:100020000000000000000000000000009B0100082C
:10003000810A0008000000009F0100082D2B000825
:10004000A3010008A3010008A3010008A301000800
:10005000A3010008A3010008A3010008A3010008F0
:10006000A3010008A3010008A3010008A3010008E0
:10007000A3010008A3010008A3010008A3010008D0
:10008000A3010008A3010008A3010008A3010008C0
:10009000A3010008A3010008A3010008A3010008B0
:1000A000A3010008912B0008A3010008A301000888
:1000B000A3010008A3010008C92B0008A301000840
:1000C000A3010008A3010008A3010008A301000880
:1000D000A3010008C12F0008D12F0008E12F00085C
:1000E000A3010008A3010008A301000800F002F822
:1000F00000F03AF80AA090E8000C82448344AAF188
:100100000107DA4501D100F02FF8AFF2090EBAE885
:100110000F0013F0010F18BFFB1A43F0010318473B
:1001200080320000A0320000103A24BF78C878C1A5
:10013000FAD8520724BF30C830C144BF04680C60ED
:10014000704700000023002400250026103A28BF35
:1001500078C1FBD8520728BF30C148BF0B60704739
:100160001FB51FBD10B510BD00F04EF91146FFF7C9
:10017000F7FF03F0F2F800F06CF903B4FFF7F2FFB9
:1001800003BC00F073F900000948804709480047A4
:10019000FEE7FEE7FEE7FEE7FEE7FEE7FEE7FEE737
:1001A000FEE7FEE704480549054A064B7047000094
:1001B000392B0008ED000008A8130020A819002022
:1001C000A8150020A8150020032A40F2308010F066
:1001D000030C00F0158011F8013BBCF1020F6244E2
:1001E00098BF11F801CB00F8013B38BF11F8013B73
:1001F000A2F1040298BF00F801CB38BF00F8013B20
:1002000011F0030300F09180083AC0F0088051F823
:10021000043B083A51F804CBA0E80810F5E7121D9A
:100220005CBF51F8043B40F8043BAFF30080D207B9
:1002300024BF11F8013B11F801CB48BF11F8012B85
:1002400024BF00F8013B00F801CB48BF00F8012BA8
:100250007047431A28BF9A427FF6B6AF032A10446C
:10026000114440F2268010F0030F1EBF11F8013D2B
:10027000521E00F8013D10F0030F7FF4F6AF11F0AD
:10028000030300F09780083AC0F00B8051F8043D5A
:10029000083A51F804CD40F8043D40F804CDFFF78A
:1002A000F3BF121D5CBF51F8043D40F8043DAFF3AD
:1002B0000080D20724BF11F8013D11F801CD48BFDD
:1002C00011F8012C24BF00F8013D00F801CD48BF12
:1002D00000F8012C70474FF0000200B51346944619
:1002E0009646203922BFA0E80C50A0E80C50B1F18E
:1002F0002001BFF4F7AF090728BFA0E80C5048BFA2
:100300000CC05DF804EB890028BF40F8042B08BF3F
:10031000704748BF20F8022B11F0804F18BF00F83B
:10032000012B704770477047704710B5203AC0F0F6
:100330000B80B1E81850203AA0E81850B1E81850E6
:10034000A0E81850BFF4F5AF5FEA027C24BFB1E823
:100350001850A0E8185044BF18C918C0BDE8104094
:100360005FEA827C24BF51F8043B40F8043B08BF9D
:100370007047D20728BF31F8023B48BF11F8012B64
:1003800028BF20F8023B48BF00F8012B7047431AF2
:1003900028BF9A427FF6C9AF104410F0030F1144F2
:1003A0001EBF11F8013D521E00F8013D10F0030F71
:1003B0007FF4F6AF103AC0F00A8010B531E918505A
:1003C000103A20E91850BFF4F9AFBDE810405307C8
:1003D00024BF31E9081020E9081044BF51F8043D5A
:1003E00040F8043D12F0030F08BF7047D20728BF42
:1003F00031F8023D48BF11F8012C28BF20F8023D1A
:1004000048BF00F8012C7047754600F02BF8AE4647
:1004100005006946534620F00700854618B020B510
:10042000FFF7C0FEBDE820404FF000064FF0000788
:100430004FF000084FF0000B21F00701AC46ACE88C
:10044000C009ACE8C009ACE8C009ACE8C0098D46F9
:10045000704710B50446AFF300802046BDE8104059
:10046000FFF78BBE00487047481300200149182051
:10047000ABBEFEE726000200704770B504460D468D
:10048000284600F023F82060C82204F1CC0104F5CE
:10049000CA7000F091F8C823221D04F5CA712068C3
:1004A00002F0CEFD70BD00000146012903DA0348C9
:1004B00000EBC10070470020FCE700005C03002057
:1004C00001484068704700004C030020014611B904
:1004D0000248806870470148C068FBE74C03002071
:1004E00008B51748174908614FF400411548818243
:1004F00002220121103000F061FB00BF1248806928
:1005000040F00100104988610846806900F0010050
:10051000009000BF00BF00BF0C48406820F0E060C2
:100520000A4948600846406840F00070486000BFD3
:10053000044A918A1069002200F052FD08BD0000B3
:10054000000801404C030020001002400000014060
:1005500010B500F059FD02F071FAFFF7C1FF00205D
:1005600002F046FD0749486000200860012002F0C3
:100570003FFD0449C860022002F03AFD014988604D
:1005800010BD00004C03002030B504460D468CB170
:10059000204600F023F868B921682289501C208188
:1005A0008D542089A28890FBF2F302FB1300208176
:1005B000012030BD0020FCE703464BB141B1012AC8
:1005C00006DD19609A8000201881D88001207047CC
:1005D00013B10020186098800020F8E730B501467C
:1005E00069B10B898C88581C90FBF4F504FB15004D
:1005F00082B2C888904201D0002030BD00BF0120E7
:10060000FBE710B5014659B10A89CB888C889A421C
:1006100002DBD01A80B210BD1019C01A80B2FAE7FE
:100620000020F8E72DE9F84F044689461546002CCE
:1006300038D02046FFF7E5FF00900098A84201DB84
:10064000284600E000980546E688B4F808B0276818
:100650005E4505DCB9192A464846FFF7B5FD1EE0A0
:10066000204600F03BF8801B1FFA80F8A84501DB0C
:10067000284600E040468046A5EB08001FFA80FAB5
:10068000B91942464846FFF79FFDBAF1000F05D061
:1006900009EB080052463946FFF796FD00BF284691
:1006A000BDE8F88F0020FBE770B504460E461546FE
:1006B0002A4631462046FFF7B5FF054665B15CB1D5
:1006C000E088284482B2204600F008F892FBF0F15E
:1006D00000FB1120E08000BF284670BD014609B133
:1006E000888870470020FCE700BFFEE770B502462F
:1006F0004AF201050020002313E014786040521CE8
:1007000000240AE000F0010626B140104AF201067A
:10071000704000E04010661CF4B2082CF2DB5C1C58
:10072000A3B28B42E9DB70BD2DE9F0430546894653
:1007300000262C4620780121B1EBD01F17D160781C
:10074000C009A0B9A078C00988B9284600F09AF974
:1007500007B2A9F80070384602F043F880462078C6
:10076000C0F38010404500D1012606B900BF3046D5
:10077000BDE8F08310B50A4688B1082A0FDA02EB0B
:100780008203074C04EB830103680B6043684B60F2
:1007900083688B60C368CB6003690B6100BF10BDC9
:1007A0007C00002010B50A4688B1082A0FDA02EB57
:1007B0008203074C04EB83010B6803604B684360C2
:1007C0008B688360CB68C3600B69036100BF10BD99
:1007D0007C000020F0B587B004460D4600260027B7
:1007E000002009E0411C695C01AA11542A5C01AB9C
:1007F000411C5A54811C88B2174901EB0411098924
:100800008142EFDC144800EB04100068124901EB50
:100810000411C988B0FBF1F201FB120087B20E4847
:1008200000EB0410C0680C4901EB0411098907FBB7
:100830000106094800EB0410028901A93046FFF7C0
:10084000C3FC054800EB04100068401C024901EBA2
:100850000411086007B0F0BD6403002001460020C9
:100860000B4A02EB01121268094B03EB0113DB8800
:100870009A4209D9064A02EB01121268044B03EBB3
:100880000113DB88D21A00E00022104670470000F6
:1008900064030020002010490968086064200E49A4
:1008A0000968C8800D480C490968C86018200A49C1
:1008B0000968088100200A49096808604FF49670A9
:1008C00007490968C880074805490968C8600220C7
:1008D00003490968088170470C0000208403002048
:1008E00010000020E40C002001460020064A02EB24
:1008F000011212682AB1044A02EB01121268521E58
:1009000000E0002210467047640300202DE9F84FF4
:1009100081460F46154698464FF0000B00240320F1
:100920000090514800EB0910C08828444E4901EB63
:1009300009110968884201D2012000E000204A49DB
:1009400001EB09110968A94201D8012100E0002149
:10095000084358B13C46454E00BF300C2070300A69
:100960006070A67000BF0098BDE8F88F0020387056
:100970007C1C00BF280C2070280A6070A57000BF86
:1009800005EB0800384901EB09110968884205D9CF
:10099000354800EB09100068401B00E040461FFA94
:1009A00080F83C1D00BF05EB0800401E000C2070C5
:1009B00005EB0800401E000A607005EB0800401EB1
:1009C000A07000BF2E46B9F1000F1DD0B9F1010F84
:1009D00045D10020F87182460EE0082000EB4A0065
:1009E00000EB070B32465946012002F07FFC761CD3
:1009F0000AF101001FFA80FAC245EEDB4FEA480017
:100A00000830C0B200902BE04FF0000A1DE00AEB66
:100A1000CA0000EB4000C01DC41900BF300C20709C
:100A2000300A6070A67000BF0AEBCA0000EB4000FD
:100A30000A3000EB070B32465946002002F056FC04
:100A4000761C0AF1010000F0FF0AC245DFDB08EB6B
:100A5000C80000EB4000C01DC0B2009000E000BF25
:100A600000BF009880E7000064030020F1F101005E
:100A70000021024A02EB001211607047640300205B
:100A800000BFFEE710B501460A4613789B03547871
:100A900004F03F0403EB04235478C4F3801403EB05
:100AA000C413947804F07F04234498B210BD00006E
:100AB000024909688143014A11607047180000200B
:100AC00001480068704700001800002001460448F3
:100AD0000068084008B1012070470020FCE70000D2
:100AE00018000020024909680143014A116070475B
:100AF0001800002008B52B4988420DD100BF2A49B3
:100B0000896941F00401284A91611146896901F01F
:100B10000401009100BF43E0244988420DD100BF89
:100B20002149896941F008011F4A9161114689698B
:100B300001F00801009100BF32E01D4988420DD14B
:100B400000BF1949896941F01001174A91611146A6
:100B5000896901F01001009100BF21E01549884228
:100B60000DD100BF1049896941F020010E4A916101
:100B70001146896901F02001009100BF10E00E4983
:100B800088420DD100BF0849896941F04001064AF9
:100B900091611146896901F04001009100BF00BFD9
:100BA00008BD00000008014000100240000C014098
:100BB0000010014000140140001801407FB50446B8
:100BC0000D4616468CB1206878B12068FFF792FF79
:100BD000A1880022206800F003FAA0880090019507
:100BE00003966946206800F06DF87FBD70B5044635
:100BF0000D466CB1206858B12DB1A1880122206842
:100C000000F0EEF904E0A1880022206800F0E8F985
:100C100070BD000070B50446002594F8210002283C
:100C200003D00420A063012548E02068006820F07C
:100C30000E00216808602068006820F0010021682B
:100C400008601F492068884201D1012026E01C4924
:100C500014312068884201D110201FE01849283142
:100C60002068884201D1801518E015493C31206880
:100C7000884201D1801411E0114950312068884226
:100C800002D14FF4803009E00D4964312068884278
:100C900002D14FF4801001E04FF08070084908390C
:100CA0004860012084F8210000BF002084F8200063
:100CB00000BF606B10B12046616B8847284670BD4D
:100CC000080002402DE9F8470346002400200025D3
:100CD0008446002700226EE14FF0010808FA02F472
:100CE000D1F8008008EA0400A0427DD1DFF8D0A24C
:100CF000D1F80480A8EB0A09D0453AD014DCB8F149
:100D0000030F50D009DCB8F1000F31D0B8F1010F5A
:100D10001CD0B8F1020F49D120E0B8F1110F18D062
:100D2000B8F1120F42D11EE0B9F5881F25D006DCBC
:100D3000B9F5803F20D0B9F5801F37D11AE0B9F559
:100D4000001F18D0B9F5041F30D117E0D1F80CC03E
:100D50002DE0D1F80C8008F1040C28E0D1F80C80CB
:100D600008F1080C23E0D1F80C8008F10C0C1EE00F
:100D700000BF00BF00BF00BF00BF00BFD1F80880A8
:100D8000B8F1000F02D14FF0040C0BE0D1F808804D
:100D9000B8F1010F03D14FF0080C1C6102E04FF0D5
:100DA000080C5C6103E04FF0000C00E000BF00BFE6
:100DB000FF2801D8984601E003F104084646FF28C1
:100DC00002D84FEA820803E0A2F108084FEA880837
:100DD0004746D6F800804FF00F0909FA07F928EACC
:100DE00009080CFA07F900E088E048EA0908C6F8A3
:100DF0000080D1F8048008F08058B8F1805F7DD180
:100E000000BFDFF8C081D8F8188048F00108DFF88B
:100E1000B491C9F81880C846D8F8188008F00108BD
:100E2000CDF8008000BF00BF4FEAB9384FEA920901
:100E300058F829504FEA82784FEA18794FF00F0896
:100E400008FA09F825EA0805DFF87C81434502D154
:100E50004FF0000816E0DFF87481434502D14FF0EF
:100E600001080FE0DFF86881434502D14FF0020826
:100E700008E0DFF86081434502D14FF0030801E04C
:100E80004FF004084FEA82794FEA197908FA09F815
:100E900048EA0505DFF840814FEA920948F82950F1
:100EA000D1F8048008F48038B8F5803F0AD1DFF823
:100EB0002C81D8F8008048EA0008DFF82091C9F8B2
:100EC000008009E0DFF81481D8F8008028EA0008E3
:100ED000DFF80891C9F80080D1F8048008F40038E0
:100EE000B8F5003F10D1DFF8F48008F10408D8F815
:100EF000008048EA0008DFF8E49000E05AE009F1D9
:100F00000409C9F800800DE0DFF8D08008F104087A
:100F1000D8F8008028EA0008DFF8C09009F1040939
:100F2000C9F80080D1F8048008F48018B8F5801F53
:100F30000ED1DFF8A88008F10808D8F8008048EA48
:100F40000008DFF8989009F10809C9F800800DE061
:100F5000DFF8888008F10808D8F8008028EA00083F
:100F6000DFF8789009F10809C9F80080D1F8048009
:100F700008F40018B8F5001F0ED1DFF8608008F102
:100F80000C08D8F8008048EA0008DFF8509009F112
:100F90000C09C9F800800DE0DFF8408008F10C086A
:100FA000D8F8008028EA0008DFF8309009F10C0931
:100FB000C9F80080521C102AFFF48EAEBDE8F887F5
:100FC000000011100010024000080140000C014018
:100FD00000100140001401400800014000040140DD
:100FE0000AB1016101E00B04036170470148006828
:100FF000704700000400002002480068401C0149BE
:10100000086070470400002010B50848006840F0F0
:10101000100006490860032000F06AF80F2000F075
:1010200007F800F019F8002010BD00000020024071
:1010300070B50446074800684FF47A71B0FBF1F5CB
:10104000284600F0E4FB00222146501E00F012F872
:10105000002070BD00000020704700BF00F01F029C
:10106000012191404209920002F1E022C2F80011F0
:1010700000BF70472DE9F05F80460D4616460027F9
:1010800001F05EFB074639462A46334601F0070069
:10109000C0F1070ABAF1040F02D94FF0040A01E0C7
:1010A000C0F1070AD14600F1040ABAF1070F02D2D3
:1010B0004FF0000A01E0A0F1030AD4464FF0010A04
:1010C0000AFA09FAAAF1010A0AEA020A0AFA0CFA69
:1010D0004FF0010B0BFA0CFBABF1010B0BEA030B0E
:1010E0004AEA0B042146404601F032FBBDE8F09F7E
:1010F00000BF00F00702064B19684FF6FF031940C6
:10110000044B0B4343EA0221014B196000BF7047B7
:101110000CED00E00000FA0570B504460D4600260F
:101120006248006800F00700A8420ED25F480068DD
:1011300020F0070028435D4908600846006800F079
:101140000700A84201D0012070BD207800F0020005
:10115000022807D15648406820F0F000A1680843F3
:1011600053494860207800F0010000285DD0606895
:10117000012806D14E48006800F4003090B90120E3
:10118000E2E76068022806D14948006800F0007074
:1011900040B90120D8E74648006800F0020008B9CD
:1011A0000120D1E74248406820F00300616808430D
:1011B0003F494860FFF71AFF06466068012810D1D2
:1011C00008E0FFF713FF801B41F28831884201D904
:1011D0000320B9E73648406800F00C000428F0D13D
:1011E00023E06068022810D108E0FFF7FFFE801BB3
:1011F00041F28831884201D90320A5E72C48406894
:1012000000F00C000828F0D10FE008E0FFF7EEFE38
:10121000801B41F28831884201D9032094E7244899
:10122000406800F00C000028F0D12048006800F071
:101230000700A8420ED91D48006820F00700284387
:101240001A4908600846006800F00700A84201D06B
:10125000012079E7207800F00400042807D1144821
:10126000406820F4E060E168084311494860207854
:1012700000F00800082808D10D48406820F46050AC
:10128000216940EAC1000A49486000F03DF8084978
:101290004968C1F30311074A515CC8400649086018
:1012A0000F20FFF7C5FE00204EE70000002002409F
:1012B000001002408633000800000020014800684A
:1012C000704700000000002000B5FFF7F7FF044959
:1012D0004968C1F30221034A515CC84000BD0000C7
:1012E000001002409633000800B5FFF7E7FF0449FD
:1012F0004968C1F3C221034A515CC84000BD0000E7
:101300000010024096330008F0B585B00FF2700C63
:101310009CE8E01001A8A0E8E0101DA52D6800954C
:10132000002100240022002300201A4D696801F0EA
:101330000C05FDB1042D02D0082D1AD101E016488C
:101340001AE001ADC1F38346AB5D01F480355DB1B8
:10135000104D6D68C5F340451DF805400E4DB5FBB9
:10136000F4F505FB03F202E00C4D03FB05F2104619
:1013700002E000BF0A4800BF00BF05B0F0BD00009A
:1013800002030405060708090A0B0C0D0E0F1010C6
:10139000010200000010024000C0A80000093D004A
:1013A00000127A00F8B504460025207800F001000C
:1013B000002878D0F848406800F00C0004280CD0D1
:1013C000F548406800F00C00082811D1F248406848
:1013D00000F48030B0F5803F0AD1EF48006800F497
:1013E000003000285FD0606800285CD10120F8BD83
:1013F00000BF6068B0F5803F06D1E748006840F460
:101400008030E549086028E0606858B9E248006823
:1014100020F48030E04908600846006820F480200D
:1014200008601AE06068B0F5A02F0BD1DA480068B8
:1014300040F48020D84908600846006840F48030B5
:1014400008600AE0D448006820F48030D24908607F
:101450000846006820F48020086000BF606888B1FA
:10146000FFF7C4FD054606E0FFF7C0FD401B6428FA
:1014700001D90320BBE7C848006800F40030002809
:10148000F2D010E0FFF7B2FD054606E0FFF7AEFD33
:10149000401B642801D90320A9E7BF48006800F475
:1014A00000300028F2D1207800F00200022857D145
:1014B000B948406800F00C0050B1B748406800F0EF
:1014C0000C00082818D1B448406800F4803098B95E
:1014D000B148006800F0020020B12069012801D065
:1014E000012084E7AC48006820F0F800616940EA18
:1014F000C100A949086033E02069E8B10120A7498B
:101500000860FFF773FD054606E0FFF76FFD401B1F
:10151000022801D903206AE79F48006800F0020012
:101520000028F2D09C48006820F0F800616940EA89
:10153000C1009949086013E0002098490860FFF74E
:1015400055FD054606E0FFF751FD401B022801D975
:1015500003204CE79048006800F002000028F2D118
:10156000207800F0080008282DD1A069B8B101202A
:101570008B490860FFF73AFD054606E0FFF736FDA8
:10158000401B022801D9032031E78348406A00F05C
:1015900002000028F2D0012001F03CFA13E0002004
:1015A0007F490860FFF722FD054606E0FFF71EFDB4
:1015B000401B022801D9032019E77748406A00F050
:1015C00002000028F2D1207800F00400042873D132
:1015D00000267148C06900F0805070B900BF6E48A5
:1015E000C06940F080506C49C8610846C06900F08D
:1015F0008050009000BF00BF01266A48006800F4D8
:101600008070B0B96748006840F480706549086030
:10161000FFF7ECFC054606E0FFF7E8FC401B6428FA
:1016200001D90320E3E65F48006800F480700028D9
:10163000F2D000BFE068012806D15748006A40F0A8
:1016400001005549086227E0E06858B95248006A2D
:1016500020F00100504908620846006A20F00400AA
:10166000086219E0E06805280BD14B48006A40F099
:101670000400494908620846006A40F00100086217
:101680000AE04548006A20F0010043490862084624
:10169000006A20F00400086200BFE068A0B1FFF714
:1016A000A5FC054609E0FFF7A1FC401B41F288318B
:1016B000884202D903209AE622E03748006A00F007
:1016C00002000028EFD012E0FFF790FC054608E08A
:1016D000FFF78CFC401B41F28831884201D903207E
:1016E00085E62D48006A00F002000028F0D1012EA6
:1016F00005D12948C06920F080502749C86100BF42
:10170000E069C8B32448406800F00C00082860D0A5
:10171000E069022848D1002020490866FFF766FCEE
:10172000054606E0FFF762FC401B022801D90320B2
:101730005DE61948006800F000700028F2D1206AC8
:10174000B0F5803F07D11448406820F40030A1680C
:10175000084311494860D4E9080108430E49496823
:1017600021F4741108430C49486001200B490866B4
:10177000FFF73CFC054607E02DE0FFF737FC401B78
:10178000022801D9032032E60348006800F0007007
:101790000028F2D01FE0000000100240000042428A
:1017A000800442420070004000200C490866FFF7A8
:1017B0001DFC054606E0FFF719FC401B022801D975
:1017C000032014E60648006800F000700028F2D1FB
:1017D00001E001200BE6002009E600000000424283
:1017E00000100240042808D14FF0E021096941F0BF
:1017F00004014FF0E022116107E04FF0E021096998
:1018000021F004014FF0E02211617047704770B57C
:1018100004462546681EB0F1807F01D301200FE009
:10182000681E4FF0E02148610F214FF0FF3000F0BB
:101830008FFF00204FF0E021886107200861002021
:1018400070BD10B5FFF7E2FF10BD7047704710B5CF
:1018500004460CB9012010BD94F83D0028B90020C1
:1018600084F83C00204600F00CF8022084F83D008B
:10187000211D206801F0C4F9012084F83D000020FA
:10188000E9E7704701460868C06840F001000A684F
:10189000D0600868006840F001000A68106000200D
:1018A000704701460868C06820F001000A68D060EF
:1018B00000BF0868006A41F21112104050B9086870
:1018C000006A9210104028B90868006820F00100F2
:1018D0000A68106000BF00207047704710B50446CA
:1018E00020680069C0F34000D8B12068C068C0F328
:1018F0004000B0B16FF0020021680861012020773C
:101900002068806900F0030018B12046FFF7E5FF6A
:1019100005E0204600F0ADF8204600F0ABF80020CE
:10192000207720680069C0F38000D8B12068C068C3
:10193000C0F38000B0B16FF004002168086102209C
:1019400020772068806900F4407018B12046FFF7C6
:10195000C4FF05E0204600F08CF8204600F08AF82D
:101960000020207720680069C0F3C000D8B120684B
:10197000C068C0F3C000B0B16FF008002168086112
:10198000042020772068C06900F0030018B12046C9
:10199000FFF7A3FF05E0204600F06BF8204600F0BB
:1019A00069F80020207720680069C0F30010D8B1E2
:1019B0002068C068C0F30010B0B16FF0100021685B
:1019C0000861082020772068C06900F4407018B1D1
:1019D0002046FFF782FF05E0204600F04AF8204647
:1019E00000F048F8002020772068006900F001002E
:1019F00058B12068C06800F0010030B16FF00100FC
:101A000021680861204600F036F820680069C0F3BC
:101A1000C01058B12068C068C0F3C01030B16FF07A
:101A20008000216808612046FFF70FFF20680069E9
:101A3000C0F3801058B12068C068C0F3801030B186
:101A40006FF0400021680861204600F015F820681A
:101A50000069C0F3401058B12068C068C0F340105E
:101A600030B16FF02000216808612046FFF7EEFEDC
:101A700010BD70477047704770477047014600229D
:101A8000002391F8392091F83A3042EA0300704778
:101A90002DE9F0470446206805682068C66820687C
:101AA00047694FF00008C14605F00F08B8F1000F74
:101AB0000AD105F0200038B106F0200020B1204600
:101AC00001F012F9BDE8F087B8F1000F6DD007F012
:101AD000010018B906F49070002866D005F00100E6
:101AE00030B106F4807018B1E06B40F00100E063A3
:101AF00005F0040030B107F0010018B1E06B40F0D0
:101B00000200E06305F0020030B107F0010018B1F7
:101B1000E06B40F00400E06305F0080030B107F02E
:101B2000010018B1E06B40F00800E063E06B68B3BF
:101B300005F0200028B106F0200010B1204601F089
:101B4000D3F820684069C0F38019E06B00F008000A
:101B500010B9B9F1000F22D0204601F0A5F8206895
:101B6000406900F04000B0B12068406920F04000BA
:101B700021684861606B50B11748616B4863606BC6
:101B8000FFF748F810B1606B416B88470CE02046C6
:101B9000FFF773FF08E02046FFF76FFF04E02046E1
:101BA000FFF76BFF0020E0638CE705F0800030B1A9
:101BB00006F0800018B1204601F0CEF982E705F06A
:101BC000400030B106F0400018B1204601F07CF82A
:101BD00078E700BF76E70000952C000810B50446B2
:101BE0000CB9012010BDA06900B100E000BF94F85D
:101BF000390028B9002084F83800204600F027F882
:101C0000242084F839002068C06820F4005021683E
:101C1000C860204601F0BCF82068006920F49040BC
:101C2000216808612068406920F02A002168486125
:101C30002068C06840F400502168C8600020E0635C
:101C4000202084F8390084F83A000020CAE7704761
:101C500010B5034693F83A0020282FD101B10AB9F4
:101C6000012010BD00BF93F83800012801D10220E7
:101C7000F7E7012083F8380000BF99629A85DA857A
:101C80000020D863222083F83A0000BF002083F8A8
:101C9000380000BF1868C06840F480701C68E060BD
:101CA0001868406940F001001C6860611868C068ED
:101CB00040F020001C68E0600020D2E70220D0E75E
:101CC0002DE9F041054600242CE004EB840018497E
:101CD00001EB001000F11006AE4221D104EB8400AC
:101CE00001EB00104068D0B104EB840001EB001060
:101CF000476804EB840001EB001090F80E80414629
:101D00003846FEF741FC04EB8400094A02EB001060
:101D100000F10E0101223046FFF79AFF04E000BFF8
:101D2000601C84B2032CD0DB00BFBDE8F081000052
:101D30005C02002010B5034693F83900202823D117
:101D400001B10AB9012010BD00BF93F83800012885
:101D500001D10220F7E7012083F8380000BF1962A3
:101D60009A84DA840020D863212083F8390000BFE8
:101D7000002083F8380000BF1868C06840F0800079
:101D80001C68E0600020DEE70220DCE7704700BF4F
:101D9000FEE700007FB50446E1208DF80000C32077
:101DA0008DF8010000208DF8020007208DF8030057
:101DB0001A48B0F8EA00000A8DF80400174890F8B5
:101DC000EA008DF8050001208DF8060011208DF83D
:101DD0000700124890F8ED008DF808000F4890F8C1
:101DE000EE008DF80900E0B28DF80A00072101A885
:101DF000FEF77CFC0546280A8DF80B00E8B28DF84A
:101E00000C0006490D220868694601F035FA0348BE
:101E1000D0F8340100B97FBD00BFFCE724010020E9
:101E20002DE9F04104460D461646A81E205C691EA9
:101E3000615C60F31F210F463146201DFEF756FC02
:101E40008046474502D10120BDE8F0810020FBE734
:101E500001460120704710B586B004465CB1B4F865
:101E60004600022807DB1920019001A800F008FCB9
:101E7000012006B010BD0020FBE710B586B0044677
:101E80005CB1B4F84600022807DB1820019001A8D5
:101E900000F0F6FB012006B010BD0020FBE710B5F6
:101EA00086B00446ACB1B4F84600022811DB20200D
:101EB000019060790104A07901EB0021E0790844E8
:101EC0000290207A039001A800F0DAFB012006B00E
:101ED00010BD0020FBE710B586B004467CB1B4F815
:101EE000460002280BDB1E20019060790290A07949
:101EF000039001A800F0C4FB012006B010BD002033
:101F0000FBE710B586B004466CB1B4F84600022871
:101F100009DB1F2001906079029001A800F0B0FB5E
:101F2000012006B010BD0020FBE7014601207047EC
:101F300010B586B00446ACB1B4F84600022811DBF7
:101F40001C20019060790104A07901EB0021E07967
:101F500008440290207A039001A800F091FB012030
:101F600006B010BD0020FBE710B586B004465CB19A
:101F7000B4F84600022807DB1B20019001A800F0FE
:101F80007FFB012006B010BD0020FBE710B586B036
:101F900004467CB1B4F8460002280BDB1A200190FD
:101FA000E07902906079039001A800F069FB0120BC
:101FB00006B010BD0020FBE710B586B004465CB14A
:101FC000B4F84600022807DB1D20019001A800F0AC
:101FD00057FB012006B010BD0020FBE701460120A1
:101FE000704710B586B004461420019001A800F097
:101FF00047FB012006B010BD2DE9F04707460A2F28
:1020000045DD244D6C1DA078E17860F31F218846E2
:102010002079617960F31F21298094F80690E07996
:10202000A870207AE870607A2871424639462046C6
:10203000FFF7F6FE20B90220FFF7ACFEBDE8F087FF
:10204000484600F071F90646701C18B90320FFF7E6
:10205000A1FEF3E7A8F1040204F10A012046FEF70D
:10206000F8F8A8F10400A5F846000A48123800EB79
:10207000C600406850B10748123800EBC6004168FE
:102080000448884782465046FFF784FE00BF00BFE1
:10209000D4E700000E0200200148007870470000DD
:1020A0000800002010B500200F490870FEF708FA5C
:1020B0000E4908606422683101F16400FEF77CFA81
:1020C0000A4964230A1D0868CC3100F0B9FF0020DA
:1020D0000649A1F8E8004FF6FF70A1F8EA000120D8
:1020E000C1F8340110BD00000800002024010020C8
:1020F00010B5A9B10B4AB2F8E820022A10DA094B50
:10210000B3F8E820D83323F8320003EBC203596058
:10211000044BB3F8E8305B1C024CA4F8E83000BF75
:1021200010BD00002401002010B502490F20FFF768
:10213000DFFF10BD3921000870B50446FFF7ACFF82
:10214000064600250CB9012070BDE078F32826D0A2
:102150000EDCF02814D006DCE02843D0E12846D07D
:10216000E2284ED148E0F1280FD0F22849D111E001
:10217000F838062845D2DFE800F0171C21262B305E
:102180002046FFF72EFF05463DE02046FFF760FEA4
:10219000054638E02046FFF721FF054633E020469C
:1021A000FFF7C3FE05462EE02046FFF766FE054614
:1021B00029E02046FFF74FFE054624E02046FFF7C2
:1021C000E5FE05461FE02046FFF7CEFE05461AE075
:1021D0002046FFF7ADFE054615E02046FFF7ECFE72
:1021E000054610E02046FFF776FE05460BE0204648
:1021F000FFF787FE054606E02046FFF750FE05463E
:1022000001E00320A0E700BF0DB100209CE7012002
:102210009AE70000F8B51A48FEF7F3F90446042CD3
:102220002DDB042269461648FEF7FCF99DF80000F4
:102230009DF8011060F31F210E464EF2C310864236
:1022400017D19DF802009DF8031060F31F210D4681
:10225000A81D84420CDB82B2094923310848FEF7ED
:1022600023FA0446A81D844202D12046FFF7C4FE8B
:1022700004E0012269460248FEF716FA00BFF8BDE5
:10228000F0010020F0B599B006460D46A81D84B2B5
:10229000E1208DF80000C3208DF80100200A8DF8A0
:1022A0000200E0B28DF803001E48B0F8EA00000A10
:1022B0008DF804001B4890F8EA008DF80500012015
:1022C0008DF8060012208DF80700164890F8ED00F2
:1022D0008DF80800134890F8EE008DF809002A46A2
:1022E00031460DF10A00FDF76FFF214601A8FEF708
:1022F000FDF90746390A201D0DF80010F9B2601DDE
:102300000DF80010A11D8AB206490868694600F060
:10231000B3FF0448D0F8340108B919B0F0BD00BFCC
:10232000FBE70000240100200246002107E00848E6
:1023300030F83100904200D103E0481C81B20229FC
:10234000F5DB00BF022901D1C81E704708B2FCE7C7
:10235000FC01002010B5FEF79DFA024800F0E2F9FA
:1023600010BD0000692300082DE9FE430646002445
:102370000027A0460025306814380F2875D2DFE802
:1023800000F00A0809D31A272E5C7584B2B8BF9EE4
:10239000CE00CAE0C9E000208DF8000001208DF8D1
:1023A000010000208DF802008DF80300042168462A
:1023B000FFF768FFB9E00120FEF794FB00205C49BD
:1023C000087000F024FA8046404600F0E5FAACE0E0
:1023D0000120FEF76DFB422000F012FAA5E07068C4
:1023E000002802DD0020FEF743FB317A022000FACC
:1023F00001F40E20FEF75CFB2046FEF773FB002085
:102400004B49087000F003FA8046404600F0C4FAD9
:102410000020FEF723FA044600208DF800000DF19D
:10242000010500BF200C2870200A6870AC7000BF46
:1024300004216846FFF726FF77E00E20FEF738FB01
:102440000020FEF751FA044600208DF800000DF13F
:10245000010500BF200C2870200A6870AC7000BF16
:1024600004216846FFF70EFF5FE05DE07468308985
:1024700087B23B4622462F490020FEF747FA07461F
:1024800039462C48FFF7FEFE4FE000208DF8000093
:102490000DF10105FEF728FA044600BF200C287054
:1024A000200A6870AC7000BF2148007800F066FA1E
:1024B0008DF8040005216846FFF7E4FE35E01C486E
:1024C0000078401C1A49087008460078042801D199
:1024D000002008701648007800F099F980464046C0
:1024E00000F05AFA21E01020FEF7FCFA00F07AF82A
:1024F0001BE01020FEF7DCFA0120FEF7B9FA14E029
:102500007468308987B23B4622460A490120FEF7AB
:10251000FDF9074639460748FFF7B4FE05E000F02D
:1025200016F800F05FF800E000BF00BFBDE8FE83D2
:10253000140000203C0F002070B504460020FDF779
:10254000B3FF054621462846FEF750FB70BD08B58F
:102550001020FEF7BBFA30B14520009001226946F9
:10256000104600F0CBFA08BD38B504460D46208869
:1025700000901020FEF7AAFA18B169460120FEF774
:1025800029F938BD08B500BF1348C06940F0040000
:102590001149C8610846C06900F00400009000BFFE
:1025A00000BF0E480E4908604FF46160486000218A
:1025B0000B4881606421C160FFF749F900220221C4
:1025C0001E20FEF757FD1E20FEF747FD6FF00100AD
:1025D00003490968086108BD001002400008004076
:1025E0000813002010B51148114908600846FFF78C
:1025F00058F94FF461600E49486000210C48816031
:102600006421C160FFF723F9002202211E20FEF79A
:1026100031FD1E20FEF721FD6FF00100044909681D
:1026200008610348FFF72EF910BD000000080040C4
:102630000813002000BFFEE72DE9F041064672B600
:102640000E48B0F8A050B0F8A270BD4210D07EB1D4
:1026500029463046FEF7A6F8681CC11700EB5171F9
:10266000C910A0EBC101054AA2F8A010012400E0A6
:10267000002462B62046BDE8F08100007C00002006
:102680002DE9F041064672B61348B0F8A070B0F8D4
:10269000A240601CC11700EB5171C910A0EBC10131
:1026A0008CB2A74213D096B10B48B0F8A240214695
:1026B0003046FEF75FF8601CC11700EB5171C9107E
:1026C000A0EBC101044AA2F8A210012500E00025F8
:1026D00062B62846BDE8F0817C00002010B50020DD
:1026E0000649A1F8A200A1F8A000A0210348FDF727
:1026F000F2FD00200149C1F8A40010BD7C000020BB
:1027000000B585B004E00648D0F8A41068468847B4
:102710006846FFF791FF0028F5D105B000BD000025
:102720007C0000200449D1F8A41019B910B1024965
:10273000C1F8A400704700007C00002000BFFEE745
:1027400002480068C0F30220704700000CED00E072
:1027500010B5002807DA0A07140E054A00F00F0327
:102760001B1FD45403E00A07130E024A135410BD72
:1027700018ED00E000E400E009B1C0F8A4117047D2
:102780002DE9FC41044604F5CA70FDF73AFF054601
:10279000032D24DB2A4601A904F5CA70FDF742FF88
:1027A000694601A8FDF7C0FF012811D101AE3078BC
:1027B000C0F38307032201A904F5CA70FDF774FF73
:1027C00039466846D4F8A42190470120BDE8FC8131
:1027D000012201A904F5CA70FDF766FF00BF0020C1
:1027E000F4E701460022002005E001F001035A4011
:1027F0004910431CD8B21028F7DB02F001007047E3
:1028000001B501226946002000F078F908BD38B50D
:102810000446002534B1012C11D0022C1CD0032C0D
:1028200034D126E00120FEF751F930B1412000906B
:1028300001226946002000F061F90F2528E00620FA
:10284000FEF744F930B1442000900122694600208F
:1028500000F054F90A251BE00120FEF737F930B1EA
:102860004220009001226946002000F047F923250C
:102870000EE00A20FEF72AF930B144200090012230
:102880006946002000F03AF9282501E00A2500BF3A
:1028900000BF284638BD000070B505460C460B2C1D
:1028A00000DD70BD30480078012800D100E0002034
:1028B0002D490978022901D1012100E000210843B6
:1028C00020B12888294921F8140007E0264800781B
:1028D000032803D12888264921F814000B2C00D0A6
:1028E000DFE70820FEF7F2F820B121490020FDF7CC
:1028F00071FF37E00420FEF7E9F820B11B49002002
:10290000FDF768FF2EE00220FEF7E0F850B316480E
:102910000078032822D1002018E0144931F8101063
:10292000134A32F8102091420ADD104931F8101094
:102930000F4A32F81020891A0E4A22F8101003E0CC
:1029400000210C4A22F81010411CC8B20C28E4DB0C
:1029500000F090F907490020FDF73CFF024800789D
:102960000549087000BF9CE71400002034000020D7
:102970004C0000201C000020640000200146044A96
:1029800012F82120034B1B685B6A1A44D0B27047CF
:1029900068000020C812002038B504461A481B49B8
:1029A00008600846FEF77DFF00BF1948806940F4C3
:1029B0000060174988610846806900F40060009053
:1029C00000BF00BF4FF461601049486000210F480C
:1029D0008160016104EB840041000C48C16000216A
:1029E0004161FEF734FF002202211920FEF742FB6D
:1029F0001920FEF732FB6FF00100044909680861F5
:102A00000248FEF73FFF38BD002C0140C8120020ED
:102A10000010024008B508490968C9084FF47A72E5
:102A2000B1FBF2F14143009100BF00BF00994A1E83
:102A300000920029F9D108BD0000002010B590B027
:102A40000220069001200A9010200B9002200D9089
:102A500000210E914FF4E0110F9106A8FEF7A2FCA1
:102A60000F20019002200290002003904FF480601C
:102A7000049000200590022101A8FEF74DFBFEF70F
:102A80001DFC4FF47A71B0FBF1F42046FEF7BFFE57
:102A90000420FEF7A7FE00221146501EFEF7EAFAB8
:102AA00010B010BD10B50348FFF76AFE0248FFF7EB
:102AB00067FE10BD700F00201C11002010B5002013
:102AC0000949087000210948FDF7D7FC0849074863
:102AD000FFF752FE01210748FDF7CFFC06490548E4
:102AE000FFF74AFE10BD000015000020700F002007
:102AF000992800081C1100206925000870B50446BB
:102B00000D4616462CB9074932460868294600F09A
:102B1000B3FB012C05D1044932460868294600F070
:102B2000ABFB70BD700F00201C11002010B5FEF72C
:102B300063FAFEF786FE10BD1148006840F0010000
:102B40000F490860084640680E4908400C49486033
:102B5000084600680C4908400949086008460068B2
:102B600020F4802008600846406820F4FE00486099
:102B70004FF41F008860C8030449086070470000D4
:102B8000001002400000FFF8FFFFF6FE08ED00E035
:102B900030B585B00B4C2068006900F00105204677
:102BA000FEF79CFE65B12046FEF77BFEFDF788FF31
:102BB00000B100BF212000906846FFF761FD00BF13
:102BC00005B030BDC812002030B585B00B4C206870
:102BD000006900F0010565B12046FEF762FEFDF7D1
:102BE0006FFF00B100BF222000906846FFF748FD4C
:102BF00000BF0248FEF772FE05B030BD081300208A
:102C000000220268184B984208D0B0F1804F05D0DE
:102C1000164B984202D0164B984203D122F0700214
:102C20004B681A43104B984208D0B0F1804F05D042
:102C30000E4B984202D00E4B984203D122F44072C0
:102C4000CB681A4322F080024B691A4302608B68FA
:102C5000C3620B688362044B984201D10B69036322
:102C60000123436170470000002C01400004004034
:102C70000008004010B50648007808B9012000E0BF
:102C800000200349087008460078FFF755FC10BD86
:102C90007800002070B505466C6A0020E085E0846D
:102CA0002046FEF7EAFE70BD0168C96821F4907104
:102CB0000268D1600168496921F00101026851612F
:102CC000202180F83A10704710B504462068C0688B
:102CD00020F040002168C860202084F83900204698
:102CE000FFF754F8002010BD70B5044694F83A0080
:102CF00022284AD1A068B0F5805F13D1A56A206967
:102D000040B920684068C0F308002880A06A801C91
:102D1000A06219E020684068C0B22880A06A401C08
:102D2000A06211E0206938B920684068C1B2A26A87
:102D3000501CA062117007E02068406800F07F011D
:102D4000A26A501CA0621170E08D401E80B2E08526
:102D5000C8B92068C06820F020002168C8602068D9
:102D6000C06820F480702168C8602068406920F045
:102D7000010021684861202084F83A002046FEF7CF
:102D80009FFF002070BD0020FCE70220FAE7000052
:102D90002DE9F041044600252068006920F44050E8
:102DA000E1680843216808612169A06808436169F6
:102DB000084305432068C06841F20C6188432843FA
:102DC0002168C8602068406920F44070A169084308
:102DD000216848615F49206888425CD1FEF784FA27
:102DE00000EBC00101EB001061688900B0FBF1F657
:102DF000FEF77AFA00EBC00101EB00106168890070
:102E0000B0FBF1F06421B0FBF1F000EBC00101EB8D
:102E10000010A6EB8000322101EB00106421B0FB12
:102E2000F1F000F0F006FEF75FFA00EBC00101EBF5
:102E3000001061688900B0FBF1F06421B0FBF1F093
:102E400006EB0016FEF750FA00EBC00101EB001094
:102E500061688900B0FBF1F7FEF746FA00EBC001AC
:102E600001EB001061688900B0FBF1F06421B0FB58
:102E7000F1F000EBC00101EB0010A7EB8000322164
:102E800001EB00106421B0FBF1F000F00F003044C2
:102E9000216888605BE0FEF717FA00EBC00101EBE8
:102EA000001061688900B0FBF1F6FEF70DFA00EB47
:102EB000C00101EB001061688900B0FBF1F06421F2
:102EC000B0FBF1F000EBC00101EB0010A6EB8000BD
:102ED000322101EB00106421B0FBF1F000F0F006AC
:102EE000FEF7F2F900EBC00101EB00106168890008
:102EF000B0FBF1F06421B0FBF1F006EB0016FEF739
:102F0000E3F900EBC00101EB001061688900B0FB40
:102F1000F1F7FEF7D9F900EBC00101EB0010616891
:102F20008900B0FBF1F06421B0FBF1F000EBC001CF
:102F300001EB0010A7EB8000322101EB00106421AF
:102F4000B0FBF1F000F00F00304421688860BDE86C
:102F5000F081000000380140014691F83900212835
:102F60002CD18868B0F5805F0FD10A6A1088C0F351
:102F700008000B685860086918B9086A801C086264
:102F800009E0086A401C086205E00B6A581C0862E8
:102F900018780B685860C88C401E80B2C88458B935
:102FA0000868C06820F080000B68D8600868C068B6
:102FB00040F040000B68D860002070470220FCE71A
:102FC00010B50248FEF764FD10BD00006C02002041
:102FD00010B50248FEF75CFD10BD0000BC020020E9
:102FE00010B50248FEF754FD10BD00000C03002090
:102FF00010B50446204600F09DF9E0B104EB8400D2
:103000000E4901EB00100480002004EB84010B4A00
:1030100002EB0111486004EB840102EB01118860AE
:1030200004EB840102EB0111888104EB840011465A
:1030300001EB001010BD0020FCE700005C02002046
:10304000F0B585B004460D4616461F46002C7DD0CF
:10305000208803287ADA6560A660A781208820B1DD
:10306000012851D0022872D19FE000BF00BF7C48E8
:10307000806940F480407A4988610846806900F49C
:103080008040049000BF00BF764820614FF4E131DA
:1030900061610021A161E16121620C216162002175
:1030A000A162E16204F11000FEF798FD0022032105
:1030B0002520FDF7DFFF2520FDF7CFFF00BF00BF74
:1030C00000BF6748806940F0040065498861084690
:1030D000806900F00400009000BF00BF4815019017
:1030E000022002900320049001A95F48FDF7EAFD49
:1030F0004FF48060019000200290039001A95A488B
:10310000FDF7E0FD00BFA1E000BF00BF5448C0696B
:1031100040F400305249C8610846C06900F40030EC
:10312000049000BF00BF514820614FF4E13161615C
:103130000021A161E16121620C2161620021A16293
:10314000E16204F11000FEF749FD01E085E07BE05B
:10315000002203212620FDF78DFF2620FDF77DFFAD
:1031600000BF00BF00BF3E48806940F004003C49FA
:1031700088610846806900F00400009000BF00BF2D
:1031800004200190022002900320049001A93648F7
:10319000FDF798FD0820019000200290039001A9FE
:1031A0003148FDF78FFD00BF50E000BF00BF2C4845
:1031B000C06940F480202A49C8610846C06900F40B
:1031C0008020049000BF00BF294820614FF4E13106
:1031D00061610021A161E16121620C216162002134
:1031E000A162E16204F11000FEF7F8FC0022032165
:1031F0002720FDF73FFF2720FDF72FFF00BF00BF6F
:1032000000BF1748806940F00800154988610846EA
:10321000806900F00800009000BF00BF0815019011
:10322000022002900320049001A91248FDF74AFDF4
:103230004FF40060019000200290039001A90D4816
:10324000FDF740FD00BF01E005B0F0BD00BF012269
:1032500004F10E01881CFEF7FBFC00BFF4E7000040
:1032600000100240003801400008014000440040C6
:1032700000480040000C01402DE9F0470446884614
:1032800015464FF0010A6CB3B8F1000F2AD0002D9B
:1032900028DD04F11009A768B9F1000F21D007B3A8
:1032A000A089A84201DAA08900E02846054600BFAF
:1032B0004846FEF7E3FB0646222E01D0202EF7D12A
:1032C0002A4641463846FCF77FFF2A46394648469B
:1032D000FEF730FD8246BAF1000F02D12846BDE864
:1032E000F08700BF0020FAE700BFFEE72DE9F041BC
:1032F00004460D4616460E4800EB0410C088B6FB87
:10330000F0F100FB116087B2094800EB0410C068BF
:10331000074901EB0411098907FB0108044800EB88
:103320000410028941462846FCF74EFFBDE8F081B3
:1033300064030020014603290DDA21B1012904D0DC
:10334000022906D103E0012070470120FCE701209B
:10335000FAE700BF00BF0020F6E7FDF7F9F8FFF736
:10336000BDF9FEF79FFEFEF7DFFEFFF7A7FBFFF7B5
:1033700009F9FEF7EFFF05E0FFF794FBFFF7C0F94F
:10338000FEF748FFF8E7000000000000000001021F
:1033900003040607080900000000010203040000FE
:1033A000C0330008000000207C0000002801000855
:1033B0003C3400087C0000202C1900004401000867
:1033C00000A24A0400000000000000006403002086
:1033D000740300200000000000000000FFFF000058
:1033E00000000000000000000000000000000000DD
:1033F00000000000FFFF00000000000000000000CF
:10340000000000000000000000000000FFFF0000BE
:1034100000000000000000000000000000000000AC
:103420000000000000000000000000000F0000008D
:0C343000190000003C000000000000003B
:04000005080000ED02
:00000001FF
