:020000040800F2
:10000000E011002045010008491A0008ED1700081A
:10001000451A0008490D0008BD2600080000000030
:10002000000000000000000000000000A520000803
:100030008910000800000000491C00089D210008EC
:100040005F0100085F0100085F0100085F01000810
:100050005F0100085F0100085F0100085F01000800
:100060005F0100085F0100085F0100085F010008F0
:100070005F0100085F0100084D0D00085F010008E6
:100080005F0100085F0100085F0100085F010008D0
:100090005F0100085F0100085F0100085F010008C0
:1000A0005F0100085F0100085F0100085F010008B0
:1000B0005F0100080D220008C12200085F0100084E
:1000C0005F0100085F0100085F0100085F01000890
:1000D0005F0100085F0100082D2400085F0100088F
:1000E0005F0100085F0100085F0100085F01000870
:1000F0005F0100085F0100085F0100085F01000860
:100100005F0100085F0100085F0100085F0100084F
:100110005F0100085F0100085F0100085F0100083F
:100120005F0100085F0100085F0100085F0100082F
:10013000DFF80CD000F0EAFB00480047052C00086F
:10014000E01100200648804706480047FEE7FEE72A
:10015000FEE7FEE7FEE7FEE7FEE7FEE7FEE7FEE777
:10016000AD21000831010008F0B480EA0102D40F8B
:100170004200B2EB410F02D20246084611464A0045
:1001800042D0C30DDDB2C1F3C752AD1A202D35DA0E
:10019000C1F3160141F4000204B15242C5F1200638
:1001A00002FA06F12A411044B3EBD05F23D0C4B168
:1001B000012DA0EBC35009DCF0BC4FF0004202EA75
:1001C000C352DBB200F5000000F0ECBA400000F1D1
:1001D000807000EBC350A0F1807040EAD1704900FC
:1001E00009E0490841EAC071A0EBC35000F50000E6
:1001F000400800EBC350F0BC00F0CBBA61420122D2
:1002000002EB4101001BF6E7F0BC704781F00041B2
:10021000AAE780F00040A7E780EA010210B502F0EB
:100220000043400022D04A001FD0010E01EB1261B2
:10023000C0F35600C2F3560240F4000042F400023C
:10024000A0FB022000047F39140400D0401C50EAB7
:10025000124001D44000491EC2B20C0604EBD0107B
:10026000401C4008802A02D003E0002010BD20F08E
:100270000100002900DA0020184310BD30B480EAE4
:10028000010202F0004530F0004221F0004013D09E
:1002900090B1C30DD40DC2F31601C0F31600E41AD9
:1002A00041F4000140F400027D34914201D3641C0A
:1002B00000E04900002C02DA30BC002070474FF407
:1002C00000000023914201D3891A034340084FEAFA
:1002D0004101F7D151B1914202D14FF0004105E007
:1002E00002D24FF0010101E06FF0010103EBC450B5
:1002F000284430BC00F04DBA2DE9FE4F804681EA1B
:100300000300C00F0C46009021F0004123F000458F
:10031000B8EB0200A94105D24046214690461C4652
:100320000B46024623F00040104347D0270DC7F389
:100330000A00C3F30A510290401A019040286BDA78
:10034000C3F3130040F4801B0098924620B10023B1
:10035000D2EB030A63EB0B0B01985946C0F1400244
:10036000504600F0F5F906460D4650465946019AAA
:1003700000F0FDF910EB08006141002487EA1152FA
:1003800084EAE7731A4340D0009A62B3019A012AC3
:100390004FEA075215DC001B61EB02014FF00042EF
:1003A00002EA0752CDE90042001C41F580113246B5
:1003B0002B4600F034FA03B0BDE8F08F40462146EA
:1003C000F9E7001B61EB0201001C41F580130018E6
:1003D0005B412018A2F5001747EB030140EAD570F6
:1003E000B6196D4111E06D084FEA360645EAC07551
:1003F0004FEA0752001B61EB0201001C41F580111E
:1004000049084FEA30000019514132462B4603B0EB
:10041000BDE8F04F00F0F4B900980122400000233D
:10042000D0EB020263EBE073009821464FEAE074E0
:10043000B8EB000061EB0401E9E783F000435BE700
:1004400081F0004158E72DE9FE4F81EA030404F0F2
:10045000004421F0004100944FF0000B23F00043D2
:1004600050EA01045ED052EA03045BD0C3F30A549D
:10047000C1F30A552C44A4F2F3340194A0FB0254B6
:10048000C1F3130141F48011C3F3130343F4801348
:1004900001FB024400FB034E840A970A44EA81549C
:1004A00047EA8357A4FB076802958D0A05FB078579
:1004B0004FEA932C04FB0C542705029D4FEA065883
:1004C00047EA1637B5EB08056EEB070C870E920E60
:1004D00047EA811742EA8312A7FB0201B6EB0B0140
:1004E00064EB00042B0D43EA0C335E1844EB1C5004
:1004F000DA465146E7FB0201C5F313044FEA0B331A
:1005000043EA14534FEA0432019C43EA0603A4F180
:100510000C040294009CCDE900B400F080F903B013
:10052000BDE8F08F00200146F9E72DE9F04D81EAA2
:10053000030404F0004B21F0004514464FF0000A7C
:1005400023F0004150EA050220D054EA01021DD0F8
:10055000C5F30A570246C5F31303C1F31300C1F3F1
:100560000A5640F4801543F48013A7EB0608101BCD
:10057000D64608F2FD3873EB050002D308F10108F6
:1005800001E092185B41B8F1000F03DA0020014648
:10059000BDE8F08D00204FF48011064684460EE041
:1005A000171B73EB050705D3121B63EB050306430B
:1005B0004CEA010C49084FEA300092185B4150EABE
:1005C0000107EDD152EA030012D082EA040083EA67
:1005D0000501084305D0101BAB4106D201220023C0
:1005E00006E000224FF0004302E06FF001025310DA
:1005F0001AEB06004CEB085110EB0A0041EB0B0123
:10060000BDE8F04D00F0FCB8C10F80EAE07008448E
:10061000CA079623002100F0C5B896230022114690
:1006200000F0C0B800F0004220F00040C10DC0F35F
:10063000160040F400007F2901DA00207047962957
:1006400003DCC1F19601C84001E096398840002AD8
:10065000F4D04042704720F00040C10DC0F31600B6
:1006600040F400007F2901DA00207047962903DC5E
:10067000C1F19601C840704796398840704700F034
:10068000004230F000400AD0C10D01F56071C0F3A6
:10069000160042EA0151C20840071143704700208A
:1006A0000146704730B5041E71F1000404DB4FF0C1
:1006B0000044404264EB0101141E73F1000405DBA9
:1006C0001C464FF00043524263EB04038B4208BFC9
:1006D000824230BD30B5041E71F1000404DB4FF0DE
:1006E0000044404264EB0101141E73F1000405DB79
:1006F0001C464FF00043524263EB0403994208BF8B
:10070000904230BD01F0004330B421F0004150EA86
:10071000010206D00A0DA2F56072C1F31301002A8E
:1007200002DC30BC00207047440F44EAC104C10021
:10073000E01830BC00EBC25000F02BB8002801DB01
:10074000C0F10040002901DBC1F100418142704746
:10075000202A04DB203A00FA02F100207047914081
:10076000C2F1200320FA03F3194390407047202A76
:1007700006DBCB17203A41FA02F043EAE07306E0C9
:1007800041FA02F3D040C2F12002914008431946D9
:1007900070470029A8BF7047401C490008BF20F0DF
:1007A0000100704710B4B0FA80FC00FA0CF050EA77
:1007B000010404BF10BC704749B1CCF1200421FAF8
:1007C00004F411FA0CF118BF012121430843A3EBF3
:1007D0000C01CB1D4FEA00614FEA102042BF002000
:1007E00010BC704700EBC35010440029A4BF10BCDC
:1007F0007047401C490008BF20F0010010BC704742
:1008000010B5141E73F1000408DA401C41F1000118
:1008100092185B411A4301D120F0010010BD2DE96F
:10082000F04D92469B4611B1B1FA81F202E0B0FA66
:1008300080F220329046FFF78BFF04460F4640EAD5
:100840000A0041EA0B0153465A46084313D01146A9
:1008500053EA010019D0C8F14002504600F068F890
:1008600005460E46504659464246FFF771FF08437B
:1008700005D0012004E020463946BDE8F08D002077
:10088000054346EAE0762C4337430A986305E40AB9
:10089000A0EB08000022FD0A44EA47540A3002D5C2
:1008A00000200146E9E7010510196941DDE9084525
:1008B00000196941BDE8F04DA2E770B521F0004391
:1008C00003430CD0C1F30A550024D5EB040564EBB7
:1008D0000403D617AD1AB34102DB0020014670BDF8
:1008E000201841EB025170BD0EB5C10F80EAE070D7
:1008F0000844CA07002140F233438DE80E000A463F
:100900000B46FFF78CFF03B000BD0000064C074DFF
:1009100006E0E06840F0010394E8070098471034CF
:10092000AC42F6D3FFF708FC082D0008282D00087C
:10093000202A04DB203A21FA02F00021704721FA34
:1009400002F3D040C2F1200291400843194670479B
:1009500021B1826842F00102826003E0826822F0E5
:1009600001028260704721B1826842F48072826025
:1009700003E0826822F480728260704701460020A2
:100980008A6802F004020AB1012000E000207047EA
:10099000014600208A6802F008020AB1012000E046
:1009A0000020704730B502460020002350680F4CED
:1009B00020400D790C6844EA05242043506090687B
:1009C0000B4C2040D1E902542C434D7944EA4504B4
:1009D00020439060D06A20F470000C7C641EE4B266
:1009E000234340EA0350D06230BD0000FFFEF0FF19
:1009F000FDF7F1FFF0B504460D4600200021092D5A
:100A000011DDE068A5F10A0606EB4607072606FA9F
:100A100007F18843A5F10A0606EB460603FA06F13C
:100A20000843E0600CE0206905EB4507072606FA5D
:100A300007F1884305EB450603FA06F108432061F8
:100A4000072A0FDA606B561E06EB86071F2606FA8A
:100A500007F18843561E06EB860605FA06F10843A1
:100A6000606322E00D2A0FDA206BD61F06EB8607A3
:100A70001F2606FA07F18843D61F06EB860605FAFD
:100A800006F10843206310E0E06AA2F10D0606EBD0
:100A900086071F2606FA07F18843A2F10D0606EB2A
:100AA000860605FA06F10843E062F0BD816841F070
:100AB00008018160704721B1826842F4A00282601F
:100AC00003E0826822F4A00282607047816841F0EE
:100AD000040181607047000008B50121042001F085
:100AE000E1F81020ADF8000003208DF8020000208E
:100AF0008DF8030069460F4800F0AEFD2020ADF8E8
:100B0000000003208DF8020000208DF803006946E4
:100B1000084800F0A1FD4020ADF8000003208DF84A
:100B2000020000208DF803006946024800F094FDA1
:100B300008BD00000008014010B5FFF7CDFF00F030
:100B400001F810BD00B591B00121480201F0AAF8EA
:100B50000121084601F086F83A4800F035F93A4894
:100B600001903A4802900020039003200490002056
:100B7000059080200690400007908000089020207B
:100B8000099000020A9000200B9001A92D4800F066
:100B9000E0F901212B4800F00BF900200C90012016
:100BA0008DF834008DF835004FF460200E90002051
:100BB0000F9003208DF840000CA923484C38FFF714
:100BC000F1FE4FF4004001F041F805230122042119
:100BD0001D484C38FFF70EFF0523022219461A481C
:100BE0004C38FFF707FF05230322062116484C382F
:100BF000FFF700FF012114484C38FFF7B4FE012134
:100C000011484C38FFF7A4FE0F484C38FFF74EFF51
:100C100000BF0D484C38FFF7BBFE0028F9D10A4849
:100C20004C38FFF753FF00BF07484C38FFF7A6FECC
:100C30000028F9D1012104484C38FFF73CFF11B0DE
:100C400000BD0000080002404C2401405801002073
:100C50000EB50121042001F015F800F036F86420EB
:100C6000ADF804004120ADF800000020ADF802000E
:100C700069460A4801F088FB0121084801F05BFB46
:100C80000121064801F054FB01221146034801F0FE
:100C900072FB0121014801F051FB0EBD000800402C
:100CA00008B54FF4E06000F01DFF1D208DF8000036
:100CB00000208DF8010003208DF8020001208DF83E
:100CC0000300684600F0D6FE08BD08B54FF4E060AA
:100CD00000F008FF1E208DF8000000208DF80100B4
:100CE00004208DF8020001208DF80300684600F012
:100CF000C1FE08BD0EB50121022000F0C3FFFFF7C1
:100D0000CFFF40F2ED30ADF804004120ADF8000017
:100D10000020ADF8020069460A4801F035FB0121C8
:100D2000084801F008FB0121064801F001FB0122FF
:100D30001146044801F01FFB0121024801F0FEFAB0
:100D40000EBD00000004004000BFFEE710B54FF4E8
:100D5000005000F0DFF801280AD1400300F01AF833
:100D60000021044800F024F84FF4005000F004F88B
:100D700010BD00004400024000F0805111B1034951
:100D8000086001E002494860704700000404024026
:100D90000000024000F0805111B10349086001E0F9
:100DA000024948607047000004040240000002400D
:100DB00021B1026842F00102026004E002684FF6CD
:100DC000FE731A400260704701684FF6FE721140D0
:100DD00001600021016041608160C1604B4988422F
:100DE00008D14A490839496841F00F01474A083A91
:100DF00051608AE045491431884208D14349083995
:100E0000496841F0F001414A083A51607DE03F49AC
:100E10002831884208D13D490839496841F4706158
:100E20003A4A083A516070E038493C31884208D16A
:100E300036490839496841F47041344A083A5160EA
:100E400063E032495031884208D130490839496855
:100E500041F470212D4A083A516056E02B49643123
:100E6000884208D129490839496841F47001274A64
:100E7000083A516049E025497831884208D1234930
:100E80000839496841F07061204A083A51603CE0F5
:100E90001F49884206D1011F096841F00F01021F56
:100EA000116032E01A491431884208D11849091FEB
:100EB000096841F0F001164A121F116025E014493B
:100EC0002831884208D11249091F096841F470612C
:100ED0000F4A121F116018E00D493C31884208D1B9
:100EE0000B49091F096841F47041094A121F11603A
:100EF0000BE007495031884207D10549091F0968AD
:100F000041F47021024A121F11607047080002402C
:100F10000804024001460020002201F0805313B172
:100F2000054B1A6801E0054B1A6802EA01030BB190
:100F3000012000E000207047000402400000024051
:100F40001AB103680B43036002E003688B4303603C
:100F5000704710B50022026847F6F0739A430C6A96
:100F60008B6823430C6923434C6923438C692343D7
:100F7000CC6923434C6A23438C6A23431A4302609F
:100F8000CB6843600B6883604B68C36010BD08B5D5
:100F90004FF4C06000F0A6FD0E208DF80000002088
:100FA0008DF8010002208DF8020001208DF8030069
:100FB000684600F05FFD08BD2DE9F05F00F0C4FF5A
:100FC0002A4801692A4800F097FD2A494861486982
:100FD000FFF755FB06464FF03332274BFFF733FA46
:100FE00004460D4623490869FFF749FB06464FF0C2
:100FF0006632224BFFF727FA804622462B46FFF740
:101000007BF98246FFF77EFB1A49C8610846C06932
:1010100088610846C0690861C869FFF730FB04466B
:101020004FF06632154BFFF755FB03D214481149B8
:10103000C86108E00F49C8690021FFF77FFB02D2B1
:1010400000200C49C8610B48C0690A490862086A57
:101050000C49FFF7E1F80546FFF7E4FA04B2204631
:1010600001F096F800F012F8BDE8F09F580100205A
:1010700060000020880000203333D33F6666E63FDF
:101080003333333F0000C8427047000010B5FE49BB
:101090000868FE49FFF7C0F80446FFF7C3FAFC49A9
:1010A000086008460068002803DB2B20F949087017
:1010B00007E0F74800684042F54908602D20F549EF
:1010C0000870F34800684FF47A7190FBF1F030300B
:1010D000F0494870EE4800684FF47A7190FBF1F2E5
:1010E00001FB1200642190FBF1F03030E949887077
:1010F0002E20C870E6480068642190FBF1F201FBE5
:1011000012000A2190FBF1F03030E2490871E0480A
:1011100000680A2190FBF1F201FB12003030DD493A
:10112000487109208871D8494868D849FFF774F890
:101130000446FFF777FAD849086008460068002897
:1011400003DB2B20D349C87107E0D3480068404235
:10115000D14908602D20CF49C871CF4800684FF4AD
:101160007A7190FBF1F03030CA490872CA480068C1
:101170004FF47A7190FBF1F201FB1200642190FBB5
:10118000F1F03030C34948722E208872C24800689E
:10119000642190FBF1F201FB12000A2190FBF1F0B7
:1011A0003030BC49C872BC4800680A2190FBF1F29B
:1011B00001FB12003030B749087309204873B24967
:1011C0008868B649FFF728F80446FFF72BFAB449B8
:1011D000086008460068002803DB2B20AD498873AF
:1011E00007E0AF4800684042AD4908602D20A9499A
:1011F0008873AB480068AB4990FBF1F042F2107184
:1012000090FBF1F201FB12003030A249C873A448F0
:10121000006842F2107190FBF1F04FF47A7190FB8C
:10122000F1F201FB120030309A4908742E20487404
:101230009B4800684FF47A7190FBF1F0642190FBB9
:10124000F1F201FB12003030924988749448006832
:101250004FF47A7190FBF1F201FB1200642190FBD4
:10126000F1F030308B49C8748D480068642190FBE0
:10127000F1F201FB12000A2190FBF1F030308549B8
:101280000875874800680A2190FBF1F201FB120003
:10129000303080494875092088757B49C8687B498A
:1012A000FEF7BAFF0446FFF7BDF97F49086008461C
:1012B0000068002803DB2B207649C87507E07A48D0
:1012C00000684042784908602D207249C875764808
:1012D00000684FF47A7190FBF1F030306D49087678
:1012E000714800684FF47A7190FBF1F201FB120033
:1012F000642190FBF1F03030664948762E208876E4
:1013000069480068642190FBF1F201FB12000A2198
:1013100090FBF1F030305F49C876634800680A21DD
:1013200090FBF1F201FB120030305A490877092096
:101330004877554948695549FEF76EFF0446FFF75F
:1013400071F95A49086008460068002803DB2B2021
:101350005049887707E05548006840425349086083
:101360002D204C4988775148006842F2107190FB5B
:10137000F1F030304749C8774C48006842F21071AC
:1013800090FBF1F201FB12004FF47A7190FBF1F047
:101390003030404981F82000444800684FF47A71A9
:1013A00090FBF1F201FB1200642190FBF1F0303070
:1013B000384981F821002E2081F822003B4800683E
:1013C000642190FBF1F201FB12000A2190FBF1F085
:1013D0003030304981F82300344800680A2190FBFE
:1013E000F1F201FB120030302A4981F82400092073
:1013F00081F82500244988692449FEF70DFF044639
:10140000FFF710F92A49086008460068002804DB45
:101410002B20204981F8260008E02548006840423A
:10142000234908602D201B4981F8260020480068C8
:1014300042F2107190FBF1F03030164981F827002C
:101440001B48006842F2107190FBF1F201FB1200A0
:101450004FF47A7190FBF1F030300E4981F828009A
:10146000134800684FF47A7190FBF1F201FB12000F
:10147000642190FBF1F03030064981F829002E20DC
:1014800081F82A000A4815E0880000200000C842C0
:1014900034000020A40100203800002000401C4639
:1014A0003C000020A08601004000002044000020F5
:1014B000480000200068642190FBF1F201FB12005B
:1014C0000A2190FBF1F030304E4981F82B004E4854
:1014D00000680A2190FBF1F201FB1200303049490B
:1014E00081F82C00092081F82D004849086A4849F4
:1014F000FEF792FE0446FFF795F846490860084655
:1015000000684FF47A7190FBF1F030303D4981F87A
:101510002E00404800684FF47A7190FBF1F201FB15
:101520001200642190FBF1F03030364981F82F0031
:1015300038480068642190FBF1F201FB12000A2197
:1015400090FBF1F030302F4981F830002E2081F8E7
:101550003100304800680A2190FBF1F201FB1200D3
:101560003030284981F83200252081F833000920E5
:1015700081F83400284908692849FEF74DFE0446E1
:10158000FFF750F826490860084600684FF47A7162
:1015900090FBF1F030301B4981F83500204800689D
:1015A0004FF47A7190FBF1F201FB1200642190FB81
:1015B000F1F03030134981F836002E2081F83700E1
:1015C00017480068642190FBF1F201FB12000A2128
:1015D00090FBF1F030300B4981F83800104800687A
:1015E0000A2190FBF1F201FB12003030054981F82D
:1015F00039000A2081F83A003B21024801F0BEF888
:1016000010BD0000A4010020480000208800002038
:1016100000007A444C000020580100200000C8421D
:10162000500000200549096821F01001034A1160AB
:101630001146096801431160704700000020024014
:1016400001460020034A106800F03800084310608B
:1016500070470000002002402DE9F04102460025BD
:101660000026002000230024002791F803C00CF07E
:101670000F0591F803C00CF0100CBCF1000F03D063
:1016800091F802C04CEA050591F800C0BCF1000FCA
:1016900031D0146800202BE04FF0010C0CFA00F35D
:1016A000B1F800C00CEA03069E4220D183004FF03F
:1016B0000F0C0CFA03F7BC4305FA03FC4CEA0404D4
:1016C00091F803C0BCF1280F06D14FF0010C0CFAC1
:1016D00000FCC2F814C00AE091F803C0BCF1480F46
:1016E00005D14FF0010C0CFA00FCC2F810C0401CF0
:1016F0000828D1D31460B1F800C0BCF1FF0F34DD6D
:10170000546800202EE000F1080C4FF0010808FAA0
:101710000CF3B1F800C00CEA03069E4221D183000D
:101720004FF00F0C0CFA03F7BC4305FA03FC4CEA2C
:10173000040491F803C0BCF1280F05D100F1080C96
:1017400008FA0CF8C2F8148091F803C0BCF1480FF5
:1017500007D100F1080C4FF0010808FA0CF8C2F8A4
:101760001080401C0828CED35460BDE8F081416150
:101770007047016170471CB504460020019000903D
:1017800000F0A0FA4FF4803000F05EFB00F0C0FBE8
:1017900000900098012826D11020FFF743FF022077
:1017A000FFF74EFF002000F043FB002000F084FB19
:1017B0004FF4806000F074FB21464FF4803000F05D
:1017C0008DFB012000F084FB00BF392000F00AFBF4
:1017D0000028FAD0022000F08FFB00BF00F020FBB1
:1017E0000828FBD101E000BFFEE71CBD00BFFEE7FB
:1017F00008B50121082000F055FA4FF48070ADF8CB
:10180000000003208DF8020010208DF803006946C7
:101810002648FFF721FF4FF40060ADF800000320D9
:101820008DF8020010208DF8030069461F48FFF76D
:1018300013FF4FF48060ADF8000003208DF8020024
:1018400010208DF8030069461848FFF705FF402077
:10185000ADF8000003208DF8020010208DF8030081
:1018600069461248FFF7F8FE8020ADF8000003201B
:101870008DF8020004208DF8030069460B48FFF73D
:10188000EBFE4FF480710948FFF773FF4FF40061DE
:101890000648FFF76EFF4FF480610448FFF769FFC9
:1018A00040210248FFF763FF08BD0000000C014023
:1018B00008B50121042000F0F5F94FF48070ADF86F
:1018C000000018208DF8030003208DF802006946FF
:1018D0000148FFF7C1FE08BD0008014008B501211D
:1018E000082000F0DFF94FF48050ADF8000003202D
:1018F0008DF8020010208DF8030069461748FFF7A5
:10190000ABFE4FF40050ADF8000003208DF802004C
:1019100010208DF8030069461048FFF79DFE4FF434
:101920000040ADF8000003208DF8020010208DF873
:10193000030069460948FFF78FFE4FF480510748BE
:10194000FFF717FF4FF400510448FFF710FF4FF463
:1019500000410248FFF70BFF08BD0000000C0140EA
:1019600070B50546002411264FF480513448FFF726
:10197000FEFE012000F08AFF4FF400513048FFF7CF
:10198000F6FE012000F082FF00BF26E006F0800096
:1019900028B94FF400412A48FFF7E9FE04E04FF46C
:1019A00000412748FFF7E5FE012000F06FFF4FF4EC
:1019B00000512348FFF7DDFE012000F067FF4FF4E0
:1019C00000511F48FFF7D3FE012000F05FFF4FF6E4
:1019D000FF7000EA4606601C84B2082CD6DB0024A7
:1019E00026E005F0800028B94FF400411448FFF7C5
:1019F000BEFE04E04FF400411148FFF7BAFE01209B
:101A000000F044FF4FF400510D48FFF7B2FE0120F3
:101A100000F03CFF4FF400510948FFF7A8FE0120F9
:101A200000F034FF4FF6FF7000EA4505601C84B2F9
:101A3000082CD6DB4FF480510148FFF79AFE70BDA9
:101A4000000C014000BFFEE7704708B54FF4C060CE
:101A500000F048F826208DF8000001208DF80100E4
:101A600005208DF8020001208DF80300684600F083
:101A700001F808BD70B5002100230F22C47804B31B
:101A8000154C246804F4E064C4F5E064210AC1F153
:101A90000403CA40447804FA03F1847814402143D3
:101AA00009010E4C0678A155047804F01F050124A5
:101AB000AC4005786D11AD0005F1E025C5F8004199
:101AC00009E0047804F01F050124AC40044D0678B9
:101AD000761145F8264070BD0CED00E000E400E012
:101AE00080E100E002490143024A116070470000B2
:101AF0000000FA050CED00E02DE9FC5F0446894684
:101B00002078002840D14FF07E516068FEF784FBBA
:101B100007464946FEF77AFB0546606AFEF774FD04
:101B20000190216A4800FEF76FFD29460090FEF7FC
:101B300070FB83460199FEF717FB8246A169FEF709
:101B40006BFB074629466069FEF766FB0190206A39
:101B5000FEF75AFD29460090FEF75BFB834621699C
:101B6000FEF75AFB82460199FEF7FEFA8046394697
:101B7000FEF7FAFA0646206A60622846FEF752FD32
:101B800020623046BDE8FC9F4FF07E516068FEF752
:101B900043FB07464946FEF739FB054626480560E4
:101BA00029462069FEF738FB234948602846FEF79E
:101BB00066FD0746214A224BFEF78CFD1AD82846BF
:101BC000FEF75DFD07461D4A1E4BFEF76BFD11D863
:101BD00029466069FEF720FB80464FF07E51FEF7F4
:101BE0001BFB0746144881683846FEF7BDFA1249C8
:101BF000886002E0002010498860206AFEF704FD3A
:101C000080462946FEF705FB0746A169FEF704FB5F
:101C10000949C8600A4691685068FEF7A5FA074668
:101C20000548C1683846FEF79FFA06462846FEF783
:101C3000F9FC20623046A5E7880000209A9999991E
:101C40009999E9BF9999E93F704700000146002042
:101C5000034A506820F44040084350607047000039
:101C60000010024029B1064A52690243044B5A61EE
:101C700004E0034A52698243014B5A6170470000F5
:101C80000010024029B1064AD2690243044BDA61CE
:101C900004E0034AD2698243014BDA6170470000D5
:101CA0000010024029B1064A92690243044B9A612E
:101CB00004E0034A92698243014B9A617047000035
:101CC000001002400F48006840F001000D49086014
:101CD000084640680C4908400A49486008460068C0
:101CE0000A490840074908600846006820F4802037
:101CF00008600846406820F4FE0048604FF41F006A
:101D000088607047001002400000FFF8FFFFF6FEF9
:101D100030B500210022002400232D4D6D6805F010
:101D20000C0121B1042905D0082923D105E0294D52
:101D3000056022E0274D05601FE0254D6D6805F424
:101D40007012234D6D6805F48034022505EB924234
:101D50001CB9214D554305600BE01D4D6D6805F420
:101D600000351DB11C4D5543056002E0194D55432A
:101D7000056002E0174D056000BF00BF144D6D689F
:101D800005F0F0010909154D6B5C0568DD40456003
:101D90000F4D6D6805F4E061090A104D6B5C4568F4
:101DA000DD4085600A4D6D6805F46051C90A0B4D30
:101DB0006B5C4568DD40C560054D6D6805F44041CC
:101DC000890B074D6B5CC568B5FBF3F5056130BD4C
:101DD0000010024000C0A800006054000000002075
:101DE0001000002010B501460022002300204A11F7
:101DF000012A02D1094C236806E0022A02D1074CCD
:101E0000236A01E0054C636A01F01F02012494403B
:101E10001C400CB1012000E0002010BD0010024069
:101E20000248406800F00C007047000000100240BB
:101E300001460020034A506820F0F000084350603B
:101E400070470000001002401149096821F48031F8
:101E50000F4A11601146096821F480211160B0F524
:101E6000803F03D0B0F5802F0ED106E00849096805
:101E700041F48031064A116007E00549096841F4E0
:101E8000A021034A116000E000BF00BF70470000BE
:101E9000001002400149C871704700000010024064
:101EA00001460020034A506820F4E0600843506077
:101EB000704700000010024001460020034A5068AD
:101EC00020F4605040EAC1005060704700100240AA
:101ED00001490866704700000000424202460020A7
:101EE000044B586820F47C1042EA01031843014B6C
:101EF000586070470010024001460020034A5068B5
:101F000020F00300084350607047000000100240BA
:101F100038B5002000900024002500BF3120FFF7D5
:101F200061FF05460098401C00900098B0F5A06F36
:101F300001D0002DF2D03120FFF754FF08B1012469
:101F400000E00024204638BD2DE9F84F4FF0000A8C
:101F5000D34647490888FEF760FB0090FEF78FFBE9
:101F600080464FF06632434BFEF76DFA064600227C
:101F7000414BFEF7DAFA0446FEF7C4FB3C49C86061
:101F80004888FEF74AFB0090FEF779FB06464FF0C3
:101F90006632384BFEF757FA80460022364BFEF782
:101FA000C4FA0446FEF7AEFB314948618888FEF763
:101FB00034FB0090FEF763FB80464FF066322D4BFA
:101FC000FEF741FA064600222B4BFEF7AEFA044616
:101FD000FEF798FB26498861C8682849FEF71CF976
:101FE0000090FEF74CFB0646254A264BFEF79DFA6D
:101FF00080460022244BFEF723FA0446FEF782FBBC
:102000001B4988608868FEF73AFB064600221F4B92
:10201000FEF78BFA044600F047FC8046FEF772FBA1
:1020200082461B495046FEF729F98046FEF727FBFA
:102030000646184A184BFEF75FF90446FEF762FBA6
:1020400083465846FEF71BFB804642460B4600205F
:102050001249FEF76AFA06464FF06632104BFEF759
:10206000ECF90446FEF74EFB01490861BDE8F88F24
:102070005801002066660A400000B04000401C463F
:10208000130F289B720509400070C74000FAC44036
:1020900000A0574583DBB5DCE1796B3F0000F03FE2
:1020A00066127140704710B500F002F810BD0000D4
:1020B0000CB50020019000903348006840F4803057
:1020C0003149086000BF3048006800F400300090DB
:1020D0000198401C0190009818B90198B0F5A06FC4
:1020E000F1D12948006800F4003010B101200090BF
:1020F00001E0002000900098012843D123480068A7
:1021000040F01000214908600846006820F00300F4
:1021100008600846006840F0020008601A484068FD
:10212000194948600846406848600846406840F4DD
:10213000806048600846406820F47C10486008468B
:10214000406840F4E81048600846006840F080703D
:10215000086000BF0C48006800F000700028F9D04B
:102160000948406820F00300074948600846406875
:1021700040F00200486000BF0348406800F00C00D7
:102180000828F9D10CBD00000010024000200240D8
:10219000014A1080704700003200002002480068A9
:1021A000401C0149086070471400002010B5134816
:1021B000006840F001001149086008464068104975
:1021C00008400E494860084600680E4908400B491F
:1021D00008600846006820F48020086008464068CF
:1021E00020F4FE0048604FF41F008860FFF75BFF9B
:1021F0004FF000600449086010BD0000001002406C
:102200000000FFF8FFFFF6FE08ED00E010B5012129
:10221000244800F09FF8002843D023480068401C61
:102220002149086021480068401C20490860204876
:102230000068401C1E4908601C4800680A2804D336
:1022400000201A490860FFF77FFE174800686428DD
:102250000BD30020144908601648006880F4807091
:102260001449086001201449088011480068B0F53D
:102270007A7F12D300200E49086010490A88096845
:10228000491C0E4B90B21960FFF76AFB0B480068BF
:10229000FF2802D90020094908600121014800F007
:1022A0004AF810BD000400401C000020200000205F
:1022B000240000200C0C01403000002028000020E9
:1022C00010B50121164800F045F840B315480068E4
:1022D000401C14490860144800880968884205D1E8
:1022E0004FF480611148FFF744FA14E00D4800688C
:1022F000642810D30C48008828B94FF480610B483B
:10230000FFF737FA04E04FF480610848FFF72FFA2F
:102310000020044908600121014800F00CF810BDBC
:10232000000800402C00002032000020000C01407A
:10233000CA4302827047CA430282704721B10288B1
:1023400042F00102028004E002884FF6FE731A4058
:102350000280704730B50246002000230024158A11
:1023600005EA0103958905EA010413B10CB10120C6
:1023700000E0002030BD1AB183890B43838102E065
:1023800083898B4383817047002202881D4B9842CA
:102390000ED01D4B98420BD0B0F1804F08D01B4B94
:1023A000984205D01A4B984202D01A4B984204D159
:1023B0004FF68F731A404B881A43174B984207D039
:1023C000164B984204D04FF6FF431A40CB881A436D
:1023D00002808B8883850B8803850A4B98420BD03B
:1023E000094B984208D00E4B984205D00D4B9842AD
:1023F00002D00D4B984201D10B7A038601238382D0
:1024000070470000002C01400034014000040040EF
:1024100000080040000C0040001000400014004084
:1024200000400140004401400048014010B540F226
:102430002551124800F04AF8F8B1104800F002F9AE
:10244000C1B20F4802880088401C0D4B18800D480F
:1024500081541846008803280FDB002019460880A5
:10246000084800780749C1F8A00008464078C1F83C
:10247000A40008468078C1F8A80010BD00440040C0
:1024800018000020AC00002001F40072B2F5007FBB
:1024900000D100BFCA430280704721B1828942F453
:1024A0000052828104E082894DF6FF731A408281D6
:1024B000704702460020B1F5007F00D100BF1388AD
:1024C0000B400BB1012000E00020704770B50246C0
:1024D000002400230025002040F66A16B14200D1F6
:1024E00000BFC1F3421501F01F03012606FA03F3F2
:1024F000012D02D19689334006E0022D02D1168AC1
:10250000334001E0968A33400C12012606FA04F4A7
:102510001688344013B10CB1012000E0002070BDDA
:10252000F0B50346002400260025002040F66A1777
:10253000B94200D100BF1846C1F3421401F01F0692
:10254000012707FA06F5012C01D10C3004E0022C1A
:1025500001D1103000E014301AB107682F43076032
:1025600002E00768AF430760F0BD00002DE9F047C7
:1025700086B005460E460024A24600BFA1460027AD
:10258000B08900B100BF2F462C8A4CF6FF70044082
:10259000F08804432C82AC894EF6F3100440B088D6
:1025A00031890843718908430443AC81AC8A4FF6F2
:1025B000FF400440B0890443AC8201A8FFF7A8FBA8
:1025C0001F48874202D1DDF810A001E0DDF80CA021
:1025D000A88900F4004040B10AEBCA0000EB0A10E1
:1025E00031684900B0FBF1F807E00AEBCA0000EBE4
:1025F0000A1031688900B0FBF1F86420B8FBF0F0F4
:1026000004012009642101FB1089A88900F400401D
:1026100040B1322000EBC900B0FBF1F000F0070040
:10262000044308E0322000EB09106421B0FBF1F014
:1026300000F00F0004432C8106B0BDE8F0870000D5
:102640000038014001468888C0F308007047C1F394
:10265000080282807047000000B58BB00121084657
:10266000FFF700FBFEF793FC114800901148019022
:10267000102002903B2003900020049080200590C1
:1026800000200690079020200890C00109900020AB
:102690000A9069460848FEF75CFC01210648FEF7EF
:1026A00087FB012202210448FEF74AFC0BB000BD63
:1026B00004440040A40100204400024000BFFEE7A3
:1026C00000B585B0FFF7C1F901214804FFF7DAFA38
:1026D00001210520FFF7E6FA0420ADF810001820CC
:1026E0008DF8130003208DF8120004A91948FEF795
:1026F000B3FF0820ADF8100004208DF8130003206C
:102700008DF8120004A91348FEF7A6FF4FF4E1303C
:1027100000900020ADF80400ADF80600ADF8080008
:10272000ADF80C000C20ADF80A0069460A48FFF726
:102730001DFF012240F225510748FFF7F1FE01215C
:102740000548FFF7AAFEE0210348FFF79DFE05B00C
:1027500000BD0000000801400044004010B50446E0
:1027600021460548FFF773FF00BF80210248FFF7AD
:10277000A0FE0028F9D010BD0044004070B5054609
:102780000E46002400BF285DFFF7E8FF641CB4423A
:10279000F9D370BD2DE9F0414F1E00EBC70104468F
:1027A000D1E9000115461E4637F006020DD02A4633
:1027B0003346FDF748FE7F1E04EBC703D3E9002331
:1027C000FDF79AFD37F00602F1D1022F25D0042F34
:1027D00013D0062F18BFBDE8F0812A463346FDF717
:1027E00032FED4E90A23FDF787FD2A463346FDF77A
:1027F0002AFED4E90823FDF77FFD2A463346FDF77C
:1028000022FED4E90623FDF777FD2A463346FDF77D
:102810001AFED4E90423FDF76FFD2A463346FDF77F
:1028200012FED4E90223FDF767FD2A463346FDF781
:102830000AFED4E90023BDE8F041FDF75DBD0000CC
:102840000022134610460149FDF76FBE0000F03F1D
:102850000122FEF732B80022134610461146FDF75A
:1028600064BE02E008C8121F08C1002AFAD17047EE
:102870007047002001E001C1121F002AFBD1704700
:1028800001490860704700005C000020002107E05B
:10289000002201E0531C9AB28242FBDB4B1C99B22E
:1028A0000329F5DB704700002DE9F04DC84A0024EC
:1028B00090B0914205DA21F00043934201D805D14E
:1028C00020B110B0BDE8F04DFFF7C2BFB1F5801FD9
:1028D0001BDA53EA000209D0002911DA0120FFF7C0
:1028E000CFFF10B0BDE8F04DFFF7B5BF0220FFF7F6
:1028F000C7FFFFF7A5FF10B081F00041BDE8F08DE4
:102900006FF035043622FDF7D8FF04EB2152C1F3F6
:102910001308B049A2F2FF33414401F4801282F05F
:102920007F6103EB225281F04051009241EA08019D
:102930000022A94BFDF781FD044608F10200A74ED5
:10294000C0F313000D467E44032867D2D6E9002366
:102950002046FDF7A7FE1ED10098002802BFD6E949
:10296000000110B0BDE8F08DFDF7BEFF07460C4634
:102970009B4A9C4BFDF767FD06460D469A4A9B4BCA
:1029800038462146FDF75FFD10B032462B46BDE8C4
:10299000F04DFDF7B1BC4FF05532954B204629461E
:1029A000FDF751FD0022934BFDF74AFD06460F4609
:1029B00022462B4610461946FDF745FD32463B465A
:1029C000FDF741FD064600980F46F0B1FDF78CFF7C
:1029D00080468A46824A834BFDF735FD32463B46A8
:1029E000FDF72EFD22462B46FDF727FD05460C463A
:1029F0007D4A7E4B40465146FDF725FD10B02A46E4
:102A00002346BDE8F04DFDF718BD0B4610B0324629
:102A100020462946BDE8F04DFDF70FBD00224FF0DE
:102A200080432046FDF768FC02460B4620462946B7
:102A3000FDF77BFD06460F460098FDF755FFCDE9F3
:102A4000040132463B4610463946FDF7FCFC0C902B
:102A500069480C9A4044019009910B461046FDF7D5
:102A6000F2FC8246024665488B46C8F151080B4687
:102A700008F5D72803217844FFF78CFE52465B46C1
:102A8000FDF7E1FC0A905E480D9152465B46042139
:102A90007844FFF77FFE099B0C9AFDF7D4FC84462F
:102AA00001980D9B40EA080860460A9AFDF724FC4D
:102AB00083460891B8F1000F4EDD4FF0FF322046FB
:102AC0002946FDF7FAFE22462B46FDF7BCFC804660
:102AD00000988A4660B3DDE90401414A414BFDF7A5
:102AE000B2FC099100905A4640465146089BFDF7BA
:102AF00003FC32463B46FDF7A6FC099B009AFDF716
:102B0000FBFB42465346FDF79BFC22462B46FDF756
:102B100094FC04460D46DDE90401334A334BFDF7CE
:102B200092FC10B022462B46BDE8F04DFDF785BC67
:102B30005A464046089BFDF7DFFB32463B46FDF711
:102B400082FC42465346FDF77BFC10B022462B46E2
:102B5000BDE8F04DFDF774BC009840B3DDE9040119
:102B60001F4A204BFDF76FFC80468A465A46204696
:102B70002946089BFDF761FC32463B46FDF763FCA6
:102B800042465346FDF759FC22462B46FDF755FCBD
:102B900004460D46DDE90401134A144BFDF753FCCE
:102BA00010B022462B46BDE8F04DFDF746BC0B4663
:102BB0005A4620462946FDF740FC32463B46FDF783
:102BC00042FC10B022462B46BDE8F04DFDF738BC64
:102BD0000000F07F645F09000000F03FB6030000D2
:102BE000763C7935EF39EA3D0000E0FE422EE63FC3
:102BF0005555D53F0000E03F86EBF9FF4E0200003F
:102C00004C0200004FF48010FEF7B5FDFEF750FEB9
:102C10000420FFF73FF9FEF76DF8FEF719F800F012
:102C200017F8FDF789FFFFF74BFDFFF715FDFEF7DE
:102C300055FEFEF7DDFD08E004480088012804D1B8
:102C4000002002490880FEF7B7F9F5E730000020C0
:102C500010B50120164908701648486016480861EA
:102C60001648486100208861086248620869144972
:102C7000FDF7D2FA0446FDF7EEFC1249C1F8A000B8
:102C80000B4948690E49FDF7C7FA0446FDF7E3FC16
:102C90000C49C1F8A400064988690949FDF7BCFA46
:102CA0000446FDF7D8FC0749C1F8A80010BD000094
:102CB00060000020000014429A99193F6F12033AF5
:102CC0000000C842AC00002004FA97999999D93FB6
:102CD000AF788E1DC571CC3F9FC678D0099AC33F8F
:102CE000935555555555E53F599322942449D23F64
:102CF000DE03CB966446C73F44523EDF12F1C23F2B
:102D00000000000000000000282D00080000002046
:102D10006000000062280008882D00086000002084
:102D20008011000072280008000000000102030466
:102D30000102030406070809020406080000000057
:102D40000000000000000000000000000000000083
:102D50000000000000000000000000000000000073
:102D60000000000000000000000000000000000063
:102D70000000000000000000000000000000000053
:082D800000000000000000004B
:0400000508000131BD
:00000001FF
