:020000040800F2
:10400000FFFFFFFFFFFFFFFFFFFFFFFF04000100B7
:1040100000000000000000000000000000000000A0
:104020000000000000000000000000000000000090
:104030000000000000000000000000000000000080
:104040000000000000000000000000000000000070
:104050000000000000000000000000000000000060
:104060000000000000000000000000000000000050
:104070000000000000000000000000000000000040
:104080000000000000000000000000000000000030
:104090000000000000000000000000000000000020
:1040A0000000000000000000000000000000000010
:1040B0000000000000000000000000000000000000
:1040C00000000000000000000000000000000000F0
:1040D00000000000000000000000000000000000E0
:1040E00000000000000000000000000000000000D0
:1040F00000000000000000000000000000000000C0
:1041000000000000000000000000000000000000AF
:10411000000000000000000000000000000000009F
:10412000000000000000000000000000000000008F
:10413000000000000000000000000000000000007F
:10414000000000000000000000000000000000006F
:10415000000000000000000000000000000000005F
:10416000000000000000000000000000000000004F
:10417000000000000000000000000000000000003F
:10418000000000000000000000000000000000002F
:10419000000000000000000000000000000000001F
:1041A000000000000000000000000000000000000F
:1041B00000000000000000000000000000000000FF
:1041C00000000000000000000000000000000000EF
:1041D00000000000000000000000000000000000DF
:1041E00000000000000000000000000000000000CF
:1041F00000000000000000000000000000000000BF
:104200005013002079440008E1AB0008AF9100088A
:10421000919F000857650008D9C7000800000000FA
:104220000000000000000000000000008B440008B7
:10423000316C0008000000008F440008E5BE000853
:1042400093440008934400089344000893440008F2
:1042500093440008934400089344000893440008E2
:1042600093440008934400089344000893440008D2
:1042700093440008934400089344000893440008C2
:1042800093440008934400089344000893440008B2
:1042900093440008934400089344000893440008A2
:1042A0009344000893440008934400089344000892
:1042B00049BF00089344000859BF00089344000810
:1042C0009344000893440008934400089344000872
:1042D0009344000865C500089344000875C50008AC
:1042E0009344000893440008934400089344000852
:1042F0009344000893440008934400089344000842
:104300009344000893440008F9BF00089344000850
:10431000934400089344000809C0000859C00008ED
:104320009344000893440008934400089344000811
:1043300000F002F800F090F80AA090E8000C824427
:104340008344AAF10107DA4501D100F085F8AFF204
:10435000090EBAE80F0013F0010F18BFFB1A43F063
:10436000010318474496000064960000103A24BFE9
:1043700078C878C1FAD8520724BF30C830C144BFCA
:1043800004680C607047000000230024002500260C
:10439000103A28BF78C1FBD8520728BF30C148BFA8
:1043A0000B6070476E2900F01784702900F04F8170
:1043B000662908F04B83652908F04883672908F0CF
:1043C0004583612908F0448303681B0A28BF41F034
:1043D0008001692900F0C483642900F0C183752934
:1043E00000F0BE836F2900F0FD84782900F01B8166
:1043F000E92900F09784E42900F09484F52900F07D
:104400009184EF2900F0FA84F82900F01A810368FA
:10441000DB0928BF41F08001632900F0188473296B
:1044200000F01D84E32901F0A381F32901F0A881A4
:10443000002070471FB501F03BFA04000020002166
:1044400008F0D8FA401C60600020002108F0E8FA6B
:10445000E0601FBD10B510BD01F005FA1146FFF771
:10446000E9FF08F061FA01F0E3FA03B4FFF7F2FFA5
:1044700003BC01F0E7FA00000948804709480047FB
:10448000FEE7FEE7FEE7FEE7FEE7FEE7FEE7FEE704
:10449000FEE7FEE704480549054A064B7047000061
:1044A000F1BE000831430008500D002050130020D9
:1044B000500F0020500F0020B2F120030AD5C2F1A6
:1044C000200320FA02F001FA03F321FA02F140EA94
:1044D0000300704721FA03F04FF00001704700001D
:1044E0001CB50C46064B7B4469460090204600F004
:1044F0008CFB04460020694600F09AFB20461CBD58
:10450000470700000FB41CB5084B06AA7B44694658
:104510000090059800F079FB04460020694600F001
:1045200087FB20461CBC5DF814FB0000210700003F
:1045300070B5044685690068C10601D5302600E0E3
:104540002026C00707D070BDD4E90121304690472E
:10455000206A401C20626D1EF6D570BD70B5044601
:1045600085690078C00707D170BDD4E901212020FA
:104570009047206A401C20626D1EF6D570BD70B554
:104580000C460546012A05D02878800600D5EA6940
:10459000002302E0012305E05B1C934202D2E05CB1
:1045A0000028F9D1A869E618C01AA861286A184439
:1045B00028622846FFF7BCFF04E0D5E9012114F882
:1045C000010B9047B442F8D32846FFF7C7FF70BDF0
:1045D000F0B40D460188090502D5214C7C4402E067
:1045E0001F4C7C440E34002100F1240608E002F048
:1045F0000F071209E75D42EA03721B097754491C51
:1046000052EA0307F3D102780023120704D5702D74
:1046100006D009B1022311342246F0BC00F046BA9C
:1046200001231034F8E770B504460D4621461068A2
:1046300000F033FA024629462046BDE870400023C8
:10464000C6E7D21D22F00703D3E90023C0E70368C1
:10465000126843F0200303600823C3610023B7E717
:10466000C89200002DE9F05F894604464FF0000A29
:10467000DFF874B1FB44C0F820A02046E168884709
:10468000002874D0252806D0D4E901219047206A5B
:10469000401C2062F1E700265F462046E16888471B
:1046A0002028054607DB312D05D2781910F8200C9B
:1046B00008B10643F1E7B00701D526F00406C4F8B7
:1046C0001CA00027C4F818A02A2D09D0284608F0FD
:1046D00099F838B304EB8708303DC8F8185019E052
:1046E00059F8041B204604EB87029161E168884772
:1046F000012F054618D1E069002820DA26F02006AF
:104700001DE0D8F8180000EB800005EB40003038C1
:10471000C8F818002046E1688847054608F072F896
:104720000028EED1012F0AD02E2D08D12046E168B5
:1047300088477F1C0546022F46F02006C4DBA0698F
:10474000002803DA404246F00106A061F00701D0DC
:1047500026F010066C2D0BD0682D09D04C2D39D0C9
:104760006A2D35D0742D35D07A2D33D016E038E04F
:10477000E1682F4620468847B842054609D16C2F8C
:1047800026D04FF48060E1680643204688470546FE
:1047900004E06C2F1AD04FF4807006430DB3A5F1DE
:1047A0004100192802D8203546F400664A462946B9
:1047B000204626604E46FFF7F5FD80B101280BD05C
:1047C000F61D26F0070000F1080956E74020E4E74F
:1047D0008020D8E70020D6E706F104094DE72846F7
:1047E00052E7206ABDE8F09F5892000070B5064677
:1047F00000F046F90468054630460A22002100F020
:1048000007FB2C6070BD10B5431C02E010F8011BC3
:1048100071B18107FAD14FF0013202C88C1A8C4372
:1048200014EAC211F9D0C01A0A0603D0C01E10BD86
:10483000C01A10BD0A0401D0801E10BD0902FCD0B0
:10484000401E10BD032A40F2308010F0030C00F02F
:10485000158011F8013BBCF1020F624498BF11F8BA
:1048600001CB00F8013B38BF11F8013BA2F1040273
:1048700098BF00F801CB38BF00F8013B11F00303EB
:1048800000F0FE82083AC0F0088051F8043B083A74
:1048900051F804CBA0E80810F5E7121D5CBF51F8F1
:1048A000043B40F8043BAFF30080D20724BF11F86B
:1048B000013B11F801CB48BF11F8012B24BF00F8D0
:1048C000013B00F801CB48BF00F8012B7047431AA9
:1048D00028BF9A427FF6B6AF032A1044114440F233
:1048E000268010F0030F1EBF11F8013D521E00F884
:1048F000013D10F0030F7FF4F6AF11F0030300F059
:104900000483083AC0F00B8051F8043D083A51F88E
:1049100004CD40F8043D40F804CDFFF7F3BF121D6D
:104920005CBF51F8043D40F8043DAFF30080D2076E
:1049300024BF11F8013D11F801CD48BF11F8012C39
:1049400024BF00F8013D00F801CD48BF00F8012C5C
:1049500070474FF0000200B5134694469646203942
:1049600022BFA0E80C50A0E80C50B1F12001BFF428
:10497000F7AF090728BFA0E80C5048BF0CC05DF88E
:1049800004EB890028BF40F8042B08BF704748BFDC
:1049900020F8022B11F0804F18BF00F8012B704750
:1049A00010B5044610F0030F08BF11F0030F40F0DC
:1049B00015804FF0013E121FC0F20E8051F8043BEB
:1049C000A3EB0E0C2CEA030C1CEACE1C08BF40F82B
:1049D000043BF0D0A1F1040102F10402521E08DBF5
:1049E00011F8013B002B00F8013BF7D1114600F014
:1049F000B6FA204610BD00004FF0013C50F8042BE1
:104A000051F8043B9A4221D1A2EB0C03934313EAE1
:104A1000CC1317D150F8042B51F8043B9A4215D10E
:104A2000A2EB0C03934313EACC130BD150F8042BE5
:104A300051F8043B9A4209D1A2EB0C03934313EAC9
:104A4000CC13DBD04FF00000704700BFD01A01BA82
:104A5000B1FA81F101F0180122FA01F0CB40C1F165
:104A60002001DBB2C0B2C01A2CFA01F3D11A914373
:104A700011EAC311E6D170477047704770470000D4
:104A800000487047F00C002009684A0501D540B283
:104A90007047C905FCD500B2704709684A0501D5C1
:104AA000C0B27047C905FCD580B270472DE9F04708
:104AB0000D4699469246044600F12408016888068E
:104AC00004D5E06921F01001216000E00120A84236
:104AD00001DD471B00E00027A1697A1902EB0900FC
:104AE000081AA0612078C00602D42046FFF720FDF6
:104AF000002608E0D4E901211AF806009047206A50
:104B0000401C761C20624E45F4DB2078C0060AD596
:104B10002046FFF70DFD06E0D4E901213020904743
:104B2000206A401C2062381EA7F10107F4DC07E070
:104B3000D4E9012118F805009047206A401C206242
:104B4000281EA5F10105F3DC2046FFF707FD2078BC
:104B5000000602D50220BDE8F0870120FBE7000037
:104B60002DE9F0410646002410687529314616A546
:104B700010D0FFF789FF002802DA404213A507E0B2
:104B800031688A0701D512A502E0490704D511A5AD
:104B9000012401E0FFF781FF00210A2206F124072A
:104BA00009E0B0FBF2FCB0FBF2F302FB1C0030307A
:104BB00078541846491C0028F3D123462A4630462B
:104BC000BDE8F041FFF772BF000000002D000000BB
:104BD0002B0000002000000011680268006A5305E5
:104BE00001D508700AE0D30501D5088006E0130658
:104BF00003D5C217C1E9000200E008600120704738
:104C000001694A1C02610878704700B58FB0CDE990
:104C100001310021059105497944CDE90310114680
:104C20006846FFF71FFD0FB000BD0000E5FFFFFF66
:104C30000A6802F8010B0A60704710B5436913B1A6
:104C4000AFF3008001E0FFF79AFC012010BD12785D
:104C500000F124010A7000224A700122EDE7116878
:104C60004FF0FF32E9E700002DE9FF5F15468A4665
:104C70000446DFF8AC80F8440027D8E900103E462F
:104C8000CDE9001010E03AF816106A4602A800F0CC
:104C9000CAFD411C07D02178890603D5E26939187D
:104CA00091420DD80744761C2078800602D5E06931
:104CB000B84205DDAE42E6DB3AF816000028E2D144
:104CC000A069C01BA0612046FFF732FCD8E90010A4
:104CD000CDE90010002017E03AF818106A4602A843
:104CE00000F0A1FDB0F1FF3F81460BD000250DF192
:104CF000080B05E0D4E901211BF8050090476D1C65
:104D00004D45F7D308F10100B0428046E4DB206A4C
:104D1000384420622046FFF721FCBDE8FF9F0000D9
:104D20006A8C00002DE9F0418046D21D22F0070276
:104D30000025D2E90002F52915A614D0011E72F152
:104D4000000106DA0023D0EB030063EB020211A698
:104D500008E0D8F800108B0701D50FA602E049073C
:104D600001D50EA601251146002408F1240704E010
:104D700000F024F930323A55641C50EA0102F7D1B0
:104D80002B46324621464046BDE8F041FFF78EBE35
:104D9000000000002D0000002B000000200000009B
:104DA00030B4002100F1240408E002F00705D20825
:104DB000303542EA4372DB086554491C52EA030568
:104DC000F3D10468002310A2250708D504F02004BD
:104DD0000C4304D0C46901230CA2641EC46130BC1E
:104DE000FFF764BE10B5044621461068FFF755FE74
:104DF00002462046BDE810400023D1E7D21D22F034
:104E00000701D1E90023CBE70000000030000000DB
:104E10002DE9F04791460F4680460446002614F8D7
:104E2000015B2DB100F0C2F80068405DC007F6D10B
:104E30002B2D02D02D2D18D0641E4A46394620460F
:104E400000F0A2FC27B13968A14201D1C7F8008067
:104E50004FF0020471050BD54042002803DDFFF737
:104E60000FFE0460A007BDE8F08746F48066E4E723
:104E70000028F8DAFFF704FE04606FF00040F2E764
:104E800010B5203AC0F00B80B1E81850203AA0E8E5
:104E90001850B1E81850A0E81850BFF4F5AF5FEA19
:104EA000027C24BFB1E81850A0E8185044BF18C9CC
:104EB00018C0BDE810405FEA827C24BF51F8043B73
:104EC00040F8043B08BF7047D20728BF31F8023BC7
:104ED00048BF11F8012B28BF20F8023B48BF00F85B
:104EE000012B7047431A28BF9A427FF6C9AF10447E
:104EF00010F0030F11441EBF11F8013D521E00F8BF
:104F0000013D10F0030F7FF4F6AF103AC0F00A80B5
:104F100010B531E91850103A20E91850BFF4F9AF34
:104F2000BDE81040530724BF31E9081020E90810FC
:104F300044BF51F8043D40F8043D12F0030F08BF90
:104F40007047D20728BF31F8023D48BF11F8012C45
:104F500028BF20F8023D48BF00F8012C70474FF0F1
:104F600000020429C0F0128010F0030C3FF4F3ACEF
:104F7000CCF1040CBCF1020F18BF00F8012BA8BF44
:104F800020F8022BA1EB0C01FFF7E5BC5FEAC17C26
:104F900024BF00F8012B00F8012B48BF00F8012BBB
:104FA0007047000000487047F00C002010B500F07A
:104FB0007FFC001D10BD00BF3D7A000030B5B0F190
:104FC0000A024FEA900E71F100034EEA817EB0EBC7
:104FD0000E0061EB91014FEA101E4EEA017E10EBCC
:104FE0000E0041EB11114FEA102E4EEA016E10EB4C
:104FF0000E0041EB11214FEA104E4EEA014E10EB2C
:105000000E0041EB1141401841F100014FEAD00080
:1050100040EA41704FEAD10110EB80054FEA81046C
:1050200044EA907444EB01046D1944EB0404521BF0
:10503000A3414FF0000348BF0A3200D530BD401CE9
:1050400041F1000130BD70472DE9FF4F0C461E466F
:105050004FF0FF378BB0D2E90001DDF860800A9095
:105060008A46C1F30A5505B93D46002108464FF06E
:105070000000BAF1000F00F4400005DA00EB8000F8
:105080004FF4400101EA50004FEA9059B9F1010F85
:1050900000DDB9460A9850EA4A000ED044F6105096
:1050A000A5F2FF3545432F14B8F1000F1ED075420D
:1050B000291E1EDDC9F100021CE0B8F1010F4FF0FE
:1050C000000001D0302103E0F24305E02154401CF0
:1050D000B042FBDB30460022002121540B99C1F87D
:1050E0000880C1E900200FB0BDE8F08FBD1B6D1C2A
:1050F000DEE74A4600DA694206A800F02BFC06AB60
:1051000093E8070003AB83E8070050460A9900F0D4
:10511000A0FC8DE80700A0F500501F380090039810
:10512000002D09DD42F21F014A46084403A90390FD
:10513000684600F0FFFE08E0A0F500504A461F3820
:1051400003A90390684600F009FF8DE807000004FA
:10515000000C03D04FF0FF30410800E01046B8F1DA
:10516000000F03D00022009215461EE0751E05D4E4
:10517000FFF724FF303262556D1EF9D5B346012288
:10518000084302D000227F1C04E02078302801D19F
:1051900000227F1E002A099786D01DE0112D07DA14
:1051A000FFF70CFF303262556D1C50EA0102F5D159
:1051B000084302D00098C8B10EE00021681E05E047
:1051C000235C625C63542254401E491C8142F7DB1D
:1051D000AB46A81B401E0990002004F80B000B985A
:1051E000099AC0F80880C0E9002B7CE711264FF02F
:1051F000000859E72DE9F04F88460446D21D22F0F9
:10520000070191B0D1E90001CDE90A0107F0E6FA02
:1052100002460B98C00F01D02D2007E020688107BF
:1052200001D52B2002E0202101EAC000032A0990C9
:1052300001D0072A05DB03464146204600F03CFB2F
:105240000BE12078800601D5E06900E00620B8F186
:10525000650F814606D0B8F1660F18D0B8F1670F18
:1052600070D131E00020B9F1110F009001DB112362
:1052700001E009F101030AAA01A90CA8FFF7E4FE65
:10528000DDE90C70002609F10105834647E00120A5
:105290004B4600904FF000470AAA01A90CA8FFF75F
:1052A000D3FEDDE90DB00C995D46002610B909F179
:1052B00001000D18B9EB050003D4C0F1FF3609F168
:1052C0000105A5EB09002BE0B9F1010F01DA4FF060
:1052D00001090020B9F1110F0090484601DD1123AA
:1052E00000E003460AAA01A90CA8FFF7ADFEDDE91C
:1052F0000C704D4600268346207800070AD4AB4543
:1053000000DA5D4601A8012D04DD411911F8011CE8
:10531000302907D04F4502DA17F1040F04DA0120D3
:1053200082460FE06D1EEEE7002F02DCED1B3E44CF
:1053300003E0781CA84200DD7D1CB81B00F1010AC7
:105340004FF000472078000703D4AA4501DB4FF057
:10535000FF3A0021B7F1004F0DF143088DF84310DB
:1053600024D002202B23002F01DA7F422D230A2193
:10537000021EA0F1010000DC5FB197FBF1FC97FB7E
:10538000F1F201FB1C7C17460CF1300C08F801CD42
:10539000EEE7A8F1010003702188090501D5452138
:1053A00000E06521A0F1010800F8011C09980FA98F
:1053B000A1EB0807FF1D00B10120411901EBEA70C4
:1053C000A1693844081A401EA0612078C00602D4A2
:1053D0002046FFF7ADF8099828B1D4E9012190479C
:1053E000206A401C20622078C00622D52046FFF7A4
:1053F0009FF81EE0002E04DBB34502DD01A8805DAE
:1054000000E03020D4E901219047206A401C20624E
:10541000761CAAF101005FEA000A0AD100F048FAFE
:10542000C0680168405CD4E901219047206A401CB3
:105430002062281EA5F10105DCDC07E0D4E901218A
:1054400018F8010B9047206A401C2062381EA7F113
:105450000107F3DC2046FFF781F8032011B043E693
:105460002DE9F04F04460D46D21D22F0070089B009
:10547000D0E9009248461746394607F0AFF9024690
:10548000F80F01D02D2307E02068810701D52B23D9
:1054900002E0202101EAC0038DF820300BB1012089
:1054A00000E00020032A824601D0072A04DB2946B7
:1054B000204600F001FA3DE12078800601D40D2558
:1054C00000E0E569C7F30A560D2D49DA00214FEADD
:1054D000175B08464FF00000002F00F4400007DA89
:1054E00000EB80004FF4400100EBD07001EA600057
:1054F0008115012901DD4FF0FF3100224FEA850CB3
:10550000BCF1180F06D31346ACF118004FF08052CF
:10551000C24003E04FF4801323FA0CF30CF10C0C9F
:10552000BCF1200F04D3ACF1200C09FA0CF001E01F
:1055300007FA0CF000294FF0004801DD18B90FE020
:105540000ED140450CD319EB02095F4121B940450A
:1055500002D19F4329EA0209BBEB175F00D0761CFA
:105560002088000502D57B48784402E079487844D9
:10557000193808AA302302F80A30037C0AF1010125
:10558000002E0AF1020A53546A4602DC4FF0300141
:1055900001E04FF031014FF001088DF8001002D00A
:1055A000A6F2FF3603E059EA470100D06A4E002D0B
:1055B00002DC2178090704D54FF002082E218DF86E
:1055C0000110C44600210BE0C7F303433F01C35C55
:1055D000491C6D1E02F80830052908F1010801DA9E
:1055E000002DF1DC00210CE000EB1973491C1B7845
:1055F0006D1E082902F808304FEA091908F1010860
:1056000001DA002DF0DC2178890602D514E0A8F13A
:105610000108E04505DD02EB080111F8011C302905
:10562000F5D0B8F1000F07DD02EB080111F8011CFD
:105630002E2901D1A8F10108002D05DD3E2102F837
:1056400008106D1E08F10108407C002E02F80800C9
:1056500008F1010804DA2D20764202F8080002E081
:105660002B2002F808000A214FF47A70864208F1D4
:1056700001080BDB96FBF0F3303302F8083096FBA1
:10568000F0F308F1010800FB136601E0642E0CDB67
:10569000642096FBF0F3303302F8083096FBF0F309
:1056A00008F1010800FB136601E00A2E06DB96FBF9
:1056B000F1F0303002F8080008F1010896FBF1F033
:1056C00001FB1060303002F80800A16908F1010800
:1056D00008EB050202EB0A00081AA0612078C00658
:1056E00002D42046FEF724FF216A08AE01EB0A002F
:1056F000206204E0D4E9012116F8010B9047BAF1C9
:10570000010AF7D22078C00602D52046FEF710FF26
:105710006E4609E016F8010B3E280FD0D4E90121AE
:105720009047206A401C2062B8F10108F2D220465E
:10573000FEF714FF09B00320BDE8F08F206A28446B
:10574000206203E0D4E90121302090476D1EEBD3A5
:10575000F8E700009383000002FCFFFF10B54369E7
:1057600013B1AFF3008001E0FFF77EFA012010BD16
:10577000128800F1240182840022C2840122EDE714
:1057800011684FF0FF32E9E72DE9F05F82461546D8
:105790008B4600270AF10104B9460078302801D071
:1057A0009DB113E014F8010B0127782803D0582885
:1057B00001D045B10AE00DB1102D07D1002714F832
:1057C000010B102502E0082500E00A250026B0465E
:1057D0000EE005FB080005FB06F101271FFA80F823
:1057E00001EB1046B6F5803F00D3B94614F8010B23
:1057F000294600F0A1F80028EBDABBF1000F05D034
:105800000FB1641E00E05446CBF80040B9F1000F20
:1058100006D0FFF735F902210160C81EBDE8F09FF0
:1058200048EA0640FAE770B516460C460546FFF70B
:10583000BDFB036893F80101012806D0FF2C0FD8A7
:10584000185D68B101202C7070BDD3F80701324695
:10585000214603F2071303442846BDE87040184769
:105860004FF0FF3070BD7546FFF79CFBAE4605005C
:105870006946534620F00700854618B020B5FEF76C
:1058800009FEBDE820404FF000064FF000074FF042
:1058900000084FF0000B21F00701AC46ACE8C0094E
:1058A000ACE8C009ACE8C009ACE8C0098D46704757
:1058B00000487047100D00202DE9F0411F460446B6
:1058C00003260168072A01F4006004DB08B116A56D
:1058D00005E016A503E008B115A500E015A521F027
:1058E00010002060A069C01EA0610FB1401EA06121
:1058F0002046FEF71DFE4FB1D4E9012138469047FE
:10590000206A401C2062C01C206206E0206AFAE780
:10591000D4E9012115F8010B9047761EF8D22046F4
:10592000FEF71CFEBDE8F0814E414E006E616E0038
:10593000494E4600696E66003A2800D2303820F0A1
:105940002002412A01D3A2F13700884201D34FF04F
:10595000FF3070472DE9F047814616468AB033483C
:1059600078440DC88DE80D0030487844801C03ACA5
:105970000DC884E80D0041F69B300844372190FBA8
:10598000F1F290FBF1F5A5F1800501FB12041B3C3F
:1059900002D56442012000E00020DFF890A080469C
:1059A0000027FA44AAF1BE0A0DE0E00709D032460A
:1059B000684607EB47010AEB810100F0CFFA8DE85A
:1059C000070064107F1C002CEFD1184F7F44AC3FC0
:1059D00018E0E80714D007EB04100DF1180A90E85E
:1059E0000E008AE80E00C068F04201D198190890B4
:1059F000324606A903A800F0B1FA03AB83E807001A
:105A00006D10641C002DE4D132466946B8F1000FD8
:105A100003A802D000F08EFA01E000F09FFAC9E975
:105A20000001C9F808200AB0BDE8F0872C8000000A
:105A300010B50446AFF300802046BDE81040FEF7E5
:105A400014BD000001491820ABBEFEE7260002008D
:105A500070475FEA400C08BF91F0000F4FEA8C23BB
:105A60004FEAC12243EA51514FEA1C5018BF00F5DA
:105A7000F0404FEA300018BF41F000415FEA6C5C33
:105A800000F02980BCF1FF3F08BF40F08040704724
:105A9000130C06BF12044FF0100C4FF0000C130E45
:105AA00004BF12020CF1080C130F04BF12010CF119
:105AB000040C930F04BF92000CF1020CD30F04BF2F
:105AC00052000CF1010C11464FF00002A0F11F0032
:105AD000A0EB0C00704711F0004F08BF704731F089
:105AE00000413FF4D5AF0B0C06BF09044FF0100C7A
:105AF0004FF0000C0B0E04BF09020CF1080C0B0F49
:105B000004BF09010CF1040C8B0F04BF89000CF1D8
:105B1000020CCB0F04BF49000CF1010CCCF12003A7
:105B2000A0EB0C0022FA03F302FA0CF241EA0301A3
:105B300000F10100704720F07F4C80EA030023F061
:105B40007F47ACEB070303F57C5300F0004003F103
:105B5000FF032DE980494FEA154B09B44FEA14437E
:105B600025EA0B4E24EA03480FF2042606EB13271E
:105B700049083E785FEA320203FB0667C7F5000773
:105B800007FB06F64FEA54374FEAD64606F10206FF
:105B900007FB066CCCF1005C4FEA1C472CEA074C73
:105BA00007FB06F40CFB06F504EB15464FEA9616C8
:105BB00034BF00204FF000404FEAD13706FB07FC0E
:105BC0004FEA1C4C0CFB0BF7D21B03FB0CF761EBF1
:105BD00007010CFB0EF7B0EB074072EB17420CFB12
:105BE00008F734BFA2EB0742B2EB074261EB174163
:105BF0004FEA0C444FEA910706FB07FC4FEA1C4CA6
:105C00000CFB0BF7B0EBC74072EB573203FB0CF702
:105C100034BFA2EBC742B2EBC74261EB57310CFB7A
:105C20000EF7B0EBC70072EB57720CFB08F734BFEE
:105C3000A2EBC702B2EBC70261EB5771039F4FEAB9
:105C4000816141EA921104EBCC044FEAD1374FEA6B
:105C5000826206FB07FC42EA90124FEA80604FEA3C
:105C60001C4C0CFB0BF7D21B03FB0CF761EB070181
:105C70000CFB0EF7B0EB074072EB17420CFB08F77A
:105C800034BFA2EB0742B2EB074261EB17414FEA88
:105C90008C554FEA910704EB9C2406FB07FC4FEA66
:105CA0001C4C0CFB0BF7B0EBC74072EB573203FBFD
:105CB0000CF734BFA2EBC742B2EBC74261EB5731DE
:105CC0000CFB0EF7B0EBC70072EB57720CFB08F73A
:105CD00034BFA2EBC702B2EBC70261EB577115EB01
:105CE0004C254FEA816141EA92114FEA82624FEA04
:105CF000D13742EA901206FB07FC44F100044FEA58
:105D000080604FEA1C4C0CFB0BF7D21B03FB0CF71B
:105D100061EB07010CFB0EF7B0EB074072EB17428B
:105D20000CFB08F734BFA2EB0742B2EB074261EB72
:105D3000174115EB1C154FEA813141EA92414FEAB8
:105D4000823242EA90424FEA80304FEA0C7644F1C8
:105D5000000448EA03434EEA0B484FF0000EB2EB52
:105D6000080C71EB030724BF624639464EEB0E0E5A
:105D70004FF0000B0018524149414BEB0B0BB2EBBB
:105D8000080C71EB03077BF1000B24BF6246394618
:105D90004EEB0E0E4FF0000B0018524149414BEBF9
:105DA0000B0BB2EB080C71EB03077BF1000B24BF6C
:105DB000624639464EEB0E0E51EA020718BF46F016
:105DC000010616EB0E7655F1000254F1000103D5E1
:105DD000BDE88901BDE80088BDE88901BDE800484B
:105DE000B619524141EB0101A3F1010370478080D4
:105DF0007F7E7D7C7B7A7978777676757473727125
:105E000071706F6E6E6D6C6C6B6A6A6968686766DC
:105E100066656464636362616160605F5F5E5E5D6E
:105E20005D5C5C5B5B5A5A595958585757565655E2
:105E300055555454535352525251515050504F4F44
:105E40004F4E4E4D4D4D4C4C4C4B4B4B4A4A4A4994
:105E500049494848484747474746464645454544D7
:105E60004444444343434342424242414141002B64
:105E700026D4770021D01CB54FEA370703B44FF082
:105E800010004FF010014FF000000FBCBDE81040B3
:105E90000BF1010BBBF1010F08BF5FEA170722BF2F
:105EA00012F1010211F101014FF0004143F1000331
:105EB00000F0004043EA00007047F9D35708DAE7E2
:105EC00046EA064613F1400F4FEA16461FDD13F16E
:105ED000200FDFBF16430A46002120335B42C8D0A3
:105EE000C3F1200746EA064602FA07F74FEA1646CC
:105EF00046EA0706C3F1200722FA03F201FA07F780
:105F000021FA03F14FF0000342EA0702B1E746EA43
:105F1000020646EA06464FEA164646EA0106BCBFB6
:105F200046EA0646360C4FF000034FF000024FF0F1
:105F300000019EE72DE9C048934630B491E838004F
:105F400007C831EA400C48BF34EA430C03D5FFF7D9
:105F5000F2FDFFF78CFFF0BCBDE800882DE9C048DA
:105F6000934630B491E8380007C810F0804F08BF5E
:105F700013F0804F03D100F005F8FFF778FFF0BC75
:105F8000BDE8008820F07F4780EA030023F07F4CC3
:105F900007EB0C03A3F57C5300F00040A3F1FE03D4
:105FA00092F0000F00F0B38095F0000F00F07780C2
:105FB0002DE901494FEA11404FEA144621EA004811
:105FC00000FB06FC24EA064708FB06F607FB08F878
:105FD00000FB07F718EB06484CEB164C4FEA124B48
:105FE00018EB07484FEA15464CEB174022EA0B4ED8
:105FF0000BFB06FC25EA06470EFB06F607FB0EFE2A
:106000000BFB07F71EEB064E4CEB164C4FF0000651
:106010001EEB074E4CEB174B18EB0B0840F1000042
:1060200018EB0E0B58EB000840F100008F1A4FF0F0
:1060300000013CBFC943661B14BFB5EB040C002133
:106040003CBFC943F61B4FEA17444EEA8E0E27EABF
:1060500004454FEA1C4704FB07622CEA074C05FB8A
:1060600007F70CFB05F604FB0CFC16EB074642EBAE
:10607000174216EB0C4642EB1C421BEB060658EB94
:106080000202414146EA9E0601D5BDE80189B619E2
:10609000524141EB0101A3F10103BDE801894FEA3F
:1060A00014454FEA114724EA054621EA074C05FB4F
:1060B00007F406FB07F70CFB06F105FB0CFC11EBE4
:1060C000074144EB17444FEA124711EB0C4144EBF4
:1060D0001C4422EA074C05FB07F206FB07F70CFB02
:1060E00006F605FB0CFC16EB074642EB174216EBD7
:1060F0000C4642EB1C456A1854F1000148BF70473A
:10610000B619524141EB0101A3F10103704795F02B
:10611000000F37D04FEA11424FEA144721EA0246F6
:1061200024EA074C02FB07F106FB07F70CFB06F419
:1061300002FB0CFC14EB074441EB17414FEA1547F7
:1061400014EB0C4441EB1C4125EA074C02FB07F51C
:1061500006FB07F70CFB06F602FB0CFC16EB0746EA
:1061600045EB174516EB0C4645EB1C42121951F155
:10617000000148BF7047B619524141EB0101A3F13C
:10618000010370474FEA14454FEA114724EA0546D8
:1061900021EA074C05FB07F106FB07F70CFB06F2AB
:1061A0004FF0000605FB0CFC12EB074241EB1741D8
:1061B00012EB0C4251EB1C4148BF7047921841EB67
:1061C0000101A3F101037047014800687047000016
:1061D000240A002001460A2903DA034800EBC10023
:1061E00070470020FCE700002C0A002001484068AE
:1061F00070470000240A00200148006E704700002C
:10620000240A00200148406E70470000240A002044
:106210000148806D70470000240A002010B5354801
:10622000354988604FF48041334881810222012141
:10623000083001F0D3F831492F4801618915818276
:1062400002220121103001F0C9F82A492A4881614F
:106250004FF40041818302220121183001F0BEF881
:1062600026492548016249158184022201212030F6
:1062700001F0B4F81F492048816201218185022282
:106280000021283001F0AAF81A491B4801630221B5
:10629000818602220021303001F0A0F8154916480D
:1062A00081630421818702220021383001F096F8B1
:1062B0001049114801640821A0F84410022200216D
:1062C000403001F08BF80B490B4881641021A0F895
:1062D0004C1002220021483001F080F805490648A0
:1062E00001652021A0F8541002220021503001F055
:1062F00075F810BD001C0140240A00200018014060
:1063000010B501F05FFC04F087FEFFF787FF002067
:1063100006F038F90D494860022006F033F90B49C0
:106320000860012005F0AEFB08498865002005F0F3
:10633000A9FB0649C865002004F070FC0349086603
:10634000012004F06BFC0149486610BD240A0020BE
:106350002DE9F84F04468A461546002C49D02046C0
:1063600000F0F3F88046204600F082F8A8EB000029
:10637000401E80B200900098854201DD009800E048
:1063800028460546B4F806B0268927685E4508DA2F
:10639000B8192A465146FEF755FA2089284420812B
:1063A00024E0204600F0D1F8801B1FFA80F8A845B1
:1063B00001DB284600E040468046A5EB08001FFAB6
:1063C00080F9B81942465146FEF73CFAB9F1000F80
:1063D00008D00AEB08014A463846FEF733FAA4F81B
:1063E000089002E020892844208100BF2846BDE8AB
:1063F000F88F0020FBE730B504460D468CB12046EF
:1064000000F023F868B921682289501C20818D543E
:106410002089A28890FBF2F302FB13002081012067
:1064200030BD0020FCE703464BB141B1012A06DD37
:1064300019609A8000201881D8800120704713B11C
:106440000020186098800020F8E730B5014669B157
:106450000B898C88581C90FBF4F504FB150082B264
:10646000C888904201D0002030BD00BF0120FBE76A
:1064700010B5014659B10A89CB888C889A4202DB53
:10648000D01A80B210BD1019C01A80B2FAE70020ED
:10649000F8E72DE9F84F044689461546002C38D018
:1064A0002046FFF7E5FF00900098A84201DB284650
:1064B00000E000980546E688B4F808B027685E4515
:1064C00005DCB9192A464846FEF7BCF91EE020460D
:1064D00000F03BF8801B1FFA80F8A84501DB284636
:1064E00000E040468046A5EB08001FFA80FAB91983
:1064F00042464846FEF7A6F9BAF1000F05D009EB6F
:10650000080052463946FEF79DF900BF2846BDE80F
:10651000F88F0020FBE770B504460E4615462A4664
:1065200031462046FFF7B5FF054665B15CB1E0880E
:10653000284482B2204600F008F892FBF0F100FBFC
:106540001120E08000BF284670BD014609B188884F
:1065500070470020FCE700BFFEE70000F8B503200D
:1065600000F0AFF805460026012414E0204600F0B4
:10657000AEF80090012C06D101226946084800F0CF
:1065800079FF064605E001226946054800F051FF03
:106590000646601C84B2AC42E8D33046F8BD000029
:1065A0000800002070B502464AF2010500200023D1
:1065B00013E014786040521C00240AE000F0010649
:1065C00026B140104AF20106704000E04010661CFF
:1065D000F4B2082CF2DB5C1CA3B28B42E9DB70BD89
:1065E00070B50246102A1ADB1D2A18DAA2F1100033
:1065F00083B203EB43000B4E06EB8000446803EBD1
:10660000430006EB80008568A14201DBA94205DD5D
:1066100003EB4300034E56F8200070BD00BF084650
:10662000FBE700000CD8000870B54022124901F1C8
:106630008400FFF72EFF05460DB9002070BD002431
:106640000D4E05E0305D0D2800D103E0601C84B2E2
:10665000AC42F7DB00BFAC4201D10020EEE7601C8A
:1066600082B2314604488430FFF755FF601C02496E
:10667000A1F840000120E1E78C02002070B5012064
:1066800000F01FF80446084884420BD1FFF766FF6C
:106690000546002000F015F80646B54201D101205C
:1066A00070BD00BF0020FBE74346472170B504469C
:1066B000204600F00CF8054629462046FFF790FFDB
:1066C00070BD10B504462046FFF7F0FF10BD2DE960
:1066D000F84304461D2C1DDA4FF6FF7000EA8405CE
:1066E00004226946284600F087FC9DF800009DF8CA
:1066F000011060F31F210E469DF802009DF8031063
:1067000060F31F210F46384666F31F40804640461F
:10671000BDE8F8830020FBE700B587B000F0F8FB88
:1067200014481549086000BF1448406940F0400013
:10673000124948610846406900F04000019000BFDE
:1067400000BF0D4800F0BDFEFFF798FF78B90CA11F
:10675000002000F0B3F900F027F803200290002099
:10676000069005900490039002A804F099F807B0F1
:1067700000BD000000300240080000200010024070
:10678000436F6E66696720466F756E64204572724E
:106790006F722120526573657420746F20446566A2
:1067A00061756C742121210070B510240DE0A4F1F5
:1067B000100085B205EB45000C4951F820603146C8
:1067C000204600F017F8601C84B21D2CEFDB08494E
:1067D000012000F043F80121022000F03FF81D21C4
:1067E000032000F03BF800F030F870BD0CD8000832
:1067F000434647212DE9F84305460C461D2D22DA74
:106800004FF6FF7000EA850921462846FFF7E8FEAB
:1068100004462646370C1FFA86F8380A8DF8000021
:10682000F8B28DF801004FEA18208DF8020008F048
:10683000FF008DF8030004226946484600F040FC42
:106840002046BDE8F8830020FBE710B5FFF786FE81
:1068500004462146002000F001F810BD70B5044642
:106860000D4629462046FFF7C5FF70BD10B5FFF75E
:10687000ABFC124908604022843101F14000FFF76F
:10688000D2FD0E49802301F1D0020868C43105F021
:10689000A1FE00200949A1F850014022084901F158
:1068A0004200FFF7C0FD002005494239A1F8A400CD
:1068B000C1F8900003A000F0BDF910BDF800002061
:1068C000CE0200207379730030B58BB0FFF7ACFEB9
:1068D0000546002D46D000200090019002900390C4
:1068E0000446059004F0CCFB05AA142106A804F088
:1068F00043FD002835D006A803F0E6F868BB04A9DC
:1069000006A804F013FD38B30AE006A8FDF76EFFF1
:106910002146621C94B24DF82100042C00D106E0FF
:1069200005AA142106A804F027FD0028EDD100BF18
:106930000D490498C1F890000B480099C0F89410D4
:106940000199C0F898100299C0F89C100399C0F8FA
:10695000A010903003F0A4FF03E00348903003F050
:106960009FFF00BF0BB030BD8C02002010B5104857
:10697000FFF77EFD0446CCB122460E490C48FFF7D6
:10698000CAFD044622460B4901F18400FFF7E0FCF2
:106990002146084805F036FC04460549C43922461C
:1069A0000868044905F0E0FEFFF78EFF10BD000007
:1069B000BC0100208C02002070B504460D46002C5E
:1069C0002BD0002D29D01548B0F8A460102E1FDA66
:1069D000A83000EB0610C5601049A83101EB061085
:1069E00008222146FDF7DCFF00210C48A83000EB0F
:1069F000061001720948B0F8A400401C0749A1F82C
:106A0000A4002B46224606A1002000F0F5F803E082
:106A10000AA1002000F052F800BF70BD8C020020D7
:106A2000436F6E736F6C652052656769737465722E
:106A3000202D202573203D3E20256400436F6E737A
:106A40006F6C652052656769737465722045727258
:106A50006F72202D2046756C6C21000010B50A461F
:106A600088B1082A0FDA02EB8203074C04EB83019A
:106A700003680B6043684B6083688B60C368CB60BE
:106A800003690B6100BF10BD5000002010B50A461D
:106A900088B1082A0FDA02EB8203074C04EB83016A
:106AA0000B6803604B6843608B688360CB68C3608E
:106AB0000B69036100BF10BD500000200FB438B552
:106AC000054600BF00201549087100BF081DFDF7ED
:106AD0009AFE84B21149091D081911A1FDF712FD92
:106AE000284604F023F806A800900099059803F0C2
:106AF000FDFF002000900948001DFDF784FE84B2D0
:106B00000649091D081908A1FDF7FCFC03F0FEFF6A
:106B100004F056F838BC5DF814FB0000F8000020C3
:106B20001B5B313B33316D001B5B313B33396D00F7
:106B30002DE9F04105460E46174600BF00201049DA
:106B4000087100BF081DFDF75EFE84B20C49091DE7
:106B500008190CA1FDF7D6FC3A463146284604F048
:106B600005F80748001DFDF74EFE84B20449091DD3
:106B7000081906A1FDF7C6FC04F022F8BDE8F08173
:106B8000F80000201B5B306D000000001B5B316DC6
:106B9000000000002DE9F04105460E46174600BFF3
:106BA00000201049087100BF081DFDF72CFE84B2BB
:106BB0000C49091D08190CA1FDF7A4FC3A46314601
:106BC000284603F0D3FF0748001DFDF71CFE84B2E2
:106BD0000449091D081906A1FDF794FC03F0F0FF14
:106BE000BDE8F081F80000201B5B303B33366D00C0
:106BF0001B5B313B33396D000FB438B5044600BF21
:106C000000200A49087100BF204603F08FFF06A844
:106C100000900099059803F069FF0020009003F0B0
:106C200075FF03F0CDFF38BC5DF814FBF8000020C1
:106C300000BFFEE770B50546FDB1114890F8504120
:106C4000102C15DA00F5A97101EB84000422294605
:106C5000FDF7A6FE00210B4800EB8400C170084838
:106C6000B0F85001401C0649A1F85001204670BD03
:106C700005A10020FFF722FF00BF0020F7E700007A
:106C8000F80000204A0200204465627567205461C4
:106C900067205265676973746572204572726F72FE
:106CA000202D2046756C6C21000000000FB438B513
:106CB000054600BF00201549087100BF081DFDF7FB
:106CC000A2FD84B21149091D081911A1FDF71AFC92
:106CD000284603F02BFF06A800900099059803F0C2
:106CE00005FF002000900948001DFDF78CFD84B2CF
:106CF0000649091D081908A1FDF704FC03F006FF69
:106D000003F05EFF38BC5DF814FB0000F8000020C3
:106D10001B5B313B33336D001B5B313B33396D0003
:106D20002DE9FC410646B08887B23C461FE0A0B280
:106D3000FFF7BCFC054634B92A4610A11348007879
:106D4000FFF75AFF12E0012C09D1009500200190B5
:106D50006A460FA10D480078FFF74EFF06E02B466C
:106D600022460FA109480078FFF746FF641C07F18F
:106D70000A008442DBD3BDE8FC8100005B43524340
:106D8000205D203D202530385800000028000020DC
:106D90005B4D4147495D203D2025387300000000D0
:106DA0005B2534645D203D20253864000021074ABE
:106DB000D1610749096941F00401054A1161114691
:106DC000096941F040011161704700003000002066
:106DD000002002400021074AD1610749096941F0BA
:106DE0000201054A116111464861096941F04001FB
:106DF0001161704730000020002002400022054B46
:106E0000DA61054A126942F00102034B1A610180FE
:106E100070470000300000200020024000201E4982
:106E2000C96801F0100139B11C49C96941F002017A
:106E30001A4AD16140F010001749C96801F00401F5
:106E400039B11649C96941F00101144AD16140F0D4
:106E500004001149C96901F0010169B10F49C9690B
:106E600041F004010D4AD16100BF0B49C96921F00D
:106E70000101094AD16100BF00BF40F201118842FF
:106E800006D10549C96921F00101034AD16101E038
:106E90000149C86000BF7047002002403000002058
:106EA00070B5044600F080FE054609E0601C38B16C
:106EB00024B100F079FE401BA04201D9032070BD2F
:106EC0001248C06800F001000028EFD10F48C068E8
:106ED00000F0200020B100BF20200C49C86000BF96
:106EE0000A48C06800F0100048B90848C06900F0BE
:106EF000010020B90548C06800F0040018B1FFF790
:106F00008DFF0120DBE70020D9E7000000200240D0
:106F100070B5FFF77DF91E49086008460068002833
:106F200030D008200968C860002019490968086144
:106F3000174909684860164909688860144800685C
:106F400004F0E6FD002500BF00F096F80446FF2C93
:106F500000D008E0681C05B20A2D00DD03E00A201D
:106F600000F094FBF0E700BF0A2D05DD224609A1E1
:106F70000020FFF7A3FD04E022460EA10020FFF74A
:106F80003BFE03E013A10020FFF798FD70BD000059
:106F9000240000204672616D20496E69742045729C
:106FA000726F72202D205374617475733D253032D9
:106FB000580000004672616D20496E697420466970
:106FC0006E69736865642E202D202825303258297B
:106FD000000000004672616D20496E6974204572A0
:106FE000726F72202D204E6F2053706920666F7271
:106FF000205573652E0000002DE9FC4104460D4626
:1070000016461B480068002830D01AA0006800907F
:1070100000271748006804F02BFD200A8DF80100B6
:10702000E0B28DF80200032269461148006804F0BE
:1070300057FE12E0B74200DB12E0CC2001900122A3
:1070400001A90B48006804F02FFE9DF80420384683
:10705000791C8FB22A54601C84B2B4F5005FE9DB5E
:1070600000BF0348006804F0FAFC00BFBDE8FC81E3
:1070700024000020030000001CB510480068D0B1B7
:1070800005200190FF2000900C48006804F0F0FCFF
:10709000012201A90948006804F022FE0122694684
:1070A0000648006804F000FE0448006804F0D7FCBD
:1070B0009DF800001CBDFF20FCE70000240000201C
:1070C0002DE9FC4104460D4616461C480068002880
:1070D00031D01BA000680090002700F04BF8174843
:1070E000006804F0C5FC200A8DF80100E0B28DF8BC
:1070F0000200032269461148006804F0F1FD0FE028
:10710000B74200DB0FE03846791C8FB2285C019053
:10711000012201A90948006804F0E2FD601C84B264
:10712000B4F5005FECDB00BF0448006804F097FC96
:1071300000F008F800BFBDE8FC810000240000203A
:107140000200000008B50A48006880B104200090E1
:107150000748006804F08CFC012269460448006876
:1071600004F0BEFD0248006804F079FC00BF08BDD1
:107170002400002008B50A48006880B1062000906D
:107180000748006804F074FC01226946044800685E
:1071900004F0A6FD0248006804F061FC00BF08BDD1
:1071A000240000200146122905DA01EB4100034AC0
:1071B00002EB801070470020FCE700006CCA00085A
:1071C0004178027801EB02210E4A5160002116E05D
:1071D0008A00521D825C13068A00121D825C03EB3A
:1071E00002438A00D21C825C03EB02238A00921CB9
:1071F000825C1344034A103242F82130491C0829AA
:10720000E6D370479C0C00200148007B70470000CB
:107210009C0C00202DE9F0470420FEF7DBFF82469E
:10722000504600F0CFF800F001050520FEF7D2FF30
:107230008246504600F0C6F800F001060620FEF730
:10724000C9FF8246504600F0BDF800F00107072054
:10725000FEF7C0FF8246504600F0B4F800F0010887
:107260004FF000091148806830B1012805D002288C
:1072700006D003280AD106E000BF4FF0000905E060
:107280004FF0010902E04FF0030900BF00BF4FEAD1
:107290008970800E40EAC80040EA870040EA460054
:1072A0002843C4B22046BDE8F0870000440C00200B
:1072B00008B53C4988420DD100BF3B49896941F07E
:1072C0000401394A91611146896901F00401009174
:1072D00000BF65E0354988420DD100BF3249896958
:1072E00041F00801304A91611146896901F00801B5
:1072F000009100BF54E02E4988420DD100BF2A49B9
:10730000896941F01001284A91611146896901F0AB
:107310001001009100BF43E0264988420DD100BF13
:107320002149896941F020011F4A9161114689690B
:1073300001F02001009100BF32E01F4988420DD1C9
:1073400000BF1949896941F04001174A916111460E
:10735000896901F04001009100BF21E0174988428E
:107360000DD100BF1049896941F080010E4A916139
:107370001146896901F08001009100BF10E01049B9
:1073800088420DD100BF0849896941F48071064ADD
:1073900091611146896901F48071009100BF00BFBD
:1073A00008BD00000008014000100240000C014030
:1073B000001001400014014000180140001C014071
:1073C0000020014010B5044634B1206820B1A188E6
:1073D000206800F0DBFB10BD0020FCE77FB5044611
:1073E0000D4616468CB1206878B12068FFF760FF23
:1073F000A1880022206800F0D1FBA08800900195B0
:1074000003966946206800F021FA7FBD70B50446F6
:107410000D466CB1206858B12DB1A18801222068B9
:1074200000F0BCFB04E0A1880022206800F0B6FB5D
:1074300070BD30B503460C46002100BF1879012805
:1074400001D1022030BD0120187100BF0220587107
:10745000002104E054F821001D682860491C914275
:10746000F8D30120587100BF0020187100BF1868C0
:107470000068E7E730B503460C46002100BF1879E5
:10748000012801D1022030BD0120187100BF022067
:1074900058711868806840F001001D68A8600021DC
:1074A00004E054F821001D682860491C9142F8D37B
:1074B0000120587100BF0020187100BF18680068D3
:1074C000E1E710B504460CB9012010BD607920B980
:1074D00000202071204600F004F801206071002097
:1074E000F3E7704770B50446002594F821000228A0
:1074F00003D00420A0630125C1E02068006820F0CB
:107500000E00216808602068006820F001002168F2
:1075100008605C492068884252D95A497839206805
:10752000884201D1012047E05649643920688842E9
:1075300001D1102040E0534950392068884201D1E0
:10754000801539E04F493C392068884201D18014C8
:1075500032E04C4928392068884202D14FF480300B
:107560002AE0484914392068884202D14FF480103B
:1075700022E044492068884201D140041CE042498D
:107580002068884201D1012016E03F49143120686B
:10759000884201D110200FE03B4928312068884201
:1075A00001D1801508E038493C312068884201D17A
:1075B000801401E04FF480303349091F086051E026
:1075C000304978392068884201D1012047E02D49AF
:1075D00064392068884201D1102040E0294950399F
:1075E0002068884201D1801539E026493C3920685D
:1075F000884201D1801432E022492839206888422B
:1076000002D14FF480302AE01E49143920688842A4
:1076100002D14FF4801022E01A492068884201D13B
:1076200040041CE018492068884201D1012016E07E
:10763000154914312068884201D110200FE0124909
:1076400028312068884201D1801508E00E493C317C
:107650002068884201D1801401E04FF4803009494C
:1076600080394860012084F8210000BF002084F8A0
:10767000200000BF606B10B12046616B8847284630
:1076800070BD0000800002400804024031B500F0E7
:107690008BFA0546009C601C00B1641C00BF00F022
:1076A00083FA401BA042FAD338BD00002DE9F04117
:1076B00004460E460127002500BF2648007E01280B
:1076C00002D10220BDE8F08101202249087600BFE6
:1076D0002068022813D14CF25030FFF7E1FB90BB39
:1076E0000120FFF763FB4CF25030FFF7D9FB074650
:1076F0001948006920F004001749086123E04CF2A2
:107700005030FFF7CDFBF0B94FF0FF303060A56887
:1077100012E02846FFF75EFB4CF25030FFF7C0FB4B
:1077200007460D48006920F002000B4908610FB1BF
:10773000356007E005F50065D4E9021001EBC020D3
:10774000A842E6D800BF00BF00200249087600BF6B
:107750003846B7E7300000200020024003480069A7
:1077600040F080000149086100207047002002407D
:107770002DE9FE4F05468B46174698460126002404
:107780000020029000BF2448007E012802D1022080
:10779000BDE8FE8F01202049087600BF4CF2503032
:1077A000FFF77EFB064686BB012D02D10120029029
:1077B00006E0022D02D10220029001E00420029096
:1077C00000241EE02201B946C24648465146FCF755
:1077D00073FE80B20190022000FB04B0009001997A
:1077E000FFF70CFB4CF25030FFF75AFB06460B48F4
:1077F000006920F001000949086106B104E0601C3D
:10780000C4B202988442DDDB00BF00BF0020024901
:10781000087600BF3046BBE7300000200020024061
:107820000748006900F0800028B106480449486014
:107830000548486001E0012070470020FCE7000097
:107840000020024023016745AB89EFCD2DE9F847C1
:1078500002460024002000258446002700237BE107
:107860004FF0010808FA03F4D1F8008008EA040098
:10787000A0427DD1DFF8ECA2D1F80480A8EB0A0980
:10788000D0453AD014DCB8F1030F50D009DCB8F180
:10789000000F31D0B8F1010F1CD0B8F1020F49D15F
:1078A00020E0B8F1110F18D0B8F1120F42D11EE04C
:1078B000B9F5881F25D006DCB9F5803F20D0B9F591
:1078C000801F37D11AE0B9F5001F18D0B9F5041F91
:1078D00030D117E0D1F80CC02DE0D1F80C8008F1C0
:1078E000040C28E0D1F80C8008F1080C23E0D1F852
:1078F0000C8008F10C0C1EE000BF00BF00BF00BFF1
:1079000000BF00BFD1F80880B8F1000F02D14FF0DE
:10791000040C0BE0D1F80880B8F1010F03D14FF04F
:10792000080C146102E04FF0080C546103E04FF0C2
:10793000000C00E000BF00BFFF2801D8904601E026
:1079400002F104084646FF2802D84FEA830803E004
:10795000A3F108084FEA88084746D6F800804FF0A0
:107960000F0909FA07F928EA09080CFA07F900E0F3
:107970007AE048EA0908C6F80080D1F8048008F0E7
:107980008058B8F1805F6FD100BFDFF8DC81D8F894
:10799000188048F00108DFF8D091C9F81880C8466F
:1079A000D8F8188008F00108CDF8008000BF00BFAB
:1079B0004FEAB9384FEA930958F829504FEA8378CB
:1079C0004FEA18794FF00F0808FA09F825EA080578
:1079D000DFF89881424502D14FF0000824E0DFF83B
:1079E0009081424502D14FF001081DE0DFF884810B
:1079F000424502D14FF0020816E0DFF87C81424593
:107A000002D14FF003080FE0DFF87081424502D148
:107A10004FF0040808E0DFF86881424502D14FF0DA
:107A2000050801E04FF006084FEA83794FEA19791B
:107A300008FA09F848EA0505DFF848814FEA930992
:107A400048F82950D1F8048008F48038B8F5803F10
:107A50000BD1DFF83481D8F8008048EA0008DFF85D
:107A60002891C9F800800AE075E0DFF81C81D8F899
:107A7000008028EA0008DFF81091C9F80080D1F8EA
:107A8000048008F40038B8F5003F0ED1DFF8F88024
:107A900008F10408D8F8008048EA0008DFF8E89008
:107AA00009F10409C9F800800DE0DFF8DC8008F175
:107AB0000408D8F8008028EA0008DFF8CC9009F123
:107AC0000409C9F80080D1F8048008F48018B8F5DA
:107AD000801F0ED1DFF8B08008F10808D8F80080C8
:107AE00048EA0008DFF8A09009F10809C9F8008009
:107AF0000DE0DFF8948008F10808D8F8008028EA43
:107B00000008DFF8849009F10809C9F80080D1F86D
:107B1000048008F40018B8F5001F0ED1DFF8688063
:107B200008F10C08D8F8008048EA0008DFF85890FF
:107B300009F10C09C9F800800DE0DFF84C8008F16C
:107B40000C08D8F8008028EA0008DFF83C9009F11A
:107B50000C09C9F800805B1C102BFFF481AEBDE856
:107B6000F8870000000011100010024000080140DA
:107B7000000C0140001001400014014000180140B9
:107B8000001C0140080001400004014002469368C7
:107B90000B400BB1012000E0002070470AB10161E9
:107BA00001E00B0403617047014800687047000062
:107BB0000400002002480068401C0149086070472A
:107BC0000400002010B50848006840F01000064985
:107BD0000860032000F06AF80F2000F007F800F0BA
:107BE00019F8002010BD00000020024070B50446C6
:107BF000074800684FF47A71B0FBF1F5284600F0B1
:107C0000C1FF00222146501E00F012F8002070BD76
:107C100000000020704700BF00F01F0201219140CA
:107C20004209920002F1E022C2F8001100BF704741
:107C30002DE9F05F80460D461646002702F0D2FF80
:107C4000074639462A46334601F00700C0F1070AC5
:107C5000BAF1040F02D94FF0040A01E0C0F1070A9B
:107C6000D14600F1040ABAF1070F02D24FF0000A20
:107C700001E0A0F1030AD4464FF0010A0AFA09FA1A
:107C8000AAF1010A0AEA020A0AFA0CFA4FF0010BF9
:107C90000BFA0CFBABF1010B0BEA030B4AEA0B04EA
:107CA0002146404602F0A6FFBDE8F09F00BF00F06D
:107CB0000702064B19684FF6FF031940044B0B43AC
:107CC00043EA0221014B196000BF70470CED00E050
:107CD0000000FA0570B504460D46002662480068AB
:107CE00000F00700A8420ED25F48006820F00700AD
:107CF00028435D4908600846006800F00700A84274
:107D000001D0012070BD207800F00200022807D1C8
:107D10005648406820F0F000A16808435349486085
:107D2000207800F0010000285DD06068012806D1AD
:107D30004E48006800F4003090B90120E2E7606826
:107D4000022806D14948006800F0007040B90120BF
:107D5000D8E74648006800F0020008B90120D1E7E2
:107D60004248406820F00300616808433F4948608A
:107D7000FFF71AFF06466068012810D108E0FFF7F8
:107D800013FF801B41F28831884201D90320B9E7F3
:107D90003648406800F00C000428F0D123E0606809
:107DA000022810D108E0FFF7FFFE801B41F2883166
:107DB000884201D90320A5E72C48406800F00C0058
:107DC0000828F0D10FE008E0FFF7EEFE801B41F23B
:107DD0008831884201D9032094E72448406800F0A4
:107DE0000C000028F0D12048006800F00700A842ED
:107DF0000ED91D48006820F0070028431A49086082
:107E00000846006800F00700A84201D0012079E789
:107E1000207800F00400042807D11448406820F4BA
:107E2000E060E168084311494860207800F00800EC
:107E3000082808D10D48406820F46050216940EAC4
:107E4000C1000A49486000F03DF808494968C1F39B
:107E50000311074A515CC840064908600F20FFF72C
:107E6000C5FE00204EE70000002002400010024046
:107E700054CA000800000020014800687047000054
:107E80000000002000B5FFF7F7FF04494968C1F37F
:107E90000221034A515CC84000BD000000100240AE
:107EA00064CA000800B5FFF7E7FF04494968C1F359
:107EB000C221034A515CC84000BD000000100240CE
:107EC00064CA0008F0B585B00FF2700C9CE8E010B1
:107ED00001A8A0E8E0101DA52D6800950021002450
:107EE0000022002300201A4D696801F00C05FDB145
:107EF000042D02D0082D1AD101E016481AE001AD78
:107F0000C1F38346AB5D01F480355DB1104D6D6802
:107F1000C5F340451DF805400E4DB5FBF4F505FBD6
:107F200003F202E00C4D03FB05F2104602E000BF35
:107F30000A4800BF00BF05B0F0BD00000203040501
:107F4000060708090A0B0C0D0E0F101001020000A5
:107F50000010024000C0A80000093D0000127A0095
:107F6000F8B504460025207800F00100002878D0FC
:107F7000F848406800F00C0004280CD0F548406830
:107F800000F00C00082811D1F248406800F480305D
:107F9000B0F5803F0AD1EF48006800F400300028B7
:107FA0005FD0606800285CD10120F8BD00BF606828
:107FB000B0F5803F06D1E748006840F48030E549DD
:107FC000086028E0606858B9E248006820F4803012
:107FD000E04908600846006820F4802008601AE044
:107FE0006068B0F5A02F0BD1DA48006840F480201B
:107FF000D84908600846006840F4803008600AE00C
:10800000D448006820F48030D249086008460068EF
:1080100020F48020086000BF606888B1FFF7C4FDCD
:10802000054606E0FFF7C0FD401B642801D9032088
:10803000BBE7C848006800F400300028F2D010E028
:10804000FFF7B2FD054606E0FFF7AEFD401B6428D2
:1080500001D90320A9E7BF48006800F400300028D8
:10806000F2D1207800F00200022857D1B9484068C8
:1080700000F00C0050B1B748406800F00C00082830
:1080800018D1B448406800F4803098B9B14800680D
:1080900000F0020020B12069012801D0012084E70E
:1080A000AC48006820F0F800616940EAC100A949C5
:1080B000086033E02069E8B10120A7490860FFF7B4
:1080C00073FD054606E0FFF76FFD401B022801D94E
:1080D00003206AE79F48006800F002000028F2D001
:1080E0009C48006820F0F800616940EAC1009949A5
:1080F000086013E0002098490860FFF755FD054629
:1081000006E0FFF751FD401B022801D903204CE790
:108110009048006800F002000028F2D1207800F0BA
:10812000080008282DD1A069B8B101208B4908604A
:10813000FFF73AFD054606E0FFF736FD401B022833
:1081400001D9032031E78348406A00F0020000288B
:10815000F2D0012002F04CFF13E000207F490860BC
:10816000FFF722FD054606E0FFF71EFD401B022833
:1081700001D9032019E77748406A00F0020000287F
:10818000F2D1207800F00400042873D10026714851
:10819000C06900F0805070B900BF6E48C06940F0FF
:1081A00080506C49C8610846C06900F0805000905A
:1081B00000BF00BF01266A48006800F48070B0B9B3
:1081C0006748006840F4807065490860FFF7ECFC80
:1081D000054606E0FFF7E8FC401B642801D90320B0
:1081E000E3E65F48006800F480700028F2D000BF2A
:1081F000E068012806D15748006A40F0010055495F
:10820000086227E0E06858B95248006A20F001008F
:10821000504908620846006A20F00400086219E02C
:10822000E06805280BD14B48006A40F0040049493A
:1082300008620846006A40F0010008620AE045480A
:10824000006A20F00100434908620846006A20F0F5
:108250000400086200BFE068A0B1FFF7A5FC054676
:1082600009E0FFF7A1FC401B41F28831884202D9A6
:1082700003209AE622E03748006A00F00200002856
:10828000EFD012E0FFF790FC054608E0FFF78CFC0A
:10829000401B41F28831884201D9032085E62D48F0
:1082A000006A00F002000028F0D1012E05D1294813
:1082B000C06920F080502749C86100BFE069C8B399
:1082C0002448406800F00C00082860D0E0690228CB
:1082D00048D1002020490866FFF766FC054606E005
:1082E000FFF762FC401B022801D903205DE6194814
:1082F000006800F000700028F2D1206AB0F5803FDD
:1083000007D11448406820F40030A168084311499F
:108310004860D4E9080108430E49496821F4741102
:1083200008430C49486001200B490866FFF73CFCF4
:10833000054607E02DE0FFF737FC401B022801D976
:10834000032032E60348006800F000700028F2D0F5
:108350001FE0000000100240000042428004424240
:108360000070004000200C490866FFF71DFC054620
:1083700006E0FFF719FC401B022801D9032014E690
:108380000648006800F000700028F2D101E00120EA
:108390000BE6002009E60000000042420010024007
:1083A00010B504460CB9012010BDA06AB0F5005FFD
:1083B00000D100BF94F8510028B9002084F8500083
:1083C000204600F03AF8022084F851002068006846
:1083D00020F0400021680860D4E901010843E16809
:1083E00008432169084361690843218B01F4007146
:1083F0000843E1690843216A0843A16A08432168E8
:1084000008600421A06901EA1040616A08432168FC
:108410004860A06AB0F5005F02D12168E06A086197
:108420002068C06920F400602168C8610020606590
:10843000012084F851000020B6E770472DE9FC4781
:1084400004460D4617461E46002001908046814690
:108450006068B0F5827F0DD1A06858B9042084F817
:1084600051003B462A4629462046009600F0FBF97B
:10847000BDE8FC8700BF94F85000012801D102201C
:10848000F6E7012084F8500000BFFFF78DFB80461F
:1084900094F85100012802D04FF00209E9E005B13B
:1084A00017B94FF00109E4E0042084F851000020DE
:1084B0006065A563A787E7872063A086E0862064C0
:1084C0006064A06AB0F5005F11D100BF2068006849
:1084D0004DF6FF710840216808602068006840F48C
:1084E00000502168086000BFE08F401EE087A06850
:1084F000B0F5004F05D12068006820F48040216865
:1085000008602068006800F04000402805D020681E
:10851000006840F0400021680860E068E8B918E0B1
:108520002068806800F0010038B12068007B287066
:108530006D1CE08F401EE0870BE03EB1701C40B127
:10854000FFF732FBA0EB0800B04202D34FF0030963
:108550008FE0E08F0028E3D11CE018E020688068FD
:1085600000F0010038B12068C0682880AD1CE08FA1
:10857000401EE0870BE03EB1701C40B1FFF714FBDA
:10858000A0EB0800B04202D34FF0030971E0E08F86
:108590000028E3D1A06AB0F5005F32D120680068FE
:1085A00040F480502168086033460122114620467D
:1085B000CDF8008002F0D9FD10B14FF0030958E06A
:1085C000E068B0F5006F03D12068C068288002E041
:1085D0002068007B28703346012211462046CDF8E2
:1085E000008002F0C2FD30B1606D40F002006065B5
:1085F0004FF003093DE02068C06880B20190BDF8EB
:1086000004006068B0F5827F0DD1A068B0F5004F1E
:1086100003D0A068B0F5806F05D12068006820F015
:1086200040002168086020688068C0F30010D8B15D
:10863000204602F097FD012812D1606D40F0020043
:10864000606500BF206800684DF6FF710840216832
:1086500008602068006840F400502168086003E06A
:108660004FF6EF7021688860606D08B14FF0010926
:1086700000BF012084F8510000BF002084F85000A2
:1086800000BF4846F4E62DE9F84304460D46174678
:108690001E464FF00008C14600BF94F85000012864
:1086A00002D10220BDE8F883012084F8500000BF09
:1086B000FFF77AFA804694F85100012802D04FF073
:1086C0000209C6E005B117B94FF00109C1E0032066
:1086D00084F85100002060652563A786E786A063C3
:1086E000A087E08760642064A068B0F5004F05D1E2
:1086F0002068006840F4804021680860A06AB0F5F6
:10870000005F0ED100BF206800684DF6FF71084081
:10871000216808602068006840F400502168086003
:1087200000BF2068006800F04000402805D02068A5
:10873000006840F0400021680860E068B0F5006F14
:108740002AD1606810B1E08E012806D128882168FE
:10875000C860AD1CE08E401EE08619E0206880688D
:1087600000F00200022807D128882168C860AD1CEB
:10877000E08E401EE0860BE03EB1701C40B1FFF77A
:1087800013FAA0EB0800B04202D34FF0030960E0F7
:10879000E08E0028E2D129E0606810B1E08E012867
:1087A00006D12878216808736D1CE08E401EE08693
:1087B00019E02068806800F00200022807D12878BC
:1087C000216808736D1CE08E401EE0860BE03EB110
:1087D000701C40B1FFF7E8F9A0EB0800B04202D3EB
:1087E0004FF0030935E0E08E0028E2D13346012244
:1087F00002212046CDF8008002F0B7FC10B14FF006
:10880000030926E042463146204602F097FC20B19B
:108810004FF00109202060651BE0A06850B900BF3F
:10882000002000902068C068009020688068009058
:1088300000BF00BFA06AB0F5005F05D120680068E6
:1088400040F4805021680860606D08B14FF0010964
:1088500000BF012084F8510000BF002084F85000C0
:1088600000BF48461EE72DE9FF5F04460D46164649
:108870001F46DDF838804FF0000A00200390029078
:1088800081464FF0010B019000BF94F85000012881
:1088900003D1022004B0BDE8F09F012084F850000D
:1088A00000BFFFF781F9814694F851A060680390FA
:1088B000BAF1010F0BD00398B0F5827F04D1A06804
:1088C00010B9BAF1040F02D0022001903BE10DB1C2
:1088D00006B117B90120019035E194F85100012843
:1088E00002D1052084F8510000206065A663E78767
:1088F000A7872563E786A78620646064A06AB0F531
:10890000005F0ED100BF206800684DF6FF7108407F
:10891000216808602068006840F400502168086001
:1089200000BF2068006800F04000402805D02068A3
:10893000006840F0400021680860E068B0F5006F12
:108940004FD1606810B1E08E012806D128882168D7
:10895000C860AD1CE08E401EE0863BE0BBF1000F1E
:108960001CD0E08ED0B12068806800F002000228A0
:1089700014D128882168C860AD1CE08E401EE086B6
:108980004FF0000BE08E48B9A06AB0F5005F05D14A
:108990002068006840F4805021680860E08F68B16A
:1089A0002068806800F0010040B12068C068308015
:1089B000B61CE08F401EE0874FF0010B08F101006C
:1089C00040B1FFF7F1F8A0EB0900404502D30320C6
:1089D0000190B8E0E08E0028C0D1E08F0028BDD122
:1089E0004EE0606810B1E08E012806D12878216839
:1089F00008736D1CE08E401EE0863BE0BBF1000F6B
:108A00001CD0E08ED0B12068806800F002000228FF
:108A100014D115F8010B21680873E08E401EE08622
:108A20004FF0000BE08E48B9A06AB0F5005F05D1A9
:108A30002068006840F4805021680860E08F68B1C9
:108A40002068806800F0010040B12068C06806F826
:108A5000010BE08F401EE0874FF0010B08F1010091
:108A600040B1FFF7A1F8A0EB0900404502D3032075
:108A7000019068E0E08E0028C0D1E08F0028BDD1D1
:108A8000A06AB0F5005F15D1434601221146204689
:108A9000CDF8009002F069FB30B1606D40F002004B
:108AA0006065032001904EE02068C06880B20290AB
:108AB000BDF8080020688068C0F30010F0B12046BF
:108AC00002F050FB012815D1606D40F00200606596
:108AD00000BF206800684DF6FF71084021680860FB
:108AE0002068006840F400502168086000BF012041
:108AF000019003E04FF6EF70216888604346012241
:108B000002212046CDF8009002F02FFB10B1032087
:108B1000019018E04A464146204602F00FFB20B182
:108B200001200190202060650DE0A06850B900BFD1
:108B3000002000902068C068009020688068009045
:108B400000BF00BF00BF012084F8510000BF00201B
:108B500084F8500000BF01989CE6042808D14FF02B
:108B6000E021096941F004014FF0E022116107E0C2
:108B70004FF0E021096921F004014FF0E02211617A
:108B80007047704770B504462546681EB0F1807F77
:108B900001D301200FE0681E4FF0E02148610F2152
:108BA0004FF0FF3002F026F800204FF0E0218861FE
:108BB00007200861002070BD10B5FFF7E2FF10BD6F
:108BC0007047704710B504460CB9012010BD94F8E9
:108BD0003D0028B9002084F83C00204600F00CF845
:108BE000022084F83D00211D206803F05DFA012079
:108BF00084F83D000020E9E7704701460868C06836
:108C000040F001000A68D0600868006840F0010088
:108C10000A681060002070470146022081F83D007C
:108C200000BF0868006A41F21112104050B908688C
:108C3000006A9210104028B90868006820F001000E
:108C40000A68106000BF012081F83D0000207047D5
:108C500001460868C06820F001000A68D06000BFC3
:108C60000868006A41F21112104050B90868006AA1
:108C70009210104028B90868006820F001000A68C6
:108C8000106000BF00207047704710B50446206890
:108C90000069C0F34000D8B12068C068C0F340004C
:108CA000B0B16FF0020021680861012020772068D0
:108CB000806900F0030018B12046FFF7E5FF05E0EA
:108CC000204600F0ADF8204600F0ABF800202077F9
:108CD00020680069C0F38000D8B12068C068C0F384
:108CE0008000B0B16FF00400216808610220207795
:108CF0002068806900F4407018B12046FFF7C4FF77
:108D000005E0204600F08CF8204600F08AF80020AC
:108D1000207720680069C0F3C000D8B12068C0681F
:108D2000C0F3C000B0B16FF00800216808610420F2
:108D300020772068C06900F0030018B12046FFF7D3
:108D4000A3FF05E0204600F06BF8204600F069F82C
:108D50000020207720680069C0F30010D8B1206897
:108D6000C068C0F30010B0B16FF010002168086156
:108D7000082020772068C06900F4407018B12046B0
:108D8000FFF782FF05E0204600F04AF8204600F099
:108D900048F8002020772068006900F0010058B1F1
:108DA0002068C06800F0010030B16FF00100216858
:108DB0000861204600F036F820680069C0F3C01052
:108DC00058B12068C068C0F3C01030B16FF08000A7
:108DD000216808612046FFF7F3FE20680069C0F3B0
:108DE000801058B12068C068C0F3801030B16FF0B7
:108DF000400021680861204600F04EF820680069B4
:108E0000C0F3401058B12068C068C0F3401030B1C2
:108E10006FF02000216808612046FFF7D2FE10BDE8
:108E20007047704770B5054600241948854201D146
:108E3000A0F1180416485830854201D1A0F1180459
:108E40001348B030854201D1A0F118041148854281
:108E500001D1A0F11804CCB16068B8B12089C0F18B
:108E6000010020812089012804D161890122206923
:108E7000FEF794FE208948B9618900222069FEF737
:108E80008DFE606910B120466169884770BD0000A1
:108E9000840800208C09002070477047014600229A
:108EA000002391F8392091F83A3042EA03007047E4
:108EB0002DE9F0470446206805682068C6682068E8
:108EC00047694FF00008C14605F00F08B8F1000FE0
:108ED0000AD105F0200038B106F0200020B120466C
:108EE00003F0D5F9BDE8F087B8F1000F6DD007F0B9
:108EF000010018B906F49070002866D005F0010052
:108F000030B106F4807018B1E06B40F00100E0630E
:108F100005F0040030B107F0010018B1E06B40F03B
:108F20000200E06305F0020030B107F0010018B163
:108F3000E06B40F00400E06305F0080030B107F09A
:108F4000010018B1E06B40F00800E063E06B68B32B
:108F500005F0200028B106F0200010B1204603F0F3
:108F600096F920684069C0F38019E06B00F00800B2
:108F700010B9B9F1000F22D0204603F068F920683B
:108F8000406900F04000B0B12068406920F0400026
:108F900021684861606B50B11748616B4863606B32
:108FA000FEF7A0FA10B1606B416B88470CE02046D9
:108FB000FFF773FF08E02046FFF76FFF04E020464D
:108FC000FFF76BFF0020E0638CE705F0800030B115
:108FD00006F0800018B1204603F090FA82E705F011
:108FE000400030B106F0400018B1204603F03FF9D0
:108FF00078E700BF76E700003BC2000810B50446E2
:109000000CB9012010BDA06900B100E000BF94F8C8
:10901000390028B9002084F83800204600F027F8ED
:10902000242084F839002068C06820F400502168AA
:10903000C860204603F07EF92068006920F4904063
:10904000216808612068406920F02A002168486191
:109050002068C06840F400502168C8600020E063C8
:10906000202084F8390084F83A000020CAE77047CD
:1090700010B5034693F83A0020282FD101B10AB960
:10908000012010BD00BF93F83800012801D1022053
:10909000F7E7012083F8380000BF99629A85DA85E6
:1090A0000020D863222083F83A0000BF002083F814
:1090B000380000BF1868C06840F480701C68E06029
:1090C0001868406940F001001C6860611868C06859
:1090D00040F020001C68E0600020D2E70220D0E7CA
:1090E0002DE9F041054600242CE004EB84001849EA
:1090F00001EB001000F11006AE4221D104EB840018
:1091000001EB00104068D0B104EB840001EB0010CB
:10911000476804EB840001EB001090F80E80414694
:109120003846FDF768F904EB8400094A02EB0010A9
:1091300000F10E0101223046FFF79AFF04E000BF64
:10914000601C84B2052CD0DB00BFBDE8F0810000BC
:109150006C05002010B5034693F83900202823D170
:1091600001B10AB9012010BD00BF93F838000128F1
:1091700001D10220F7E7012083F8380000BF19620F
:109180009A84DA840020D863212083F8390000BF54
:10919000002083F8380000BF1868C06840F08000E5
:1091A0001C68E0600020DEE70220DCE7704700BFBB
:1091B000FEE700007FB50446E1208DF80000C320E3
:1091C0008DF8010000208DF8020007208DF80300C3
:1091D0001D48B0F8EA00000A8DF804001A4890F81B
:1091E000EA008DF8050001208DF8060011208DF8A9
:1091F0000700154890F8ED008DF80800124890F827
:10920000EE008DF80900E0B28DF80A00072101A8F0
:10921000FDF7C8F90546280A8DF80B00E8B28DF86D
:109220000C0009490D220868694603F09DFA0648BA
:10923000D0F8340100B97FBD0D226946034800789B
:10924000FDF776FC00BFF6E7340400201000002094
:109250002DE9F04104460D461646A81E205C691E05
:10926000615C60F31F210F463146201DFDF79AF91E
:109270008046474502D10120BDE8F0810020FBE790
:1092800070B586B004467CB1B4F8460002280BDB0A
:109290006579A679222001900295039601A801F034
:1092A000FFFA012006B070BD0020FBE70146012057
:1092B0007047014601207047014601207047014672
:1092C0000120704730B585B004468CB1B4F8460033
:1092D00002280DDB65792120009001950020049083
:1092E00003900290684601F0DBFA012005B030BD22
:1092F0000020FBE70146012070470146012070472E
:10930000F0B585B00446B4B1B4F84600032812DBCA
:109310006579A679217AE07901EB00271E2000907B
:1093200001950296039700200490684601F0B8FA70
:10933000012005B0F0BD0020FBE72DE9F04186B02B
:109340000446CCB1B4F84600042815DB6579A6794B
:10935000217AE07901EB002794F809801D20019023
:10936000029503960497CDF8148001A801F098FAAD
:10937000012006B0BDE8F0810020FAE70146012097
:10938000704770B586B004467CB1B4F84600022838
:109390000BDB6579A6791B2001900295039601A845
:1093A00001F07EFA012006B070BD0020FBE7014607
:1093B0000120704730B585B004466CB1B4F8460062
:1093C000012809DB6579252000900195684601F0A8
:1093D00067FA012005B030BD0020FBE72DE9F04120
:1093E00086B0044634B3B4F84600082822DB1720C0
:1093F0000190A179607901EB002005B2217AE07932
:1094000001EB002006B2A17A607A01EB002007B2DE
:10941000217BE07A01EB00200FFA80F80295039699
:109420000497CDF8148001A801F03AFA012006B0A3
:10943000BDE8F0810020FAE72DE9F04F87B004463F
:10944000002C3BD0B4F84600082837DB18200290E7
:10945000A179607901EB002085B2217AE07901EBF6
:10946000002086B2607AA17A60F31F210FB2E07A01
:10947000217B60F31F210FFA81F8404667F31F40FC
:109480008146607BA17B60F31F210FFA81FAE07BAC
:10949000217C60F31F210FFA81FB58466AF31F40BD
:1094A000019003950496CDF814900198069002A8B7
:1094B00001F0F6F9012007B0BDE8F08F0020FAE7CF
:1094C00001460120704730B585B00446C4B1B4F8F8
:1094D0004600012814DB60790106A07901EB004108
:1094E000E07901EB0021207A0D18284602F062F89D
:1094F00027200090684601F0D3F9012005B030BD67
:109500000020FBE710B586B0044674B1B4F84600FD
:1095100001280ADB601DFDF753FE2820019001A8F9
:1095200001F0BEF9012006B010BD0020FBE710B528
:1095300086B004465CB1B4F84600012807DB14206D
:10954000019001A801F0ACF9012006B010BD002087
:10955000FBE730B585B00446A4B1B4F84600022854
:1095600010DB19200090A179607901EB00250195AD
:109570000020049003900290684601F091F90120C8
:1095800005B030BD0020FBE72DE9F04707460A2F64
:109590005BDD314D6C1DA078E17860F31F218846BA
:1095A0002079617960F31F21298094F80690E07991
:1095B000A870207AE870607A2871A5F1EA00D0F8E6
:1095C0003401012805D13A46214624480078FDF7A8
:1095D000E1FA424639462046FFF73AFE48B90220F2
:1095E000FFF7E8FD1EA11D480078FDF75FFBBDE811
:1095F000F087484600F052FA0646701C40B9032036
:10960000FFF7D8FD1BA115480078FDF74FFBEEE7EB
:10961000A8F1040204F10A012046FBF758F9A8F169
:109620000400A5F846000C48123800EBC60040685C
:1096300050B10948123800EBC60041680648884717
:1096400082465046FFF7B6FD04E010A103480078BB
:10965000FDF734FA00BFCAE71E0500201000002005
:10966000466F756E6420435243204572726F7221BB
:1096700000000000466F756E64204164647265737B
:1096800073204572726F7221000000004672616D96
:109690006520697320746F6F2073686F72743F0068
:1096A00001480078704700001000002010B513A09A
:1096B000FDF7C0FA12490870FCF798FD11490860DF
:1096C0006422683101F16400FCF7ADFE0D496423AA
:1096D0000A1D0868CC3102F07DFF00200949A1F87D
:1096E000E8004FF6FF70A1F8EA000120C1F834014C
:1096F00005A103480078FDF77FFA10BD6873740078
:109700001000002034040020486F737420496E69F3
:10971000742046696E69736865642E0010B502494D
:109720000B2000F0C9F810BD2D97000870B5044655
:10973000FFF7B6FF054600260CB9012070BDE078A2
:109740005149A1F8AC01E0787F2872D00CDCA0F17F
:1097500070000D286ED2DFE800F01C21262B30357A
:1097600087788787676E7300852849D008DCA0F169
:109770008000052878D2DFE800F02A2F34393E0037
:10978000862842D0872845D0892848D0F0286BD138
:1097900065E02046FFF7CBFE06466BE02046FFF76C
:1097A00088FD064666E02046FFF78AFE064661E031
:1097B0002046FFF713FE06465CE02046FFF73CFE1E
:1097C000064657E02046FFF7C4FE064652E0204614
:1097D000FFF790FD06464DE02046FFF7D2FD064616
:1097E00048E02046FFF7E3FD064643E02046FFF74A
:1097F000A4FD06463EE02046FFF782FD064639E01E
:109800002046FFF7BBFD064634E02046FFF775FD16
:1098100006462FE02046FFF755FD06462AE0204683
:10982000FFF72EFD064625E02046FFF748FD0646D9
:1098300020E00FE018E02046FFF73EFD064619E065
:109840002046FFF7B7FD064614E02046FFF75AFE14
:1098500006460FE02046FFF736FE06460AE02046A1
:10986000FFF724FD064605E008A12846FDF71EFA8D
:10987000032063E700BF0EB100205FE709A128467F
:10988000FDF714FA012059E78C0A0020466F756E27
:109890006420556E6B6E6F776E20436F6D6D616ED9
:1098A00064210000466F756E64204C656E677468B5
:1098B000204572726F72210070B504460D46002D6E
:1098C00020D01148B0F8E800022816DA0E48B0F8A7
:1098D000E860D83020F8364000EBC60045600A4802
:1098E000B0F8E800401C0849A1F8E800224607A1AA
:1098F0000F480078FDF780F904E00EA10C480078CD
:10990000FDF7DCF870BD000034040020486F73746C
:109910002050617273657220526567697374657255
:10992000202D2061646472282530325829000000FF
:1099300010000020486F73742050617273657220AC
:109940005265676973746572204572726F72202D5B
:109950002046756C6C210000F8B51D48FCF788FDA9
:109960000446042C33DB042269461948FCF791FDB8
:109970009DF800009DF8011060F31F210E464EF285
:10998000C31086421DD19DF802009DF8031060F3BC
:109990001F210D46A81D844212DB82B20C492331DF
:1099A0000B48FCF7B8FD0446A81D844203D12046AD
:1099B000FFF7EAFD04E007A10A480078FDF77EF80A
:1099C00004E0012269460248FCF7A5FD00BFF8BD8E
:1099D000000500205768617427732057726F6E6707
:1099E0003F00000010000020F0B599B006460D467B
:1099F000A81D84B2E1208DF80000C3208DF801007D
:109A0000200A8DF80200E0B28DF803002148B0F87A
:109A1000EA00000A8DF804001E4890F8EA008DF86C
:109A2000050001208DF8060012208DF80700194866
:109A300090F8ED008DF80800164890F8EE008DF8CB
:109A400009002A4631460DF10A00FAF7FBFE2146CD
:109A500001A8FCF7A7FD0746390A201D0DF80010E4
:109A6000F9B2601D0DF80010A11D8AB209490868FD
:109A7000694602F079FE0748D0F8340108B919B0F8
:109A8000F0BDA01D82B2694603480078FDF750F88A
:109A900000BFF4E73404002010000020024600213B
:109AA00007E0084830F83100904200D103E0481C3C
:109AB00081B20229F5DB00BF022901D1C81E70471F
:109AC00008B2FCE70C05002010B5044634B104A12F
:109AD0002046FAF791FF08B9012010BD0020FCE7ED
