:020000040800F2
:1000000098160020CD010008891100085B11000836
:10001000851100082D0400084513000800000000A9
:10002000000000000000000000000000DF010008E8
:100030006904000800000000E301000899120008AC
:10004000E7010008E7010008E7010008E7010008F0
:10005000E7010008E7010008E7010008E7010008E0
:10006000E7010008E7010008E7010008E7010008D0
:10007000E7010008E7010008E7010008E7010008C0
:10008000E7010008E7010008E7010008E7010008B0
:10009000E7010008E7010008E7010008E7010008A0
:1000A000E7010008E7010008E7010008E701000890
:1000B000E7010008E7010008E7010008E701000880
:1000C000E7010008E7010008E7010008E701000870
:1000D000E7010008E7010008E7010008E701000860
:1000E000E7010008E7010008E7010008E701000850
:1000F000E7010008E7010008E7010008E701000840
:10010000E7010008E7010008E7010008E70100082F
:10011000E7010008E7010008E7010008E70100081F
:10012000E7010008E7010008E7010008E70100080F
:1001300000F002F800F03AF80AA090E8000C8244BF
:100140008344AAF10107DA4501D100F02FF8AFF29C
:10015000090EBAE80F0013F0010F18BFFB1A43F0A5
:10016000010318473012000050120000103A24BF5B
:1001700078C878C1FAD8520724BF30C830C144BF0C
:1001800004680C607047000000230024002500264E
:10019000103A28BF78C1FBD8520728BF30C148BFEA
:1001A0000B6070471FB51FBD10B510BD00F044F8BF
:1001B0001146FFF7F7FF01F0DDF800F062F803B435
:1001C000FFF7F2FF03BC00F069F800000948804720
:1001D00009480047FEE7FEE7FEE7FEE7FEE7FEE729
:1001E000FEE7FEE7FEE7FEE704480549054A064B41
:1001F00070470000A5120008310100089810002087
:10020000981600209812002098120020B2F12003C6
:100210000AD5C2F1200320FA02F001FA03F321FA11
:1002200002F140EA0300704721FA03F04FF00001A9
:100230007047704770477047754600F02BF8AE4620
:1002400005006946534620F00700854618B020B5E2
:10025000FFF7CAFFBDE820404FF000064FF000074F
:100260004FF000084FF0000B21F00701AC46ACE85E
:10027000C009ACE8C009ACE8C009ACE8C0098D46CB
:10028000704710B50446AFF300802046BDE810402B
:10029000FFF795BF0048704738100020014918202B
:1002A000ABBEFEE726000200704710B500F060FB11
:1002B00000F09CFF00F0BCF800F05AF810BD000000
:1002C0002DE9FC47264800F083F980462448801C2D
:1002D00000F07EF90746404667F31F408146202420
:1002E00020E01F49601800F073F906461C49891C7C
:1002F000601800F06DF90546304665F31F40019027
:10030000202C07D1012201A9164800F01AFA16493B
:10031000086006E0012201A9124800F0F1F9124933
:100320000860241D114800688442DAD30E48006832
:10033000484512D10C48008880B2ADF800000A4848
:100340000068000CADF80200022269460448001D56
:1003500000F054F90120BDE8FC870020FBE7000015
:100360000040000810000020080000200C000020C1
:100370002DE9F0412A4800F02BF905462848801C59
:1003800000F026F90446284664F31F4080462448BE
:10039000083000F01DF9054621480A3000F018F930
:1003A0000446284664F31F4007461E4800F010F933
:1003B00005461C48801C00F00BF90446284664F3EF
:1003C0001F40194908601748001D00F001F9054653
:1003D0001448801D00F0FCF80446284664F31F40D2
:1003E0000646B74209D1FFF76BFF012802D008F19A
:1003F000010098B900F0B4FE10E0B7420CD2701CB6
:1004000050B109480068203000F078FFFFF758FF2E
:10041000012803D100F01EFF00F0A2FEBDE8F0812C
:1004200004400008084002080C00002000BFFEE75E
:1004300008B50A480A49086000BF0A48406940F008
:100440004000084948610846406900F040000090BB
:1004500000BF00BF024800F09BF908BD0030024019
:10046000100000200010024000BFFEE70021074AF4
:10047000D1610749096941F00401054A116111463A
:10048000096941F040011161704700001800002027
:10049000002002400021074AD1610749096941F063
:1004A0000201054A116111464861096941F04001A4
:1004B0001161704718000020002002400022054B07
:1004C000DA61054A126942F00102034B1A610180A8
:1004D00070470000180000200020024000201E4944
:1004E000C96801F0100139B11C49C96941F0020124
:1004F0001A4AD16140F010001749C96801F004019F
:1005000039B11649C96941F00101144AD16140F07D
:1005100004001149C96901F0010169B10F49C969B4
:1005200041F004010D4AD16100BF0B49C96921F0B6
:100530000101094AD16100BF00BF40F201118842A8
:1005400006D10549C96921F00101034AD16101E0E1
:100550000149C86000BF7047002002401800002019
:1005600070B5044600F0F6F9054609E0601C38B1A4
:1005700024B100F0EFF9401BA04201D9032070BD67
:100580001248C06800F001000028EFD10F48C06891
:1005900000F0200020B100BF20200C49C86000BF3F
:1005A0000A48C06800F0100048B90848C06900F067
:1005B000010020B90548C06800F0040018B1FFF739
:1005C0008DFF0120DBE70020D9E70000002002407A
:1005D0000146088870472DE9F04107460D4616464A
:1005E000002407E03846FFF7F3FF25F81400BF1C8E
:1005F000601C84B2B442F5DBBDE8F0812DE9F04F18
:1006000087B007468A461646002006900590804629
:100610000024B7F1006F02D33748874202D307B0F6
:10062000BDE8F08F00F080F9A7F100600690069811
:100630004FEAD0290698C0F34908C8F58064A6425D
:1006400000D8344652E04FF0006000EBC92B421452
:100650002A495846FFF7BFFF00250BE008EB0500CD
:10066000264931F810004FF6FF71884200D003E0B0
:10067000681C85B2A542F1D300BFA5421DD200205F
:100680000190CDF80CB00120049005A901A800F05C
:1006900091F8002508E03AF8150005EB0801174A23
:1006A00022F81100681C85B2A542F4D34FF4806291
:1006B0001249584600F048FE04E0A2B251463846BE
:1006C00000F042FEA64200D111E009F1010908F153
:1006D00001080AEB440A2744301B86B2B6F5806F46
:1006E00002DD4FF4806400E0344600BFABE700BF9A
:1006F00000F0B8F800BF92E7FFFF070838000020BD
:1007000030B503460C46002100BF1879012801D1FD
:10071000022030BD0120187100BF02205871002155
:1007200004E054F821001D682860491C9142F8D368
:100730000120587100BF0020187100BF18680068C0
:10074000E7E730B503460C46002100BF18790128C1
:1007500001D1022030BD0120187100BF0220587164
:100760001868806840F001001D68A860002104E05E
:1007700054F821001D682860491C9142F8D30120DB
:10078000587100BF0020187100BF18680068E1E7C9
:1007900010B504460CB9012010BD607920B90020C5
:1007A0002071204600F004F8012060710020F3E77A
:1007B000704700002DE9F04104460E460127002550
:1007C00000BF2648007E012802D10220BDE8F0814A
:1007D00001202249087600BF2068022813D14CF27C
:1007E0005030FFF7BDFE90BB0120FFF73FFE4CF2FB
:1007F0005030FFF7B5FE07461948006920F00400A5
:100800001749086123E04CF25030FFF7A9FEF0B918
:100810004FF0FF303060A56812E02846FFF73AFE3F
:100820004CF25030FFF79CFE07460D48006920F05F
:1008300002000B4908610FB1356007E005F500655E
:10084000D4E9021001EBC020A842E6D800BF00BFE7
:1008500000200249087600BF3846B7E7180000209C
:10086000002002400348006940F08000014908610F
:1008700000207047002002402DE9FE4F05468B46C0
:1008800017469846012600240020029000BF244805
:10089000007E012802D10220BDE8FE8F0120204900
:1008A000087600BF4CF25030FFF75AFE064686BB72
:1008B000012D02D10120029006E0022D02D102207A
:1008C000029001E00420029000241EE02201B946BB
:1008D000C24648465146FFF799FC80B2019002207B
:1008E00000FB04B000900199FFF7E8FD4CF2503096
:1008F000FFF736FE06460B48006920F00100094963
:10090000086106B104E0601CC4B202988442DDDBD9
:1009100000BF00BF00200249087600BF3046BBE799
:1009200018000020002002400748006900F0800005
:1009300028B10648044948600548486001E00120A4
:1009400070470020FCE700000020024023016745BB
:10095000AB89EFCD0148006870470000040000201B
:1009600002480068401C01490860704704000020EC
:1009700010B50848006840F01000064908600320E0
:1009800000F05EF80F2000F007F800F019F80020E2
:1009900010BD00000020024070B504460748006802
:1009A0004FF47A71B0FBF1F5284600F0B8FB002255
:1009B0002146501E00F005F8002070BD0000002008
:1009C00070472DE9F05F80460D461646002700F07F
:1009D000DDFB074639462A46334601F00700C0F1E1
:1009E000070ABAF1040F02D94FF0040A01E0C0F17E
:1009F000070AD14600F1040ABAF1070F02D24FF0FC
:100A0000000A01E0A0F1030AD4464FF0010A0AFAF5
:100A100009FAAAF1010A0AEA020A0AFA0CFA4FF0E4
:100A2000010B0BFA0CFBABF1010B0BEA030B4AEACF
:100A30000B042146404600F0B1FBBDE8F09F0000EA
:100A400000BF00F00702064B19684FF6FF0319407C
:100A5000044B0B4343EA0221014B196000BF70476E
:100A60000CED00E00000FA0570B504460D460026C6
:100A70006248006800F00700A8420ED25F48006894
:100A800020F0070028435D4908600846006800F030
:100A90000700A84201D0012070BD207800F00200BC
:100AA000022807D15648406820F0F000A1680843AA
:100AB00053494860207800F0010000285DD060684C
:100AC000012806D14E48006800F4003090B901209A
:100AD000E2E76068022806D14948006800F000702B
:100AE00040B90120D8E74648006800F0020008B984
:100AF0000120D1E74248406820F0030061680843C4
:100B00003F494860FFF726FF06466068012810D17C
:100B100008E0FFF71FFF801B41F28831884201D9AE
:100B20000320B9E73648406800F00C000428F0D1F3
:100B300023E06068022810D108E0FFF70BFF801B5C
:100B400041F28831884201D90320A5E72C4840684A
:100B500000F00C000828F0D10FE008E0FFF7FAFEE3
:100B6000801B41F28831884201D9032094E7244850
:100B7000406800F00C000028F0D12048006800F028
:100B80000700A8420ED91D48006820F0070028433E
:100B90001A4908600846006800F00700A84201D022
:100BA000012079E7207800F00400042807D11448D8
:100BB000406820F4E060E16808431149486020780B
:100BC00000F00800082808D10D48406820F4605063
:100BD000216940EAC1000A49486000F01DF808494F
:100BE0004968C1F30311074A515CC84006490860CF
:100BF0000F20FFF7D1FE00204EE70000002002404A
:100C0000001002407C13000800000020014800682A
:100C10007047000000000020F0B585B00FF2700CA6
:100C20009CE8E01001A8A0E8E0101DA52D68009543
:100C3000002100240022002300201A4D696801F0E1
:100C40000C05FDB1042D02D0082D1AD101E0164883
:100C50001AE001ADC1F38346AB5D01F480355DB1AF
:100C6000104D6D68C5F340451DF805400E4DB5FBB0
:100C7000F4F505FB03F202E00C4D03FB05F2104610
:100C800002E000BF0A4800BF00BF05B0F0BD000091
:100C900002030405060708090A0B0C0D0E0F1010BD
:100CA000010200000010024000C0A80000093D0041
:100CB00000127A00F8B504460025207800F0010003
:100CC000002878D0F848406800F00C0004280CD0C8
:100CD000F548406800F00C00082811D1F24840683F
:100CE00000F48030B0F5803F0AD1EF48006800F48E
:100CF000003000285FD0606800285CD10120F8BD7A
:100D000000BF6068B0F5803F06D1E748006840F456
:100D10008030E549086028E0606858B9E24800681A
:100D200020F48030E04908600846006820F4802004
:100D300008601AE06068B0F5A02F0BD1DA480068AF
:100D400040F48020D84908600846006840F48030AC
:100D500008600AE0D448006820F48030D249086076
:100D60000846006820F48020086000BF606888B1F1
:100D7000FFF7F0FD054606E0FFF7ECFD401B642899
:100D800001D90320BBE7C848006800F40030002800
:100D9000F2D010E0FFF7DEFD054606E0FFF7DAFDD2
:100DA000401B642801D90320A9E7BF48006800F46C
:100DB00000300028F2D1207800F00200022857D13C
:100DC000B948406800F00C0050B1B748406800F0E6
:100DD0000C00082818D1B448406800F4803098B955
:100DE000B148006800F0020020B12069012801D05C
:100DF000012084E7AC48006820F0F800616940EA0F
:100E0000C100A949086033E02069E8B10120A74981
:100E10000860FFF79FFD054606E0FFF79BFD401BBE
:100E2000022801D903206AE79F48006800F0020009
:100E30000028F2D09C48006820F0F800616940EA80
:100E4000C1009949086013E0002098490860FFF745
:100E500081FD054606E0FFF77DFD401B022801D914
:100E600003204CE79048006800F002000028F2D10F
:100E7000207800F0080008282DD1A069B8B1012021
:100E80008B490860FFF766FD054606E0FFF762FD47
:100E9000401B022801D9032031E78348406A00F053
:100EA00002000028F2D0012000F08CF913E00020AD
:100EB0007F490860FFF74EFD054606E0FFF74AFD53
:100EC000401B022801D9032019E77748406A00F047
:100ED00002000028F2D1207800F00400042873D129
:100EE00000267148C06900F0805070B900BF6E489C
:100EF000C06940F080506C49C8610846C06900F084
:100F00008050009000BF00BF01266A48006800F4CE
:100F10008070B0B96748006840F480706549086027
:100F2000FFF718FD054606E0FFF714FD401B642897
:100F300001D90320E3E65F48006800F480700028D0
:100F4000F2D000BFE068012806D15748006A40F09F
:100F500001005549086227E0E06858B95248006A24
:100F600020F00100504908620846006A20F00400A1
:100F7000086219E0E06805280BD14B48006A40F090
:100F80000400494908620846006A40F0010008620E
:100F90000AE04548006A20F001004349086208461B
:100FA000006A20F00400086200BFE068A0B1FFF70B
:100FB000D1FC054609E0FFF7CDFC401B41F288312A
:100FC000884202D903209AE622E03748006A00F0FE
:100FD00002000028EFD012E0FFF7BCFC054608E055
:100FE000FFF7B8FC401B41F28831884201D9032049
:100FF00085E62D48006A00F002000028F0D1012E9D
:1010000005D12948C06920F080502749C86100BF38
:10101000E069C8B32448406800F00C00082860D09C
:10102000E069022848D1002020490866FFF792FCB9
:10103000054606E0FFF78EFC401B022801D903207D
:101040005DE61948006800F000700028F2D1206ABF
:10105000B0F5803F07D11448406820F40030A16803
:10106000084311494860D4E9080108430E4949681A
:1010700021F4741108430C49486001200B490866AB
:10108000FFF768FC054607E02DE0FFF763FC401B17
:10109000022801D9032032E60348006800F00070FE
:1010A0000028F2D01FE00000001002400000424281
:1010B000800442420070004000200C490866FFF79F
:1010C00049FC054606E0FFF745FC401B022801D914
:1010D000032014E60648006800F000700028F2D1F2
:1010E00001E001200BE6002009E60000000042427A
:1010F00000100240042808D14FF0E021096941F0B6
:1011000004014FF0E022116107E04FF0E02109698E
:1011100021F004014FF0E02211617047704770B573
:1011200004462546681EB0F1807F01D301200FE000
:10113000681E4FF0E02148610F214FF0FF3000F0B2
:101140002DF800204FF0E021886107200861002081
:1011500070BD10B5FFF7E2FF10BD00BFFEE7000055
:1011600070B500240548046825460549D1F80002F9
:1011700080F3088800BFA84770BD00000442000843
:101180000040000800BFFEE700BFFEE7024800681D
:10119000C0F30220704700000CED00E010B50028FD
:1011A00007DA0A07140E054A00F00F031B1FD45478
:1011B00003E00A07130E024A135410BD18ED00E0B5
:1011C00000E400E008B508490968C9084FF47A72DC
:1011D000B1FBF2F14143009100BF00BF00994A1EEC
:1011E00000920029F9D108BD0000002010B590B090
:1011F00001200690000407900020089002200D9026
:10120000C1030E91C1040F9106A8FFF753FD0F20F3
:10121000019002200290002003904FF4806004901F
:1012200000200590022101A8FFF71EFCFFF7EEFC4D
:101230004FF47A71B0FBF1F42046FFF770FF042001
:10124000FFF758FF00221146501EFFF7BAFB10B0FF
:1012500010BD000000BF00BF00BF00BF00BFBFF354
:101260004F8F00BF00BF00BF0948006800F4E06076
:1012700008490843001D0649086000BF00BF00BFC1
:10128000BFF34F8F00BF00BF00BF00BF00BFFDE72F
:101290000CED00E00000FA0510B5FFF761FBFFF769
:1012A00058FF10BD1148006840F001000F49086068
:1012B000084640680E4908400C49486008460068E6
:1012C0000C490840094908600846006820F480205D
:1012D00008600846406820F4FE0048604FF41F0094
:1012E0008860C8030449086070470000001002408D
:1012F0000000FFF8FFFFF6FE08ED00E070B50546C0
:101300000026EE0A382E00D970BD002410E00A49EC
:1013100001EBC4204FF480620849FFF75CF90849EB
:1013200001EBC4204A140549FFF768F9601C84B238
:10133000B442ECD900BFE7E70040020838080020BB
:101340000040000800BFFEE72DE9F04104460E46CC
:10135000174600250AE036F815C0624600232146EC
:101360000120FFF789FAA41C681C85B2BD42F2DB9C
:10137000BDE8F081FEF799FF00BFFEE70000000026
:101380000000000001020304060708090000000035
:1013900001020304B413000800000020180000003C
:1013A0006C010008CC130008180000208016000013
:1013B0008801000800A24A040000000000000000AC
:0C13C00000000000000000000000000021
:0400000508000131BD
:00000001FF
