:020000040800F2
:10000000400500201D430008BD410008BF41000815
:10001000C1410008C3410008C541000800000000BC
:10002000000000000000000000000000394300084C
:10003000C7410008000000003D430008C941000816
:100040004143000845430008494300084D43000868
:100050005143000855430008594300085D43000818
:100060006143000865430008694300086D430008C8
:100070007143000875430008794300087D43000878
:100080008143000885430008894300088D43000828
:100090009143000895430008994300089D430008D8
:1000A000A1430008A5430008A9430008AD43000888
:1000B000B1430008B5430008B9430008BD43000838
:1000C000C1430008C5430008C9430008CD430008E8
:1000D000D1430008D5410008D5430008D9430008A2
:1000E000DD430008E1430008E5430008E943000858
:1000F000ED430008F1430008F5430008F943000808
:10010000FD430008014400080544000809440008B4
:100110000D44000811440008154400081944000863
:100120001D44000821440008254400082944000813
:100130002DE9F04F80460FF23060A5B015461E46FF
:10014000D0E90023CDE91223002004910D900DF198
:10015000500A6FF0004900E065190020ADF8020078
:1001600012AB4FF0FF3229460DF1020001F093F877
:100170000446012C04DA2878441EA441E443E40F29
:10018000BDF8020025280CBFA4F1010BA346BBF16A
:10019000010F0EDB2F4617F8011B0498C0470028FB
:1001A000049000F0F3800D98401CBBF1010B0D9002
:1001B000F1D1BDF80200252807D100200790089052
:1001C00009900A900B900C9005E00028C4D10D987E
:1001D000D2E240F0010015F8011F2029F9D02329AF
:1001E0000DD02B2904D02D2906D030290AD00CE0BF
:1001F00040F0020080B2EEE740F00400FAE740F081
:100200000800F7E740F01000F4E72A290ED1316822
:10021000316051F8042B3160002A0F9204D551420D
:1002200040F004000F9180B26D1C11E000210F918D
:1002300009E00F99494505D001EB810302EB430129
:1002400030390F916D1C2A78A2F130010A29F0D3C0
:1002500029782E2903D04FF0FF310E911DE015F8BB
:10026000011F2A2907D1316831606D1C51F8042B18
:1002700031600E9211E000210E9109E00E9949457E
:1002800005D001EB810302EB430130390E916D1C67
:100290002A78A2F130010A29F0D3ADF840000FF21C
:1002A000D040297801F008F808B115F8010B8DF855
:1002B00042009DF84200682802BF29786829622020
:1002C00005D06C2804BF28786C2803D171208DF8E4
:1002D00042006D1C14A8069015F8014BB4F12500DE
:1002E0002AD01C3800F0D480001F022840F2D080B1
:1002F000133800F0F580093800F0CA80801E00F045
:100300005C81401E00F03581401E022840F2C08012
:10031000001F00F02E81401F00F08B80401E00F077
:10032000DF80401E35D0C01E0BD0801E00F0D8806C
:10033000C01E00F0D58063E125208DF8500001201B
:1003400067E19DF842006C283068306014D050F8A6
:10035000047B306005970E9C002C04D5384600F0D5
:10036000B7FF044606E022460021384600F0CCFFE5
:1003700000B1C41B08944DE150F8042B306002A971
:10038000404600F033FA002840F144814FF0FF303E
:10039000F2E1316831603C2451F8040B31600021F6
:1003A000CDE9020114A80590DDE90201069F11B90B
:1003B00008B90E9AB2B10206120FA0EB0212303247
:1003C000D2B2631E3A2AA8BF27320009DA5540EAA2
:1003D0000170090908BF00281C4603D0059AE319DB
:1003E0009A42E8D3E0190590C4F13C010E980891B7
:1003F000814209DA401A0A904FF6EF71BDF84000C9
:100400000840ADF8400005E1002840F103819DF867
:10041000400000F01400102840F0FC800F98079A6C
:10042000801A0A9A801A441A012CC0F2F3800A94A6
:10043000F0E09DF8420062281AD0682806D06A28A9
:100440000CD06C281CD0712808D019E030683060BE
:1004500050F8041B30600D980880DBE03068306095
:1004600050F8042B30600D98C117C2E90001D1E0AB
:100470003068306050F8041B30600D980870C9E097
:100480003068306050F8041B30600D980860C1E09F
:100490003068C01D20F007023260D2E90001083246
:1004A0003260CDE90201002902D507982D210AE02A
:1004B000BDF84000810702D507982B2103E0C00753
:1004C00005D50798202100F80A10401C079014A8B1
:1004D000079908180590214602A800F091FB99E0C1
:1004E0009DF842006C280DD0712818BF6A2809D1E8
:1004F0003068C01D20F007023260D2E900010832E6
:10050000326005E03168316051F8040B3160002140
:10051000CDE902019DF84200682803D1DDE902011E
:1005200080B20BE0622803D1DDE90201C0B205E030
:10053000742818BF7A2804D1DDE902010021CDE931
:1005400002019DF8400000072ED5DDE902010029D7
:1005500008BF002828D044F02000782824D107982C
:10056000302100F80A10401C411C079100F80A4095
:100570001AE09DF84200314600F001F9CDE9020190
:10058000002902DA07982D210AE0BDF84000810712
:1005900002D507982B2103E0C00705D50798202135
:1005A00000F80A10401C079014A807990818059035
:1005B000214602A800F0A0FA2CE09DF842006C2829
:1005C00009D0012007903068306050F8041B30607B
:1005D0008DF850101EE03068306001AA50F8041BFE
:1005E0003060ADF804100020ADF8060002A94FF00D
:1005F000FF300E90404600F0F9F800280AD5C5E615
:1006000025208DF85000012007901CB18AF8014088
:10061000022007900F980799401A0A99401A0899E2
:10062000401A0B99401A0999401A0C99441A9DF8DE
:100630004000400710D42020012C8DF800000BDB77
:10064000274601236A4602A9404600F000FE002822
:100650007FF49CAE7F1EF4D1DDF81CB0BBF1000F1F
:1006600014AF0DD017F8011B0498C0470028049060
:100670003FF48CAE0D98401CBBF1010B0D90F1D1F5
:1006800030208DF800000A9F012F0ADB01236A4603
:1006900002A9404600F0DBFD00287FF477AE7F1E04
:1006A000F4D1DDF820B0059FBBF1000F0DD017F895
:1006B000011B0498C047002804903FF467AE0D98D2
:1006C000401CBBF1010B0D90F1D130208DF80000E2
:1006D0000B9F012F0ADB01236A4602A9404600F066
:1006E000B6FD00287FF452AE7F1EF4D1059808991C
:1006F000DDF824B00F18BBF1000F0DD017F8011B67
:100700000498C047002804903FF440AE0D98401C68
:10071000BBF1010B0D90F1D130208DF800000C9F42
:10072000012F0ADB01236A4602A9404600F08FFD33
:1007300000287FF42BAE7F1EF4D19DF840004007C7
:100740007FF50BAD2020012C8DF80000FFF605ADE4
:1007500001236A4602A9404600F079FD00287FF493
:1007600015AE641EF4D1F8E40000000000000000A3
:10077000686A6C747A4C000025B0BDE8F08F62287E
:1007800026D068281DD06A2808D06C2827D0712868
:1007900004D0742823D07A280CD020E00868C01D2B
:1007A00020F007000860D0E90023083008601946EF
:1007B000104670470A680A6052F8040B0A6000216C
:1007C00070470A680A6052F8040B0A6000B20BE036
:1007D0000A680A6052F8040B0A6040B204E00A6832
:1007E0000A6052F8040B0A60C11770472DE9F44FF4
:1007F0000D4694B0D5F830A0BAF1000F804648BF3E
:100800006FF0004A00F0ACFD696B401801900FF6E4
:100810006C20D0E90023CDE9022395F83800400789
:1008200002D40198412805D240200DF11009019011
:10083000002609E000F09AFD5FEA0009F8D14FF0C8
:10084000FF3056E1AAEB040ABAF1010FC0F2CE80E4
:100850001498018802AA0DF1010000F0DFFD0028C4
:10086000044600F1DE801498008810B9641E00F17F
:10087000D880A245C0F2BA806869019922189142D5
:1008800080F0A2806E634042296A401AA969401A2A
:10089000696A401AE969401AA96A461A95F8380047
:1008A000400710D42020012E8DF800000BDB3746C6
:1008B00001236A462946404600F0C9FC002840F062
:1008C000B0807F1EF4D1D5F814B0BBF1000F4F46B5
:1008D0000DD017F8011BA868C0470028A86000F0D9
:1008E000A080E86A401CBBF1010BE862F1D1302026
:1008F0008DF800002F6A012F0ADB01236A46294682
:10090000404600F0A4FC002840F08B807F1EF4D10C
:10091000D5F818B0EF68BBF1000F0CD017F8011B29
:10092000A868C0470028A8607BD0E86A401CBBF1DB
:10093000010BE862F2D130208DF800006F6A012FC0
:1009400009DB01236A462946404600F080FC002866
:1009500067D17F1EF5D1E868A969D5F81CB00F18DA
:10096000BBF1000F0CD017F8011BA868C047002886
:10097000A86056D0E86A401CBBF1010BE862F2D1D6
:1009800030208DF80000AF6A012F09DB01236A4691
:100990002946404600F05BFC002842D17F1EF5D17D
:1009A00095F8380040070DD52020012E8DF8000065
:1009B00008DB01236A462946404600F048FC80BB1C
:1009C000761EF6D100266E61224668690DF101019E
:1009D000484400F031FD6869201868611498801C53
:1009E0001490801E008800287FF42CAF686B696922
:1009F000401A296A401AA969401A696A401AE969C5
:100A0000401AA96AA0EB010A95F83800400710D4F3
:100A1000BAF1010F0DDB5446A8682021C047A86039
:100A200010B94FF0FF365DE0E86A401C641EE862D2
:100A3000F2D16B694A462946404600F008FC00287E
:100A4000EFD12C6A012C0ADBA8683021C0470028AE
:100A5000A860E6D0E86A401C641EE862F4D1AB6985
:100A6000EA682946404600F0F2FB0028D9D16C6ABA
:100A7000012C0ADBA8683021C0470028A860D0D02C
:100A8000E86A401C641EE862F4D1E868A969EB6971
:100A90000A182946404600F0DAFB0028C1D1AC6AAA
:100AA000012C0ADBA8683021C0470028A860B8D014
:100AB000E86A401C641EE862F4D195F838004007EB
:100AC0000ED5BAF1010F0BDBA8682021C047002822
:100AD000A860A6D0E86A401CBAF1010AE862F3D126
:100AE0006E616E6304A881451CBF484600F0E0FCBF
:100AF000304615B0BDE8F08F2DE9FA4E05460A469E
:100B00002F696F2A08BF082405D041F020007828FB
:100B100014BF0A2410243C26D5E90001642A18BF1A
:100B2000692A81468A4605D1002903DAD9F10009EC
:100B30006AEB4A0ABAF1000F08BFB9F1000F0CD1F5
:100B4000286B50B9082C36D195F83800000732D5FB
:100B500030203B2687F83B002DE0E31748465146FE
:100B6000224600F0E5FCA4FB0023A9EB0202303290
:100B7000D2B2A6F1010B3A2A5E4603DB9DF80030A3
:100B8000513B9A180BF8072081465FEA010A08BF1B
:100B9000B9F1000F03D0E868F1198842DDD3082CC1
:100BA00009D195F83800000705D5F05D302802D04E
:100BB000761E3020F055C6F13C00A861F119E960BD
:100BC000296B884208DA081A28624FF6EF71288FDD
:100BD00008402887BDE8F38E00290ED595F8381017
:100BE00001F01401102908D1696B6A69891A2A6A0F
:100BF000891A0E1A012EA8BF2E62BDE8F38E0000DE
:100C00002DE9F24F04468EB0D4E90001CDE902018E
:100C100004AF9DF8380040F0200BBBF1610F0AD003
:100C2000206B002848BF062004D408BFBBF1670F23
:100C300001D1012020636168C1F30A5040F2FF72C4
:100C400090421CD1080304BF2068002809D103206A
:100C5000A0619DF8380061381A2836D30FF2306150
:100C600008E00320A0619DF8380061381A2829D3D4
:100C70000FF21461E068032200F0DEFBBEE1012800
:100C800016DA204600F0CBFC012811DB00250020FD
:100C9000BBF1610F20D1E168302201F8012B4A1C21
:100CA000E2609DF83820612A0CBF782258220FE0BC
:100CB000626840F2FE3161F31E52451A62604FF0E5
:100CC000FF30E5E70FF2BC51D4E70FF2C051D1E796
:100CD0000A706169891C616110B90026002584E1F0
:100CE000BBF1610F40F09880206B00284CBF21269B
:100CF000461CD4E900ABDDE902010022002300F02C
:100D0000AFFC36B23ABF8BF00040CDE902A0CDE98E
:100D100002AB06F101082D1FB8F1010F8DF810206C
:100D20000DF1110736DBDDE902010022002300F09E
:100D3000AFFC2FD21C2102A800F0C2FCDDE90201A9
:100D400000F044FDA8F10708B8F1010F814609DB66
:100D500000F068FD02460B46DDE9020100F07AFD75
:100D6000CDE90201F81D072105E009F00F0200F8A6
:100D7000012D4FEA2919B9F1010F01DB491EF4D504
:100D8000491E5CBF002200F8012DF9D5C71DB8F13E
:100D9000010FC8DA0DF11100391AB142B8BF0E4681
:100DA00036B230000DF111072FD4884206DA04A9BB
:100DB000411849780829A8BF0F2100DA002104AAA8
:100DC000821800E0761E12F80139401E8B42F9D0DD
:100DD0000F2904D104A941184A78521C4A700028EE
:100DE00002D504AF761C2D1D36B2701E0DD4C1196C
:100DF0000A783032D2B23A2A03DB9DF838303A3BD7
:100E00009A18401E01F80129F2D5206B002840F104
:100E1000EC80701E2063E8E0DDE90201002200237F
:100E200000F01EFC3CBF81F00041CDE902012DB273
:100E300047F2975068434B49DFF82C9190FBF1F54E
:100E40002DB2C5F1070ABAF1010F90461CDBDDE9AE
:100E500002675FEACA7007D542464B4630463946BC
:100E600000F0B8FD06460F464046494642464B460E
:100E70004FEA6A0A00F0AEFDBAF1000F80468946DB
:100E8000E7D1CDE9026724E0CAF1000A0026374F16
:100E900014E05FEACA7007D542464B4630463946F1
:100EA00000F098FD06460F464046494642464B46EE
:100EB00000F090FD4FEA6A0A80468946BAF1000FB9
:100EC000E7D1DDE9020132463B4600F055FECDE9AF
:100ED0000201BBF1660F0CBF05F10A000620216B71
:100EE000DFF88C904618142EA8BF132630208DF8FA
:100EF00010000DF11107012E3CDBDDE9020100F0CD
:100F00007BFC07F1080104220A23B0FBF3F303EB97
:100F10008307A0EB4700303001F8010C0A20B3FB37
:100F2000F0F000EB8007A3EB47033033521E01F8CB
:100F3000023DE9D1083E012E01F10807DBDBDDE9C6
:100F4000020100F059FC00F077FC02460B46DDE997
:100F5000020100F07FFC00224B4600F03BFDCDE992
:100F60000201CAE7A0860100000024400000F03F13
:100F700084D797410DF11100381A0DF1110702E0E5
:100F8000401E6D1E7F1C39783029F9D0BBF1660FE9
:100F900002D12DB2691C04E0BBF1650F0CBF012129
:100FA0000021226B8E1836B2B042B8BF064636B268
:100FB00031001AD4814204DAC85D3528A8BF39202F
:100FC00000DA3020CA19521E00E0761E12F80139EC
:100FD000491E8342F9D0392802D1C85D401CC8554A
:100FE000002902D57F1E761C6D1C2DB29DF838108D
:100FF000009533B23A46204600F003F80FB0BDE842
:10100000F08F2DE9F04786B006468A4690461D4689
:1010100000F0FBFE012D406A376B90F8009002DA79
:1010200001250FF270284AF02000BDF938406628EB
:1010300008BF641C12D0672876D114F1040F79DB45
:10104000BC4277DA96F83800641C000702D4BD422F
:10105000B8BF2F4624B23F1B48BF002724B2F06818
:10106000B169012C21DA4A1C30230B54012F03DA19
:1010700096F83810090702D502F80090521CB261A8
:10108000E742B8BF7C4224B26142E7197162AF42C5
:10109000B8BF3D46B3692DB2F5612A4641461818DE
:1010A00000F0CAF9781BB062BAE00818A54216DA57
:1010B0002A46414600F0C0F9B1696918601B012F4A
:1010C000B161706203DA96F83800000705D5F06860
:1010D00001F80090F069401CF061B762A0E0224680
:1010E000414600F0A9F9B06920182D1B012F03DA41
:1010F00096F83810090703D5F16800F80190401CF4
:101100002DB2B061AF42B8BF3D46F068B3692DB2B1
:101110002A4604EB0801181800F08EF9B069281867
:10112000B061781B70627BE0BAF1610F14D14FF0AF
:10113000700A16E0BD4204DA96F83810090758BF65
:101140002F467F1E48BF0027BAF1670F14BF4FF02C
:10115000450A4FF0650A04E0BAF1410F08BF4FF0AD
:10116000500AB169F0684A1CB261012F18F8013BBE
:101170000B5403DA96F83810090715D5531CB361E0
:1011800002F80090012F0FDB6D1E2DB2AF42B8BFE9
:101190003D462DB22A464146181800F04DF9B06977
:1011A0002818B061781B7062F068B16909182000D6
:1011B00081F800A004D42B20487001F1020804E05B
:1011C0002D224A7001F102086442002502AF08E0B6
:1011D0000A22684600F032FE019807F8010B6D1CE8
:1011E000009C21B20129F3DA022D06DA4AF0200030
:1011F000652804BF302008F8010B4DB9302008F8ED
:10120000010B07E06D1E02A8285C303008F8010BC6
:10121000012DF7DAF068B1690818A8EB0000F06159
:1012200096F8380000F0140010280DD17069B169EB
:101230000818716A0818F1690818B16A0818716B02
:101240008842BCBF081A306206B0BDE8F087F8B526
:1012500004460D4616461F46002077B116F8011BBE
:10126000A868A047A86030B1E86A401CE862002086
:101270007F1EF3D1F2BD4FF0FF30F2BD0000000041
:10128000000000006E616E004E414E00696E660007
:10129000494E46003000F8B504460D4616461F4636
:1012A00000F0D4FD3B4632462946204601B0BDE859
:1012B000F04000F0E2BD01020278C9B28A421AB1E0
:1012C0001CBF10F8012FF9E718BF0020704700007D
:1012D00000F10103810704D010F8011B89B18107D7
:1012E000FAD10268B2F10131914311F0803F04BF9D
:1012F00050F8042FF6E710F8011B11B110F8011B8C
:10130000FBE7C01A70470000C9B2830706D0521E1F
:1013100022D310F8013B9942F7D11FE0083A13D3CA
:1013200002F1040241EA012141EA014150F8043B83
:10133000121F21BF4B40A3F1013C2CEA030C1CF00F
:10134000803FF3D0C9B2001F083210F8013B521E93
:1013500028BF91EA030FF8D818BF0120401E70473C
:1013600080B500F073FD012002BD000070B5054698
:1013700005F10F00C408C046C046E400A54232D2C1
:10138000082C04D2082402E0083000F091F822482A
:10139000026811000CD1011D0A6802B31368A34250
:1013A00038BF111DF8D310E01D68A5420DD2191DDC
:1013B0000B68002BF8D11268011D00E0191D0B68A5
:1013C00093420CD01D68A542F8D361B10D682A681C
:1013D000A2F10803A3420AD26A680A600FE000F093
:1013E0006FFD0028D0D1C046C046002070BD6319F3
:1013F0000B60121B6E685E600B681A602C600968D7
:1014000000291DBF4A68002A091D00210160C0464D
:10141000C04605F1080070BDF8F3002070B5044621
:101420000D46164600F012FD324629462046BDE81C
:10143000704000F015BD000062B38B0708D0521E4B
:1014400011F8013B00F8013B00F024808B07F6D136
:10145000830740F0208000BF103A07D330B4B1E8D2
:101460003810103AA0E83810F9D230BC530724BF26
:10147000B1E80810A0E8081044BF51F8043B40F858
:10148000043BD20724BF31F8022B20F8022B44BFC3
:101490000B7803707047083A07D3B1E80810083A90
:1014A00040F8043B40F804CBF7D25307E4E70000D0
:1014B00000B9704738B5A0F108042068082833D374
:1014C00010F0070F30D1C046C0461848416809B136
:1014D0008C4203D26160446017E019464B680BB13F
:1014E000A342FAD30B685D18AC421BD3A54204D1CA
:1014F0002268D2180A600C4607E04A681AB12368CD
:101500001B199A420ED362604C60616851B1226827
:1015100013198B4206D100230360086880182060ED
:1015200048686060C046C04631BD0000F8F3002046
:101530001B4213D1094236D12AB18446B0FBF2F0E6
:1015400002FB10C2704700F0D1BCFCD30022002384
:1015500070470B000200002100207047904271EBA1
:10156000030CF6D370B5B1FA81F4B3FA83F52C1BF2
:10157000A340C4F1200532FA05F63343A2405FF0E0
:101580000046E64002E05B085FEA3202841A71EB33
:10159000030524BF204629467641F4D302000B0000
:1015A0003000002170BD012ACFD970B5140C20D0B5
:1015B000B1FA81F4B2FA82F5C4F120046419B4F1ED
:1015C0002006D6D3B2405FF00044F440002502E08C
:1015D00052085FEA3303C61A71EB020E24BF30468D
:1015E000714664416D41F3D302000B0020002900D5
:1015F00070BD0C46B1FBF2F102FB11452D0445EA2A
:101600001045B5FBF2F402FB145580B240EA0545E3
:10161000B5FBF2F002FB105240EA044070BD30B45A
:10162000436803F0004201211B031B0B436004BF0E
:101630000368002B08D10DE00368DD0F45EA440480
:1016400044605B000360491E4468E302F4D5230351
:101650001B0B436043681A434260084630BC704726
:101660004FF4001C1CEB410F94BF1CEB430F09E02F
:1016700041EA030C50EA4C0C52EA0C0C03D299429A
:1016800008BF9042704714BF8B42824270470000EF
:101690004FF4001C1CEB410F94BF1CEB430F09E0FF
:1016A00041EA030C50EA4C0C52EA0C0C03D28B4278
:1016B00008BF8242704714BF9942904270470000B1
:1016C00070B504460D466068C0F30A5040F2FF71E1
:1016D000884207D16068000304BF2068002817D043
:1016E000022070BD20B92046FFF799FF012866DA75
:1016F000012D0FDB40F2FF71091A8D420AD3606899
:10170000002847BF00202F4900202F49C4E90001CD
:10171000012070BD4142A942616806DA6FF31E5193
:10172000401941EA0050606040E0401E636845197E
:10173000012205F1350062F31F53352801F0004105
:10174000636003D361600020206070BD002015F14C
:101750001F0F04DA206823600022203562606A428D
:1017600012D0401E25688041C2F12003C0439D4035
:1017700045EAD07025686668D54006FA03F32B4326
:1017800023606368D340636062680A43B0F1004F2E
:10179000626003D80DD12078C0070AD52068401CAC
:1017A0002060206828B96068401C60604FF0FF30FE
:1017B00070BD6068884204BF20680028F6D1002010
:1017C00070BD00BF0000F0FF0000F07FF446400D48
:1017D00040EAC120490006D200F014F8004248BF98
:1017E0006FF00040604700F00DF84FF00041884274
:1017F0008CBF084640426047400D40EAC120490086
:1018000080F00D8040F00040490DA1F58061491C39
:1018100005D4D1F11F0154BFC840C01770474FF025
:1018200000007047010040F10980F446404200F09A
:1018300005F851F000416047010000BF09D0B0FA3F
:1018400080F18840C91CC1F58461090501EBD021F4
:1018500040057047F0B44FF0004591EA030F44BFD4
:101860006B4000F045BB00BF841A71EB030604D245
:101870006E40001BB141121973414FF4001C1CEB68
:10188000410F34BF7CEB430684E00C0DA4EB1356F0
:10189000362E7DDC012E43DC45EAC32343EA525356
:1018A00012BFD20292025B08240545EAC12141EA37
:1018B0005051D2EBC020994125D407D1B0FA80F61F
:1018C00010FA06F164D00020203608E0B1FA81F663
:1018D000B140C6F1200220FA02F21143B0404FEAB3
:1018E000F474B4EB465434F001064FEA74040AD899
:1018F000D6F50016760D04F00044F04061FA06F2C9
:101900005040F1404840C00A40EA415021F00041B7
:1019100028BF5FEA500550F1000044EBD12137E0C9
:1019200045EAC323DB0A45EAC121C90AB6F120050D
:101930000EDD42EA0242120CC5F1200603FA06F659
:10194000EB4042EA06056D42984161F100010DE06D
:1019500062FA06F5F240554063FA06FC82EA0C0290
:10196000F3405A406D42904161EB030111F4801F36
:1019700005D1641E620502D06D004041494121F449
:101980008011430875F1004350F1000041EB045110
:10199000F0BC70471CEB410F15D223F0004352EA14
:1019A00043060BD04FEA4C0CBCEB410F04D80C0D96
:1019B000661E342EB7DDEBE7801A994150EA4106E6
:1019C00008BF0021E4E708BF1CEB430F28BF6FF0FE
:1019D0000001DDE7B0B581EA030C0CF0004C40F2E9
:1019E000FF7515EA11541DBF15EA1357AC42AF42FB
:1019F00039E0E41923EA455343F48013C90241F066
:101A0000004141EA505EC7021100A7FB0202002814
:101A10004FF00000EEFB01204FF00001E3FB072137
:101A200018BF42F00102401800214941E3FB0E01BA
:101A3000A4F580640F0302D252004041494154F1A1
:101A400001046CDD470872F1004250F1000051EBD7
:101A50000451A1F580115CBF41EA0C01B0BD4CEA14
:101A600005510020B0BD05EA1357AC4214BFAF4288
:101A700041E050EA410E1CBF52EA430E02E06146CB
:101A80000020B0BD24423C441BD15FEA070EF6D0D3
:101A9000090302BF01460020AEF1140EB1FA81F72E
:101AA000AEEB070401FA07FE0C37C7F1200100FA7C
:101AB00007F7C8404EEA000E23EA455343F480136B
:101AC000A2E733F00043B3FA83F704BFB2FA82FE11
:101AD00077440B3FE41BB7F1200E2FBF02FA0EF341
:101AE000BB40C7F1200E22FA0EFE38BF43EA0E03B8
:101AF000BA40641C82E750EA410E14BF52EA430E1A
:101B00006FF000014FF4001717EB430F8ABF19461F
:101B100017EB410FB5E74CEA05510020B0BDD4F1F9
:101B20000104B4F120070FDAC4F12007520828BFDE
:101B300042F0010210FA07F501FA07F7E1BF2A4364
:101B4000E0403843E1400FE0352C98DCC7F1200439
:101B500052EA400220FA07F218BF42F0010231FABD
:101B600007F0A1400A43002172F1004250F1000049
:101B700051EB0C01B0BD00002DE9F04140F2FF75C2
:101B800081EA030C0CF0004C15EA11541DBF15EA54
:101B90001357AC42AF42E9E0BC41C1F31301C3F3B8
:101BA0001303801A994143F4801304D2641E400049
:101BB000494180185941C90241EA5051B1FBF3F63D
:101BC00003FB1611A2FB0675D7EBC020A94102D278
:101BD000761E80185941C90241EA5051B1FBF3FE0B
:101BE00003FB1E11A2FB0E75D7EBC020A94103D247
:101BF000AEF1010E80185941890241EA90517605F3
:101C000046EA8E2EB1FBF3F603FB1611A2FB067516
:101C1000D7EB8020A94102D2761E80185941C90213
:101C200041EA50514EEA060EB1FBF3F603FB1611E2
:101C3000A2FB0675D7EBC020A94102D2761E801800
:101C40005941C90241EA5051B1FBF3F703FB1711A7
:101C5000A2FB0735D3EBC020A94167F100070CBFF9
:101C6000004247F0010766F3D5274FEA1E31B80856
:101C700014F5806414DDBD0775F1004250EB0E5081
:101C800051EB045111F5801F5CBF41EA0C01BDE826
:101C9000F0814CF07F6141F0E0410020BDE8F0812F
:101CA000BD076D0840EA0E5041F48011D4F10104E3
:101CB000B4F120060ADAC4F120060200E04001FA7D
:101CC00006F3E1401843B24015430EE0342C14DC17
:101CD000C6F1200445EA40056D0820FA06F21543D6
:101CE00021FA06F0A1400D43002175F1004250F1A8
:101CF000000051EB0C01BDE8F08100205FEA0C010F
:101D0000BDE8F081CFB992185B41B3FA83F704BF05
:101D1000B2FA82F6BF190B3FB7F120062FBF02FAC5
:101D200006F3BB40C7F1200622FA06F638BF33435C
:101D3000BA401CB1E419641E2FE77F4231F0004124
:101D4000B1FA81F404BFB0FA80F6A4190B3CB4F1E7
:101D500020062FBF00FA06F1A140C4F1200620FAA8
:101D600006F638BF3143A0403C1B16E7AC421ABF11
:101D700005EA1357AF4214E050EA41061CBF52EA8D
:101D80004306BFE750EA4107304661461CBF41EABF
:101D90000551BDE8F08152EA430C08BFC143BDE8DC
:101DA000F08100204FF4001616EB410F98BF16EBA0
:101DB000430F08BF16EB410F24BFC14305E016EBEC
:101DC000430F0CBF61464CEA0551BDE8F0810000AD
:101DD00080B5134800F0F6F80FF24C020FF2440100
:101DE0000160426241600FF24402826381600FF23F
:101DF0004402C1600161416181618162C16201632C
:101E00004163C2630164416401BD10B5044800F040
:101E1000D9F80446206808B9FFF7DAFF204610BD5C
:101E200044000020000000002E00000066616C737A
:101E300065000000747275650000000091FBF2F30C
:101E400003FB1211C0E900317047000080B5DFF8D4
:101E50000C0000F0B7F8806902BD0000D40000203B
:101E600030B430B90FF24800D0E90045C2E900456E
:101E70001BE00170012030BC704730B431B90FF263
:101E80003800D0E90045C3E900450EE01AB930BC7E
:101E90006FF00100704708B10A7802800978481E87
:101EA000804130BCC043C00F7047002030BC704739
:101EB0000000000000000000000000000000000022
:101EC0000749086808B1002070470648C008C000EC
:101ED00008600549C908C900091A0160704700BFB8
:101EE00000F4002047050020400700207047000054
:101EF000841A71EB030603D2001BB141121973411E
:101F00004FF4001C1CEB410F34BF7CEB430443E057
:101F10000C0DA4EB1356352E50DC45EAC323DB0A27
:101F200045EAC121C912B6F120050DDD63FA05F6B7
:101F3000EB4086EA0305124218BF45F00105C018C0
:101F400051F100010CD213E062FA06F5F24055405F
:101F5000F3415A40B340F3405A408018594107D3E7
:101F600049085FEA30005FEA350528BF45F0010502
:101F700001F58011420875F1004250F1000041EB7B
:101F80000451F0BC4FF4001C1CEB410F38BF7047EC
:101F90000020090D090570471CEB410F10D252EAD1
:101FA00043060BD0BCEB410F05D80C0DAB43661EAE
:101FB000342EB5DD02E0AB4380185941F0BC7047C8
:101FC000F0BC70477047000038B504000025207849
:101FD000C00740F10D81DFF8040C006810F00C0020
:101FE00004280BD0DFF8F40B006810F00C00082870
:101FF0002AD1DFF8E80B0068C00325D54FF48040F4
:10200000B0FA80F050F02000C0B24009C0B2012800
:1020100003D1DFF8EC0B006806E04FF48040B0FA23
:1020200080F0DFF8E00B00684FF48041B1FA81F1F5
:1020300011F01F01C840C00740F1DA806068002835
:1020400040F0D6800120A6E3DFF8B40B006830F43E
:102050008030DFF8AC1B0860DFF8A40B006830F4B8
:102060008020DFF89C1B086000F011FE05004FF493
:102070008040B0FA80F050F02000C0B24009C0B2F9
:10208000012803D1DFF8780B006806E04FF48040A8
:10209000B0FA80F0DFF86C0B00684FF48041B1FAC1
:1020A00081F111F01F01C840C00706D500F0EFFD17
:1020B000401B6528DBD303206DE36068B0F5803FEB
:1020C00008D1DFF83C0B006850F48030DFF8301B9B
:1020D000086038E06068002810D1DFF8240B006841
:1020E00030F48030DFF8181B0860DFF8140B00684C
:1020F00030F48020DFF8081B086024E06068B0F549
:10210000A02F10D1DFF8F80A006850F48020DFF823
:10211000F01A0860DFF8E80A006850F48030DFF851
:10212000E01A08600FE0DFF8D80A006830F4803069
:10213000DFF8CC1A0860DFF8C80A006830F48020A5
:10214000DFF8BC1A08606068002828D000F09FFD06
:1021500005004FF48040B0FA80F050F02000C0B28B
:102160004009C0B2012803D1DFF8940A006806E0F4
:102170004FF48040B0FA80F0DFF8880A00684FF42E
:102180008041B1FA81F111F01F01C840C0072FD47E
:1021900000F07DFD401B6528DBD30320FBE200F04F
:1021A00076FD05004FF48040B0FA80F050F020003A
:1021B000C0B24009C0B2012803D1DFF8440A006868
:1021C00006E04FF48040B0FA80F0DFF8380A00688B
:1021D0004FF48041B1FA81F111F01F01C840C007EE
:1021E00006D500F054FD401B6528DBD30320D2E266
:1021F0002078800740F1BF80DFF8E009006810F028
:102200000C0F0BD0DFF8D409006810F00C00082880
:1022100039D1DFF8C8090068C00334D45FF08040CA
:10222000B0FA80F050F02000C0B24009C0B20128DE
:1022300003D1DFF8CC09006806E05FF08040B0FA17
:1022400080F0DFF8C00900685FF08041B1FA81F1E9
:1022500011F01F01C840C00704D52069012801D032
:10226000012098E2DFF8980900685FF0F851B1FAB0
:1022700081F130F0F800626912FA01F10843DFF8E9
:102280008019086077E02069002842D001205FF0C3
:102290000041B1FA81F1DFF8702942F8210000F025
:1022A000F6FC05005FF08040B0FA80F050F02000AE
:1022B000C0B24009C0B2012803D1DFF84409006868
:1022C00006E05FF08040B0FA80F0DFF8380900687F
:1022D0005FF08041B1FA81F111F01F01C840C007E1
:1022E00006D400F0D4FC401B0328DBD3032052E2C9
:1022F000DFF80C0900685FF0F851B1FA81F130F0B5
:10230000F800626912FA01F10843DFF8F418086076
:1023100031E000205FF00041B1FA81F1DFF8E828F8
:1023200042F8210000F0B3FC05005FF08040B0FAF5
:1023300080F050F02000C0B24009C0B2012803D1A3
:10234000DFF8BC08006806E05FF08040B0FA80F07B
:10235000DFF8B00800685FF08041B1FA81F111F058
:102360001F01C840C00706D500F091FC401B0328A0
:10237000DBD303200FE22078000754D5A0690028A2
:102380002AD001205FF00041B1FA81F1DFF87C280A
:1023900042F8210000F07BFC05005FF08040B0FABD
:1023A00080F05FF08040B0FA80F0DFF858080068F5
:1023B0005FF08041B1FA81F111F01F01C840C00700
:1023C00006D400F064FC401B0328E6D30320E2E1BE
:1023D000012000F05FFC26E000205FF00041B1FA30
:1023E00081F1DFF8282842F8210000F050FC0500B8
:1023F0005FF08040B0FA80F05FF08040B0FA80F08B
:10240000DFF8000800685FF08041B1FA81F111F057
:102410001F01C840C00706D500F039FC401B032847
:10242000E6D30320B7E12078400740F1FE80DFF8D3
:10243000E007006850F08050DFF8D4170860DFF83C
:10244000D007006810F0805000900098DFF8C407B3
:10245000006850F48070DFF8BC17086000F017FCCB
:102460000500DFF8B0070068C00506D400F00FFCD7
:10247000401B6528F5D303208DE1DFF89C07006839
:1024800040084000DFF890170860DFF88C0700680C
:1024900030F00400DFF88017086000F0F8FB05005A
:1024A0005FF08040B0FA80F05FF08040B0FA80F0DA
:1024B00050F04000C0B24009C0B2022803D1DFF89A
:1024C0005807006802E0DFF83C0700685FF08041D1
:1024D000B1FA81F111F01F01C840C00708D500F022
:1024E000D6FB401B41F289318842D9D3032052E107
:1024F000E068012808D1DFF82007006850F00100EB
:10250000DFF81417086037E0E068002810D1DFF822
:102510000807006840084000DFF8FC160860DFF894
:10252000F806006830F00400DFF8EC16086023E0DD
:10253000E068052810D1DFF8E006006850F00400DC
:10254000DFF8D4160860DFF8D006006850F001000C
:10255000DFF8C41608600FE0DFF8BC06006840082A
:102560004000DFF8B4160860DFF8AC06006830F011
:102570000400DFF8A4160860E06800282AD000F004
:1025800086FB05005FF08040B0FA80F05FF080408D
:10259000B0FA80F050F04000C0B24009C0B202284A
:1025A00003D1DFF87406006802E0DFF8580600681F
:1025B0005FF08041B1FA81F111F01F01C840C007FE
:1025C00033D400F064FB401B41F289318842D9D3F7
:1025D0000320E0E000F05BFB05005FF08040B0FA14
:1025E00080F05FF08040B0FA80F050F04000C0B260
:1025F0004009C0B2022803D1DFF81C06006802E0DF
:10260000DFF8000600685FF08041B1FA81F111F057
:102610001F01C840C00708D500F039FB401B41F23C
:1026200089318842D9D30320B5E0E069002800F061
:10263000B180DFF8A805006810F00C00082800F051
:10264000A780E069022875D100208021B1FA81F1CC
:10265000DFF8B42542F8210000F019FB0500402006
:10266000B0FA80F050F02000C0B24009C0B201289A
:1026700003D1DFF88C05006805E04020B0FA80F057
:10268000DFF8800500684021B1FA81F111F01F01E7
:10269000C840C00706D500F0FAFA401B0328DED375
:1026A000032078E0206AB0F5803F09D1DFF82C05DF
:1026B000006830F40030A1680843DFF82015086096
:1026C000DFF81805006830F47410216A0843616A65
:1026D0000843DFF80815086001208021B1FA81F174
:1026E000DFF8242542F8210000F0D1FA050040204F
:1026F000B0FA80F050F02000C0B24009C0B201280A
:1027000003D1DFF8FC04006805E04020B0FA80F057
:10271000DFF8F00400684021B1FA81F111F01F01E7
:10272000C840C00736D400F0B2FA401B0328DED3FD
:10273000032030E000208021B1FA81F1DFF8C824C5
:1027400042F8210000F0A3FA05004020B0FA80F022
:1027500050F02000C0B24009C0B2012803D1DFF818
:10276000A004006805E04020B0FA80F0DFF894048F
:1027700000684021B1FA81F111F01F01C840C00783
:1027800008D500F084FA401B0328DED3032002E0C2
:10279000012000E0002032BD70B504000D000026CD
:1027A000DFF87804006810F00700A84280F0CE80BF
:1027B000DFF868040068C008C0002843DFF85C1434
:1027C0000860DFF85804006810F00700A84201D044
:1027D000012099E12078800709D5DFF844040068DA
:1027E00030F0F000A1680843DFF834140860207866
:1027F000C00740F16E816068012820D14FF480400D
:10280000B0FA80F050F02000C0B24009C0B20128F8
:1028100003D1DFF8EC03006806E04FF48040B0FA23
:1028200080F0DFF8E00300684FF48041B1FA81F1F5
:1028300011F01F01C840C00743D4012064E1606863
:1028400002281DD14020B0FA80F050F02000C0B224
:102850004009C0B2012803D1DFF8A403006805E0F5
:102860004020B0FA80F0DFF89C0300684021B1FA04
:1028700081F111F01F01C840C00722D4012043E1BB
:102880005FF08040B0FA80F050F02000C0B2400904
:10289000C0B2012803D1DFF86803006806E05FF0EA
:1028A0008040B0FA80F0DFF85C0300685FF08041A0
:1028B000B1FA81F111F01F01C840C00701D4012015
:1028C00022E1DFF85C03006880088000616808434B
:1028D000DFF84C13086000F0DAF9060060680128A0
:1028E00010D1DFF83C03006810F00C00042800F061
:1028F000F08000F0CCF9801B41F289318842F0D39E
:10290000032001E16068022810D1DFF81403006899
:1029100010F00C00082800F0DC8000F0B8F9801BF3
:1029200041F289318842F0D30320EDE0DFF8F00274
:10293000006810F00C0F00F0CC8000F0A8F9801BAC
:1029400041F289318842F1D30320DDE0207880070D
:1029500009D5DFF8CC02006830F0F000A168084328
:10296000DFF8BC1208602078C00740F1A3806068DF
:1029700001281FD14FF48040B0FA80F050F02000C1
:10298000C0B24009C0B2012802D19D48006806E0EB
:102990004FF48040B0FA80F0DFF8680200684FF42E
:1029A0008041B1FA81F111F01F01C840C00741D444
:1029B0000120A9E0606802281CD14020B0FA80F014
:1029C00050F02000C0B24009C0B2012802D18C48AA
:1029D000006805E04020B0FA80F0DFF828020068C7
:1029E0004021B1FA81F111F01F01C840C00721D484
:1029F000012089E05FF08040B0FA80F050F02000C4
:102A0000C0B24009C0B2012802D17D48006806E08A
:102A10005FF08040B0FA80F0DFF8E80100685FF016
:102A20008041B1FA81F111F01F01C840C00701D403
:102A3000012069E0DFF8E801006880088000616833
:102A40000843DFF8DC11086000F021F90600606837
:102A500001280FD1DFF8C801006810F00C0004282D
:102A600028D000F014F9801B41F289318842F1D35B
:102A7000032049E0606802280ED16948006810F020
:102A80000C00082816D000F002F9801B41F28931B1
:102A90008842F2D3032037E06148006810F00C0F41
:102AA00008D000F0F4F8801B41F289318842F3D35A
:102AB000032029E059480068C008C000284357494E
:102AC00008605648006810F00700A84201D00120B5
:102AD0001AE02078400707D55148006830F4E060DC
:102AE000E16808434E4908602078000708D54C4843
:102AF000006830F46050216950EAC100484908601C
:102B0000002000F0ACF8002070BDF0B585B001A841
:102B100044491022FEF7A0FC43480088ADF80000AD
:102B2000002100220023002400202C4D2D682900C4
:102B300011F00C05042D02D0082D03D026E03B4DEA
:102B4000280025E001AD11F470164FF47057B7FA64
:102B500087F7FE40755D2C00CD0311D51F4D2D6804
:102B60006E4615F400354FF48047B7FA87F7FD40FD
:102B7000AD5D2A002D4DB5FBF2F565432B0003E05A
:102B80002B4D05FB04F52B00180001E0274D280014
:102B900005B0F0BD80B5FFF7B8FF104909685FF0D8
:102BA0007062B2FA82F2234B11F0F001D140C95C9D
:102BB000C840214908602048006802BD80B5FFF781
:102BC000E9FF064909685FF46002B2FA82F2194B24
:102BD00011F4E061D140C95CC84002BD041002405C
:102BE00080B5FFF7D7FF0E4909685FF4E012B2FA2B
:102BF00082F2104B11F46051D140C95CC84002BD53
:102C00000010024024100240000042428004424270
:102C10001C100240007000402010024000200240C2
:102C200004100240FC420008B612000800127A00AC
:102C300000093D000C4300080000002080B51C483E
:102C4000006850F010001A490860032000F09CF85A
:102C5000002000F004F800F0E3F8002002BD10B5F9
:102C60000400FFF797FF4FF47A71B0FBF1F000F02A
:102C7000ABF8002221005FF0FF3000F08BF800205D
:102C800010BD0C480068401C0A490860704709489C
:102C90000068704711B581B00024FFF7F8FF040009
:102CA000FFF7F5FF001B01998842F9D313BD00001F
:102CB00000200240D4F3002010F007024D4B1B68A7
:102CC00019004FF6FF0319404B4B53EA02231943F7
:102CD000484B1960704747480068C0F302207047AE
:102CE000012110F01F029140444A40B2430942F8CA
:102CF0002310704710B440B2002808D50A01404B99
:102D000040B210F00F04E31803F8042C03E00A01AA
:102D10003C4B40B2C25410BC704770B4030013F077
:102D20000704D4F10706052E01D3042001E0D4F1F5
:102D30000700261D072E01D2002500E0E51E012612
:102D400016FA00F0401E0840A8400121A940491E83
:102D50001140084370BC704710B50400601EB0F10C
:102D6000807F01D301200EE0601E274908600F21FB
:102D70005FF0FF30FFF7BEFF002024490860072006
:102D800023490860002010BD10B504002000FFF7A3
:102D900093FF10BDF8B504000D0016000027FFF7E3
:102DA0009AFF0700320029003800FFF7B6FF010044
:102DB000200040B2FFF79EFFF1BD10B504002000D7
:102DC00040B2FFF78DFF10BD10B504002000FFF7E3
:102DD000C3FF10BD042806D10D49096851F0040154
:102DE0000B4A116005E00A49096831F00401084AFC
:102DF000116070470CED00E00000FA0500E100E012
:102E000018ED00E000E400E014E000E018E000E06D
:102E100010E000E080B500F001F801BD704700004F
:102E200080B51748006850F0010015490860144843
:102E3000006810F00100009000980520FFF7A4FF43
:102E4000002200217FF00B00FFF7A4FF00220021E9
:102E50007FF00A00FFF79EFF002200217FF00900AB
:102E6000FFF798FF002200217FF00300FFF792FF99
:102E7000002200215FF0FF30FFF78CFF01BD00BF93
:102E80001810024010B50400002C01D1012030E0E0
:102E9000A0690028FFD194F93900002805D100204D
:102EA00084F83800200000F029FB022084F8390063
:102EB0002068C06830F400502168C860200000F02D
:102EC00092FA2068006930F4904021680861206817
:102ED000406930F02A00216848612068C06850F4D9
:102EE00000502168C8600020E063012084F83900A8
:102EF000002010BD2DE9F84304000D0016001F004E
:102F00005FF0000994F939008146B9F1010F02D050
:102F1000B9F1220F69D1002D02D0B6B2002E01D135
:102F2000012063E094F93800012801D102205DE01E
:102F3000012084F838000020E06394F93900222849
:102F400003D1322084F8390002E0122084F83900DD
:102F5000A684E684E08C00282DD0E08C401EE0841E
:102F6000A068B0F5805F17D13B00002280212000CF
:102F700000F011F9002801D0032037E0A846B8F886
:102F80000000C005C00D216848602069002801D1FB
:102F9000AD1CDFE76D1CDDE73B0000228021200037
:102FA00000F0F9F8002801D003201FE028782168FC
:102FB00048606D1CCEE73B0000224021200000F05D
:102FC000EAF8002801D0032010E094F939003228F3
:102FD00003D1222084F8390002E0012084F839006E
:102FE000002084F83800002000E00220BDE8F283D1
:102FF00030B40300002493F939000400012C01D0FF
:10300000122C36D1002902D092B2002A01D101201F
:1030100030E093F93800012801D102202AE0012094
:1030200083F8380099629A85DA850020D86393F98D
:103030003900122803D1322083F8390002E022201F
:1030400083F83900002083F838001868C06850F40D
:1030500080701D68E8601868406950F001001D68C4
:1030600068611868C06850F020001D68E8600020A2
:1030700000E0022030BC704770B582B0040000252B
:1030800000262068006810F0010005002068C06874
:1030900010F480700600002D05D0002E03D0E06BE8
:1030A00050F00100E06320680068400810F0010063
:1030B00005002068406910F001000600002D05D0D1
:1030C000002E03D0E06B50F00400E063206800683D
:1030D000800810F001000500002D05D0002E03D05F
:1030E000E06B50F00200E06320680068C00810F058
:1030F00001000500002D05D0002E03D0E06B50F03C
:103100000800E06320680068400910F00100050035
:103110002068C06810F020000600002D04D0002EAA
:1031200002D0200000F0FDF820680068C00910F00F
:10313000010005002068C06810F080000600002D26
:1031400004D0002E02D0200000F096F8206800681D
:10315000800910F0010005002068C06810F04000F0
:103160000600002D04D0002E02D0200000F0C1F88F
:10317000E06B00280CD02068006800902068406850
:1031800000900098012084F83900200000F002F837
:1031900073BD704770472DE9F04104000D00160023
:1031A0001F005FF00008FFF772FD804676B2002E28
:1031B0002FD1206800682840A8425AD017F1010F8B
:1031C000F7D0002F05D0FFF762FDB0EB0800874273
:1031D000EFD22068C06830F080002168C8602068A5
:1031E000C06830F020002168C8602068C06830F4F2
:1031F00080702168C86020684069400840002168EC
:103200004861012084F83900002084F83800032048
:1032100030E0206800682840A8422AD117F1010F49
:10322000F7D0002F05D0FFF732FDB0EB0800874242
:10323000EFD22068C06830F080002168C860206844
:10324000C06830F020002168C8602068C06830F491
:1032500080702168C860206840694008400021688B
:103260004861012084F83900002084F838000320E8
:1032700000E00020BDE8F08110B40100002391F9C6
:1032800039000300122B01D0322B2FD18868B0F502
:10329000805F11D1086A02001088C005C00D0C685B
:1032A00060600869002803D1086A801C086209E090
:1032B000086A401C086205E0086A441C0C62007839
:1032C0000C686060C88C401EC884C88C00280BD174
:1032D0000868C06830F080000C68E0600868C0686A
:1032E00050F040000C68E060002000E0022010BCBC
:1032F000704710B504002068C06830F040002168B5
:10330000C86094F93900322803D1222084F83900AA
:1033100002E0012084F839002000FFF73AFF002086
:1033200010BD70B50400002694F939000600222E65
:1033300001D0322E55D1A068B0F5805F15D1A06ABA
:1033400005002069002808D120684068C005C00D2C
:103350002880A06A801CA06219E020684068C0B282
:103360002880A06A401CA06211E02069002806D1D4
:10337000A06A411CA16221684968017007E0A06A47
:10338000411CA1622168496811F07F010170E08D44
:10339000401EE085E08D002821D12068C06830F013
:1033A00020002168C86094F93900322803D1122026
:1033B00084F839000EE02068C06830F4807021681D
:1033C000C8602068406940084000216848610120C9
:1033D00084F83900200000F06FF9002002E000209E
:1033E00000E0022070BDF8B50400002520680069E7
:1033F00030F44050E168084321680861A068216901
:1034000008436169084305002068C06839490840DD
:1034100028432168C8602068406930F44070A16981
:1034200008432168486120683349884230D1FFF75A
:10343000D7FB0700FFF7D4FB0600FFF7D1FB1921EC
:1034400001FB07F162689200B1FBF2F16422B1FB6B
:10345000F2F1192202FB06F263689B00B2FBF3F261
:103460001923584363689B00B0FBF3F06423B0FB5F
:10347000F3F0642303FB1020000132306422B0FB20
:10348000F2F010F00F0050EA0110216888602FE080
:10349000FFF794FB0700FFF791FB0600FFF78EFB99
:1034A000192101FB07F162689200B1FBF2F164227D
:1034B000B1FBF2F1192202FB06F263689B00B2FB3A
:1034C000F3F21923584363689B00B0FBF3F06423C5
:1034D000B0FBF3F0642303FB1020000132306422C0
:1034E000B0FBF2F010F00F0050EA01102168886084
:1034F000F1BD0000F3E9FFFF0038014010B586B0D0
:10350000040020683249884221D13248006850F4D2
:103510008040304908602F48006810F480400090D7
:1035200000984FF400700190022002900320049054
:1035300001A9294800F0EEF84FF4806001900020C6
:1035400002900020039001A9234800F0E3F806B0A0
:1035500010BD80B51F48006850F004001D49086088
:103560001C48006810F004000090009818481B499F
:1035700008605FF4E130194948600020174988600D
:1035800000201649C8600020144908610C20134926
:10359000486100201149886100201049C8610F4826
:1035A000FFF770FC002201212520FFF7F3FB252007
:1035B000FFF703FC01BD11B581B00C004FF6FF739E
:1035C000012201A90548FFF795FC019816BD0000EE
:1035D00000380140181002400008014094F3002018
:1035E00000B58FB0012005905FF480300690002078
:1035F000079002200C905FF480300D905FF4E01093
:103600000E9005A8FEF7E0FC0F200090022001902C
:10361000002002904FF4806003900020049002216B
:103620006846FFF7B9F8FFF7B5FA4FF47A71B0FBC7
:10363000F1F0FFF7C9FB0420FFF7CCFB00220021CB
:103640005FF0FF30FFF7A6FB0FB000BD80B5FFF7BE
:10365000F5FAFFF7C5FF00F003FA00F05DFAFFF797
:1036600078FF012220492148FFF7C2FC204800F0E2
:10367000C1FA204800F0BEFA00F07FFA012810D10C
:103680001D4801881D4800F0B5FA1D4800F0B2FA47
:10369000194802881B491C4800F0BEFA1B4800F07C
:1036A000A9FA00F084FA0128E6D1194800F0A2FA3C
:1036B000154800F0F3FADFE710B504000E48008863
:1036C000B0F55C4F0AD2084800780E490A4A1288C1
:1036D000505409480088401C0749088001220249CB
:1036E0000248FFF785FC10BD04F4002094F300208D
:1036F0002C420008E840000840E30020C8420008CF
:10370000DC42000840070020000001088C4200084D
:10371000EC4200082DE9F841002300240025002692
:103720005FF0000E5FF0000C6246102A80F05B81B3
:103730005FF0010C1CFA02FC6346D1F800C013EAEA
:103740000C0C64469C4240F04C81D1F804C0BCF1A2
:10375000000F3DD0BCF1010F24D0BCF1020F2BD0E3
:10376000BCF1030F4CD0BCF1110F1FD0BCF1120FF4
:1037700028D0DFF8A482C4452AD0DFF8A082C4454F
:1037800026D0DFF89C82C44522D0DFF89882C44559
:103790001ED0DFF89482C4451AD0DFF89082C44569
:1037A00016D031E0D1F80CC066462DE0D1F80CC03F
:1037B0001CF1040C664627E0D1F80CC01CF1080C83
:1037C000664621E0D1F80CC01CF10C0C66461BE0EB
:1037D000D1F808C0BCF1000F03D15FF0040C6646BD
:1037E0000DE0D1F808C0BCF1010F04D15FF0080C66
:1037F0006646036103E05FF0080C6646436103E040
:103800005FF0000C6646FFE7FF2C01D8070000E0E0
:10381000071DFF2C02D85FEA820E03E0B2F1080C0C
:103820005FEA8C0ED7F800C05FF00F0818FA0EF8A8
:103830003CEA080C16FA0EF858EA0C0CC7F800C05F
:10384000D1F804C05FEACC0C40F1CB80DFF8E0C1D6
:10385000DCF800C05CF0010CDFF8D481C8F800C0CF
:10386000DFF8CCC1DCF800C01CF00108CDF8008006
:10387000DDF800C0DFF8BCC15FEA92085CF828C040
:1038800065465FF00F0C12F003085FFA88F85FEAF4
:1038900088081CFA08FC35EA0C05DFF89CC1604575
:1038A00002D15FF0000C24E0DFF890C1604502D146
:1038B0005FF0010C1DE0DFF888C1604502D15FF0C8
:1038C000020C16E0DFF87CC1604502D15FF0030C0A
:1038D0000FE0DFF874C1604502D15FF0040C08E02E
:1038E000DFF868C1604502D15FF0050C01E05FF0D0
:1038F000060C12F003085FFA88F85FEA88081CFAE1
:1039000008FC5CEA0505DFF82CC15FEA92084CF878
:103910002850D1F804C05FEACC3C0AD5DFF830C1AA
:10392000DCF800C054EA0C0CDFF82481C8F800C0B1
:1039300009E0DFF81CC1DCF800C03CEA040CDFF849
:103940001081C8F800C0D1F804C05FEA8C3C0AD5E9
:10395000DFF800C1DCF800C054EA0C0CDFF8F4809A
:10396000C8F800C009E0DFF8ECC0DCF800C03CEAB1
:10397000040CDFF8E080C8F800C0D1F804C05FEAAA
:10398000CC2C0AD5DFF8D0C0DCF800C054EA0C0C0F
:10399000DFF8C480C8F800C009E0DFF8BCC0DCF87C
:1039A00000C03CEA040CDFF8B080C8F800C0D1F8D1
:1039B00004C05FEA8C2C0AD5DFF8A0C0DCF800C098
:1039C00054EA0C0CDFF89480C8F800C009E0DFF876
:1039D0008CC0DCF800C03CEA040CDFF88080C8F83A
:1039E00000C0521CA1E6BDE8F1810200936889B2D3
:1039F0000B4202D00123180001E00023180040B25E
:103A0000704752B2002A02D089B2016102E089B245
:103A10000B04036170470000000011100000121039
:103A200000002110000022100000311000003210B0
:103A3000181002400800014000080140000C01403D
:103A4000001001400014014000180140001C01401A
:103A50000004014004040140080401400C0401403A
:103A600000B585B02948006850F008002749086073
:103A70002648006810F0080000900098234800686D
:103A800050F48070214908602048006810F480706C
:103A9000009000981D48006850F480701B49086031
:103AA0001A48006810F480700090009800220121EC
:103AB0001748FFF7A6FF002240211648FFF7A1FF95
:103AC000002280211348FFF79CFF01200190012074
:103AD00002900220049001A90D48FFF71BFE402030
:103AE0000190012002900220049001A90948FFF7EB
:103AF00011FE80200190012002900220049001A973
:103B00000448FFF707FE05B000BD00001810024092
:103B1000000C01400020014000B585B0324800682B
:103B200050F00400304908602F48006810F004008D
:103B3000009000982C48006850F010002A49086056
:103B40002948006810F010000090009801200190B2
:103B5000002002900220039001A92448FFF7DAFD1B
:103B60004FF400500190002002900120039001A921
:103B70001F48FFF7CFFD05B000BD80B501211B48F0
:103B8000FFF733FF012810D10A20FFF783F8012146
:103B90001648FFF72AFF012807D101211348FFF734
:103BA00024FF0128F9D0012000E0002002BD80B5EB
:103BB0004FF400510E48FFF718FF002812D10A20D9
:103BC000FFF768F84FF400510948FFF70EFF00288F
:103BD00008D14FF400510648FFF707FF0028F8D03E
:103BE000012000E0002002BD181002400008014042
:103BF000001001400EB400B582B003A90091024646
:103C00006B460121034878440A30FCF791FA06BC60
:103C10005DF810FB910600002DE9F84F04000D003F
:103C200016005FF00009A246AB4600200700BFB2B5
:103C3000B74221D29BF80100000280469BF80000A9
:103C400010EB08081BF1020B1C481FFA89F920F839
:103C5000198019F101091FFA89F9B9F5806F09D1A5
:103C6000002081464FF480621449504600F042F82B
:103C70001AF5006ABF1CDAE71FFA89F9B9F1000FDB
:103C800005D04A4692B20D49504600F033F8BDE8DF
:103C9000F18F000080F308887047704738B5040042
:103CA000206807490840B0F1005F05D16068050051
:103CB0002068FFF7EFFFA84731BD000044E3002074
:103CC0000000FE2F00887047F8B507000C001500B3
:103CD00000200600B6B2ADB2AE420AD2B6B234F897
:103CE000162000233900012000F0BCF8BF1C761C10
:103CF000F0E7F1BD2DE9F84F04000D001600B4F116
:103D0000006F02D34B48844200D391E000F00AF9DF
:103D1000B4F1006083465FEADB2082464FF4006026
:103D2000BBFBF0F101FB10B148080700D7F580603C
:103D300080461FFA88F8B6B2B04500D3B0464FF4BB
:103D400080623D494FF4006000FB0AF010F1006012
:103D500000F074F8002081461FFA89F91FFA88F8EC
:103D6000C1450ED23448BFB21FFA89F919EB0701D9
:103D700030F811004FF6FF71884202D119F10109A4
:103D8000EAE71FFA89F91FFA88F8C1452AD24FF4E9
:103D9000006000FB0AF010F1006000F049F900201B
:103DA00081461FFA89F91FFA88F8C1450ED22248C8
:103DB0001FFA89F9BFB217EB09011FFA89F935F823
:103DC000192020F8112019F10109EAE74FF4806267
:103DD00019494FF4006000FB0AF010F10060FFF792
:103DE00073FF05E0424692B229002000FFF76CFF06
:103DF000B6B21FFA88F8464502D100F0A1F817E0E4
:103E00001AF1010A002007001FFA88F815EB48058F
:103E10001FFA88F818EB0404B6EB0806B6B2B6F53C
:103E2000806F03DD4FF48060804688E7B04686E708
:103E3000BDE8F18F0000080844EB0020F8B504004D
:103E40000D00160000200700BFB2B6B2B74208D27C
:103E50002000FFF737FFBFB225F81700A41C7F1C16
:103E6000F2E7F1BD2DE9F04782460E0014001D0077
:103E700001275FF000085FF00009DFF8980190F972
:103E80001800012801D102204AE00120DFF8841146
:103E900008764CF2503000F066F807007FB2002F31
:103EA00038D1BAF1010F02D10120814607E0BAF101
:103EB000020F02D10220814601E004208146002049
:103EC00080465FFA88F85FFA89F9C84522D2200057
:103ED00029005FFA88F85FEA081200F0C1F80100D3
:103EE00089B25FFA88F816EB480000F031F84CF21E
:103EF000503000F038F80700DFF81C010068400877
:103F00004000DFF8141108607FB2002F02D118F1D1
:103F10000108D6E70020DFF8FC100876380040B230
:103F2000BDE8F0873C480068000607D53C483D499D
:103F300008603D483B490860002000E001207047D0
:103F40003548006850F08000334908600020704711
:103F50000022304BDA61304A126852F001022E4BD7
:103F60001A600180704738B50400FEF790FE050026
:103F70002A480068C0070BD514F1010FF8D0002CB7
:103F800004D0FEF784FE401B8442F1D2032017E0E8
:103F900022480068800602D52020204908601F487A
:103FA0000068C00607D421480068C00703D41B4836
:103FB0000068400703D500F004F8012000E000206D
:103FC00032BD16480068C00605D51248C06950F0D9
:103FD00002001049C86111480068400705D50D4826
:103FE000C06950F001000B49C86110480068C00763
:103FF0000BD50848C06950F004000649C8610B4859
:10400000006840084000094908601420034908601E
:1040100070470000D8F30020102002400C2002401E
:104020002301674504200240AB89EFCD1C200240EC
:104030000021084AD1610849096851F00201064A85
:104040001160064908600449096851F04001024ABC
:1040500011607047D8F30020102002401420024065
:10406000D2B2203A22BF21FA02F00021704720325A
:10407000D141D04048409140D14048407047000075
:104080001348006850F001001149086011480068A9
:10409000114908400F4908600D4800680F49084061
:1040A0000B4908600A48006830F48020084908601D
:1040B0000848006830F4FE00064908605FF41F00FD
:1040C000074908605FF0006006490860704700001B
:1040D00000100240041002400000FFF8FFFFF6FE4F
:1040E0000810024008ED00E0C8E7B9FBD0E8D2AA0A
:1040F000B8FCD0C220415050A3ACC7EBB7A2CBCD87
:104100002041505020B9CCBCFEA3A82E62696ECECF
:10411000C4BCFEA3A9A3ACCDEAB1CFBAF3C7EBB53B
:10412000A5BBF7204B455931A1A3B7F1D4F2B5A5F2
:10413000BBF7204B45593220D6B4D0D02041505047
:10414000A1A30A0019E050F8041BCB0744BFA9F152
:1041500001035918121F0023042A41F8043BF9D225
:104160005FEA827C0B4604D54FF0000CA1F800C03A
:104170009B1CD10744BF0021197050F8042B002A62
:10418000E1D1704730B5016842688468091801EBD5
:104190005203D20748BF4C440C30994200D130BD85
:1041A00011F9012B11F8015B002A04F8015B02D51B
:1041B000521CF9D1F1E7521EF4D5EEE77047FEE745
:1041C000FEE7FEE7FEE7FEE780B5FEF75AFDFEF7E5
:1041D00021FE01BD80B50248FEF74EFF01BD000083
:1041E00094F3002010B5074979441831064C7C44FB
:1041F000163404E00A68081D511888470146A14298
:10420000F8D110BD080000002400000039FFFFFFB6
:10421000C8EC0000400700200000000069FFFFFF1D
:104220000C0200006200000000000020CFC2C3E6C4
:10423000BDABC9D5D0B42041505020B5BD20464CAF
:104240004153480A0000000000F00BF8002801D09C
:10425000FFF7C8FF0020C046C046FFF7F7F900F09F
:1042600002F80120704700F001B800000746384608
:1042700000F002F8FBE7000080B5C046C046024AE5
:1042800011001820ABBEFBE726000200B5A5BBF766
:10429000204B455932A3ACD6B4D0D0204150500A5F
:1042A0000000000038B504460D46284600F006F828
:1042B000A84218BF0024204632BD00000149FFF784
:1042C0007AB900BF0400002041505020B3A4B6C802
:1042D000A3BA2564D7D6BDDA0A000000BFAACABCBB
:1042E000B8FCD0C2204150500A000000BFAACABC8E
:1042F000D6B4D0D0204150500A000000020304057B
:10430000060708090A0B0C0D0E0F10100000000024
:10431000010203040102030406070809014880475B
:1043200001480047814000082D430008C046C046B0
:10433000C046C046FFF788FFFFF7FEBFFFF7FEBF8E
:10434000FFF7FEBFFFF7FEBFFFF7FEBFFFF7FEBFA1
:10435000FFF7FEBFFFF7FEBFFFF7FEBFFFF7FEBF91
:10436000FFF7FEBFFFF7FEBFFFF7FEBFFFF7FEBF81
:10437000FFF7FEBFFFF7FEBFFFF7FEBFFFF7FEBF71
:10438000FFF7FEBFFFF7FEBFFFF7FEBFFFF7FEBF61
:10439000FFF7FEBFFFF7FEBFFFF7FEBFFFF7FEBF51
:1043A000FFF7FEBFFFF7FEBFFFF7FEBFFFF7FEBF41
:1043B000FFF7FEBFFFF7FEBFFFF7FEBFFFF7FEBF31
:1043C000FFF7FEBFFFF7FEBFFFF7FEBFFFF7FEBF21
:1043D000FFF7FEBFFFF7FEBFFFF7FEBFFFF7FEBF11
:1043E000FFF7FEBFFFF7FEBFFFF7FEBFFFF7FEBF01
:1043F000FFF7FEBFFFF7FEBFFFF7FEBFFFF7FEBFF1
:10440000FFF7FEBFFFF7FEBFFFF7FEBFFFF7FEBFE0
:10441000FFF7FEBFFFF7FEBFFFF7FEBFFFF7FEBFD0
:10442000FFF7FEBFFFF7FEBFFFF7FEBF2300A24A64
:10443000040204010144F3002094F3002044F3003B
:104440002044F3002044F300204100002028000015
:0D44500020C400F8FFDC00FAFF8100D1005D
:040000050800432D7F
:00000001FF
